:020000040800F2
:10000000385800200D9B0008159800081798000824
:10001000199800081B9800081D98000800000000AF
:10002000000000000000000000000000F57E000855
:100030001F980008000000009D7E0008219800081D
:10004000C59B0008C99B0008CD9B0008D19B0008F8
:10005000D59B0008D99B0008DD9B0008E19B0008A8
:10006000E59B0008E99B0008ED9B0008F19B000858
:10007000F59B0008F99B0008FD9B0008019C000807
:10008000059C0008099C00080D9C0008119C0008B4
:1000900035980008159C0008199C00083F98000836
:1000A0001D9C0008219C0008259C0008299C000834
:1000B0002D9C0008319C00084B980008359C0008D6
:1000C000399C00083D9C0008419C0008459C0008A4
:1000D000499C0008559800085F9800086998000836
:1000E0004D9C0008519C0008559C0008599C000834
:1000F0005D9C0008619C0008659C0008699C0008E4
:100100006D9C0008719C0008759C0008799C000893
:100110007D9C0008819C0008859C0008899C000843
:100120008D9C0008919C0008959C0008999C0008F3
:100130009D9C0008A19C0008A59C0008A99C0008A3
:10014000AD9C0008B19C0008B59C0008B99C000853
:10015000BD9C0008C19C0008C59C0008739800085D
:10016000C99C0008CD9C0008D19C0008D59C0008C3
:10017000D99C0008DD9C0008E19C000800000000FC
:10018000E59C0008E99C000880B5DFF8C029002143
:100190000FF2AD0001F026FBDFF8B4190860DFF8BC
:1001A000B42900210FF2591001F01CFBDFF8A81947
:1001B0000860DFF8A82900210FF2653001F012FB7A
:1001C000DFF89C190860DFF89C2900210FF2BD3090
:1001D00001F008FBDFF890190860DFF89029002192
:1001E0000FF6352001F0FEFADFF884190860DFF819
:1001F00084290021DFF8800901F0F4FADFF87C1986
:100200000860DFF87C290021DFF8780901F0EAFABC
:10021000DFF874190860DFF874290021DFF870092D
:1002200001F0E0FADFF86C190860DFF86C290021B2
:10023000DFF8680901F0D6FADFF86419086001BD3B
:1002400010B50400DFF85C099FED290A80ED3E0A35
:10025000DFF85419DFED270AC1ED3E0A80ED3D0AB3
:100260009FED250A81ED3D0ADFF84029C0F8CC203A
:1002700081ED330ADFF83829C0F8D020C1ED340A07
:10028000DFF83029C0F8A42081ED290ADFF82829F9
:10029000C0F8A820DFF82429C1F8A8209FED170A8C
:1002A00080ED1F0ADFF81829CA6780ED200ADFF801
:1002B0001429C1F88020DFF810294265DFF80C29E5
:1002C0004A65DFF80C298265DFF808298A659FED09
:1002D000930A80ED0B0ADFF80029CA6280ED0C0A50
:1002E000DFF8F8080863012001F0EEFAFBE70000F0
:1002F00057444C402B1A063FAAF1823F39F0D43FB5
:100300002DE9F84F0400DFF8D8582878052812D0D6
:1003100028780A280FD028780F280CD0287812289F
:1003200040F08180DFF8BC08B0F9180000B201F09D
:10033000EFFA002877D1DFF8B0683068002800F0C5
:10034000E980DFF8A8783868002800F0E380DFF85B
:10035000A0880020C8F87C000020C8F878000020A1
:10036000C8F880002878132833DADFF8889800204E
:10037000C9F80000DFF880A89AF8000001280BD126
:100380004FF47A730122DFF87418DFF8740801F073
:10039000F8FD00208AF80000287802280ED028787E
:1003A00003280BD02878072808D02878082805D0FB
:1003B00028780C2802D028780D2803D14FF49660B5
:1003C00001F082FA0120C9F800002878401C28704A
:1003D00003E00120DFF82C180870002030600020B6
:1003E00038600020DFF820180860D8F80800DFF82F
:1003F0001C1808602878032840F08C80287808288A
:1004000040F0888028780D2840F08480DFF80008CC
:1004100002F0C4FBDFF8FC0702F0C0FBDFF8440C7D
:1004200002F0BCFB76E0DFF8C0673068192871D3B2
:10043000DFF8B877386819286CD3DFF8CC87D8F89C
:100440000000192866D3DFF8A8970020C9F87C00BF
:100450000020C9F878000020C9F880002878132807
:1004600033DADFF890A70020CAF80000DFF888B779
:100470009BF8000001280BD14FF47A730122DFF8BA
:100480007C17DFF87C0701F07CFD00208BF8000072
:10049000287802280ED0287803280BD0287807283F
:1004A00008D02878082805D028780C2802D0287889
:1004B0000D2803D14FF4966001F006FA0120CAF826
:1004C00000002878401C287003E00120DFF8341772
:1004D000087000203060002038600020C8F800005C
:1004E000D9F80800DFF8241708602878032811D10C
:1004F000287808280ED128780D280BD1DFF81007AE
:1005000002F04CFBDFF80C0702F048FBDFF8540B5D
:1005100002F044FB0A2001F0D7F9F4E6C190323F23
:1005200070B504000125DFF8BC66B6F9160000B20C
:1005300001F0EEF902281AD10120DFF8B8160860A0
:100540002800C0B2002812D0B6F9080000B201F0AD
:10055000DFF9002804D11120DFF88416087003E0C9
:100560000120DFF87C16087002F0BAFB6D1EB6F9A8
:10057000160000B201F0CCF9022803D00020DFF809
:1005800074160860052001F09FF9CCE7F8B52DED51
:10059000028B0400DFF85C060068002800F0BB82D4
:1005A000DFF83C562878012842D1DFF844665FF036
:1005B0007F50F0670020B0674FF4C87001F084F9F5
:1005C0000020F067DFF8A00AB06740F21E5001F08B
:1005D0007BF9DFF8980AF0670020B0674FF4F370FA
:1005E00001F072F95FF03F40F0670020B06740F221
:1005F000871001F069F99FEDD08A86ED1F8ADFF838
:10060000700AB0672878012803D1012001F05CF955
:10061000F8E72878022840F07E820020B06786ED57
:100620001F8A4FF4617001F04FF90020F06772E209
:10063000287802280CD19FEDC11ADFEDC10A9FED89
:10064000C10A02F081FD0120DFF8AC15087062E2FA
:10065000287803280CD19FEDB91ADFEDBB0A9FED76
:10066000BB0A02F071FD0120DFF88C15087052E220
:10067000287804282ED1DFF87865DFF8F809F067CC
:10068000BFEE008A86ED1E8A4FF42F7001F01CF930
:10069000DFF8DC09F067DFF8E009B0674FF4FA70C3
:1006A00001F012F986ED1F8A0020B0674FF46170E7
:1006B00001F00AF92878401C28700120DFF8BC19E5
:1006C00008700020F0670020B0670020DFF82815D0
:1006D000087020E2287805281CD19FED981ADFEDDC
:1006E000CF0A9FEDCF0A02F02FFDDFF8905928784E
:1006F00001280AD14FF47A730122DFF88419DFF858
:10070000000501F03EFC002028700020DFF8E8140E
:10071000087000E2287806282BD10020DFF8D814D2
:100720000870DFF8CC645FF03F40F0670020B067EE
:100730004FF4487001F0C8F89FED7F8A86ED1F8A5C
:10074000DFF82C09B0672878062803D1012001F0D2
:10075000BBF8F8E72878072840F0DD8186ED1F8A8E
:100760000020B0674FF4617001F0AEF80020F06730
:10077000D1E1287807280CD19FED701ADFEDBF0A70
:100780009FEDBF0A02F0E0FC0120DFF86C14087056
:10079000C1E1287808280CD19FED681ADFEDB90A6D
:1007A0009FEDB90A02F0D0FC0120DFF84C1408706C
:1007B000B1E1287809282ED1DFF83464DFF8B408D5
:1007C000F067BFEE008A86ED1E8A4FF42F7001F0AD
:1007D0007BF8DFF89C08F067DFF89C08B0674FF4FF
:1007E000FA7001F071F886ED1F8A0020B0674FF4AF
:1007F000617001F069F82878401C28700120DFF84A
:100800007C1808700020F0670020B0670020DFF837
:10081000E81308707FE128780A281CD19FED471A59
:10082000DFEDBF0A9FEDBF0A02F08EFCDFF84C58E7
:10083000287801280AD14FF47A730122DFF8401892
:10084000DFF8BC0301F09DFB002028700020DFF8DA
:10085000A81308705FE128780B282BD10020DFF85F
:1008600098130870DFF888635FF03F40F06700205E
:10087000B0674FF4487001F027F89FED2F8A86ED9E
:100880001F8ADFF8EC07B06728780B2803D1012016
:1008900001F01AF8F8E728780C2840F03C8186ED42
:1008A0001F8A0020B0674FF4617001F00DF800203E
:1008B000F06730E128780C280BD19FED201ADFED8E
:1008C0009A0A9FED9A0A02F03FFC0120CA4908707B
:1008D00021E128780D280BD19FED181ADFED690A68
:1008E0009FED930A02F030FC0120C349087012E129
:1008F00028780E2814D10020BF490870BC4E5FF044
:100900007E50F0670020B0674FF4B47000F0DCFF59
:100910002878401C28700020F0670020B067FAE0BB
:1009200028780F2814D19FED051ADFED820A9FED7C
:10093000820A02F009FCEEE0CDCC4CBE00000000C3
:100940004CBCB23F4CC84C40A18B5E3F374D394048
:100950002878102839D14FF47A730122DFF8101B60
:10096000A74801F00EFBA24E0020B0675FF04040A8
:10097000F06740F2EE2000F0A7FF0020B0670020F3
:10098000F067502000F0A0FF5FF07F50B0670020BC
:10099000F06740F2A64000F097FF0020B06700200B
:1009A000F067502000F090FF0020B067DFF8C40A25
:1009B000F06740F6480000F087FF2878401C287058
:1009C0000020F0670020B067A5E02878112829D121
:1009D000844DB5F9180000B200F09AFF012803D148
:1009E000012000F071FFF3E7B5F9180000B200F044
:1009F0008FFF002804D19FED510A02F091FE8AE09A
:100A0000B5F9180000B200F083FF022840F083809F
:100A10009FED4B0A02F084FE7DE000BFF92C5E40A2
:100A200097A508402878122875D16E4EB6F918009F
:100A300000B200F06DFF00280AD19FED401A5A481D
:100A4000D0ED2A0A6A4890ED000A02F04FFF62E0FA
:100A5000B6F9180000B200F05BFF02285BD12878DD
:100A6000122813D19FED361ADFED360A9FED360AB4
:100A700003F022F9012000F027FFF0E73CBDB23F70
:100A8000F52D0B40728A5E3F8998F23F1220287044
:100A90005B4E4FF47A730122DFF89C1A300001F0AC
:100AA00070FA40F6980000F00FFF514F5FF07E5053
:100AB000B8670020F8674FF47A7000F005FF002057
:100AC000B8670020F867322000F0FEFE2878122870
:100AD00007D19FED1A0A02F023FE012000F0F4FE78
:100AE000F4E7122028704FF47A730122DFF8401BDC
:100AF000300001F046FA287812280CD19FED0F1A29
:100B00002948D0ED2A0A97ED000A02F0EFFE0120F5
:100B100000F0DAFEEFE7012000F0D6FE3AE500BF74
:100B2000E49B624048AB923F1361B33FEA5B963F60
:100B30001231653FDCA8133FF9547F40920A06400A
:100B4000920A063F5A45BB3F8E23D43F0C990008BA
:100B500038530020309900083C5300205499000875
:100B60004053002078990008445300209C990008C5
:100B700048530020C0990008851000084C530020FD
:100B8000E49900087914000850530020089A0008DE
:100B90003D150008545300202C9A00083516000813
:100BA00058530020C8490020584B002023502A40A9
:100BB000D1972B4052970B40158D0C40CF8A033FA5
:100BC000AE3CDA3F00F5883FF061953FD798D93FBA
:100BD0000DBC993F7A09973F647102406C53C23F44
:100BE0002C540020F85100209C530020A0530020DA
:100BF000E84C0020245300202D540020AD0100209B
:100C0000245100202A540020A4530020985300208F
:100C10002C0100205001002070B50400DFF8B41A48
:100C20000868002840F0E680DFF8AC0A0078132856
:100C300080F2E08040F23340DFF8A01A4A88824216
:100C40000ADB4A8840F26A539A4205DADFF8902AB2
:100C5000DFF8903AD36738E04A8840F26A539A4204
:100C600009DB4A88B2F5D46F05DADFF8742A5FF041
:100C70004043D36729E040F297224B8893420ADB36
:100C80004B8840F2CE35AB4205DADFF8542A5FF0EC
:100C90007F53D36719E04B8840F26115AB4208DB04
:100CA0004B88934205DADFF8382A5FF08043D36738
:100CB0000BE04A8840F2CE339A4206DB4A888242F1
:100CC00003DADFF81C2A0023D3670A8882420ADB92
:100CD0000A8840F26A539A4205DADFF8042A5FF084
:100CE0007E53936738E00A8840F26A539A4209DBE0
:100CF0000A88B2F5D46F05DADFF8E4295FF07E5395
:100D0000936729E040F297220B8893420ADB0B8815
:100D100040F2CE35AB4205DADFF8C429DFF8C83936
:100D2000936719E00B8840F26115AB4208DB0B8832
:100D3000934205DADFF8A829DFF8AC3993670BE0B6
:100D40000A8840F2CE339A4206DB0A88824203DAEE
:100D5000DFF88C2900239367CA8882420BDBCA889C
:100D600040F26A539A4206DADFF87409DFF8041396
:100D7000C0F8801072E1CA8840F26A539A420ADBD6
:100D8000CA88B2F5D46F06DADFF854095FF07E51F5
:100D9000C0F8801062E140F29722CB8893420ADBD0
:100DA000CB8840F2CE35AB4205DADFF83409B049E2
:100DB000C0F8801052E1CB8840F26115AB4209DBEC
:100DC000CB88934206DADFF81809DFF81C19C0F85F
:100DD000801043E1CA8840F2CE339A42C0F23E818D
:100DE000C988814280F23A81DFF8F4080021C0F816
:100DF000801033E10868002840F03081DFF8D8081F
:100E000000781328C0F22A8140F23345DFF8CC681D
:100E10007088A8420ADB708840F26A51884205DA7D
:100E2000DFF8BC085FF03F41C16738E0708840F2EE
:100E30006A51884209DB7088B0F5D46F05DADFF8B3
:100E4000A0085FF03F41C16729E040F29720718818
:100E500081420ADB718840F2CE32914205DADFF836
:100E600080085FF07C51C16719E0718840F261121F
:100E7000914208DB7188814205DADFF864085FF08F
:100E80007C51C1670BE0708840F2CE31884206DBAE
:100E90007088A84203DADFF848080021C167B6F974
:100EA0000E0000B200F034FD002843D13088A84283
:100EB00009DB308840F26A51884204DADFF8200802
:100EC0000021816780E0308840F26A51884208DB67
:100ED0003088B0F5D46F04DADFF8040800218167A8
:100EE00072E040F297203188814209DB318840F27C
:100EF000CE32914204DADFF8E8070021816763E02F
:100F0000318840F26112914207DB3188814204DA74
:100F1000DFF8CC070021816756E0308840F2CE31FF
:100F2000884251DB3088A8424EDADFF8B40700214E
:100F3000816749E0B6F90E0000B200F0E9FC022832
:100F400042D13088A84209DB308840F26A51884299
:100F500004DADFF88C070021816735E0308840F241
:100F60006A51884208DB3088B0F5D46F04DADFF8C4
:100F700070070021816727E040F297203188814285
:100F800009DB318840F2CE32914204DADFF85007B3
:100F90000021816718E0318840F26112914207DB3D
:100FA0003188814204DADFF83807002181670BE0DD
:100FB000308840F2CE31884206DB3088A84203DA1E
:100FC000DFF81C0700218167F088A8420ADBF0885F
:100FD00040F26A51884205DADFF804072549C0F873
:100FE00080103BE0F08840F26A5188420ADBF088CA
:100FF000B0F5D46F06DADFF8E8065FF07E51C0F88E
:1010000080102BE040F29720F18881420ADBF188C2
:1010100040F2CE32914205DADFF8C4061449C0F836
:1010200080101BE0F18840F26112914209DBF188E7
:10103000814206DADFF8A806DFF8AC16C0F88010A7
:101040000CE0F08840F2CE31884207DBF088A842FD
:1010500004DADFF88C060021C0F88010052000F0CB
:1010600033FCDBE5740100206666A6BF333333BF73
:101070009A9919BF9A99193F3333B3BF2E54002060
:10108000AE0100202DE9F14FDFF84C06007813285F
:10109000C0F2E881DFF84446B4F9160000B200F06F
:1010A00037FC022840F0DE81B4F91A0000B200F0EB
:1010B0002FFC002803D1012000F006FCF4E7B4F96E
:1010C000160000B200F024FC022840F0CB81DFF8CB
:1010D0001C562868002800F1B3812868062190FB7F
:1010E000F1F0401CDFF8081608602868062805DAC9
:1010F0002868401CDFF8FC15086004E02868401FE1
:10110000DFF8F0150860DFF8F065DFF8E8754FF4F8
:101110007A730122DFF8E40539680844411E300083
:1011200000F02FFFDFF8D8153A682820424301EB82
:101130000200DFF8BC15096850F82100DFF8C4157B
:101140000860DFF8C485DFF8C4153A6828204243F8
:1011500001EB0200DFF89815096850F82100C8F883
:101160000000DFF87C95DFF85C05C9F87C00002002
:10117000C9F87800642000F0A7FB0020C9F87C00C3
:101180000020C9F878004FF4FA7000F09DFBDFF8FA
:1011900080A5D9F80400CAF80000DFF878B59BF8FC
:1011A0000000002814D1B4F9160000B200F0B0FB22
:1011B00002280DD19FEDAD1ADAED000ADFF84405E3
:1011C00090ED000A02F080FC012000F07DFBE4E7D6
:1011D00000208BF800000020C9F878000020C9F832
:1011E0007C00502000F070FBDFF804050168012945
:1011F00040F0C2803868042857DBDFF81CA5D9F816
:101200000000CAF800009BF80000002812D1B4F9D1
:10121000160000B200F07CFB02280BD19FED931A60
:10122000D8ED000A9AED000A02F060FB012000F000
:101230004BFBE8E700208BF80000B4F9160000B281
:1012400000F066FB02280AD14FF47A730122BA49F2
:10125000300000F096FE40F6980000F035FBD9F81B
:101260000000CAF800009BF80000002819D1B4F96A
:10127000160000B200F04CFB022812D19FED7B1A41
:10128000DFF888143A682820424301EB0200D0EDD1
:10129000020A9AED000A02F029FB012000F014FB7B
:1012A000E1E700208BF80000A1E03868012840F059
:1012B0009E80D9F80400CAF80000DFF85C04D9F871
:1012C000001001609BF80000002814D1B4F916004A
:1012D00000B200F01DFB02280DD19FED641AD8ED7D
:1012E000000ADFF8340490ED000A02F0FFFA012052
:1012F00000F0EAFAE6E700208BF80000B4F91600E7
:1013000000B200F005FB02280AD14FF47A730122E3
:101310008949300000F035FE40F6980000F0D4FA1C
:10132000DFF8F483D9F80000C8F80000D9F8040009
:10133000CAF800009BF80000002819D1B4F9160083
:1013400000B200F0E5FA022812D19FED481ADFF84A
:10135000BC133A682820424301EB0200D0ED020A98
:1013600098ED000A02F0C2FA012000F0ADFAE1E7C0
:1013700000208BF800003AE00068022837D1386876
:10138000042802DA3868012831D1DFF88CA3D9F8B3
:101390000000CAF800009BF80000002812D1B4F940
:1013A000160000B200F0B4FA02280BD19FED2F1AFC
:1013B000D8ED000A9AED000A02F098FA012000F038
:1013C00083FAE8E700208BF80000B4F9160000B2B9
:1013D00000F09EFA02280AD14FF47A73012256498E
:1013E000300000F0CEFD4FF4E16000F06DFA386897
:1013F000042802DA386801281FD1B4F91A0000B2B3
:1014000000F086FA00280AD1B4F9160000B200F004
:101410007FFA022803D1012000F056FAEDE7B4F973
:10142000160000B200F074FA022806D14FF47A7365
:101430000122BA49300000F0A4FD5FF0FF302860BF
:10144000B4F91A0000B200F063FA02280AD1B4F924
:10145000160000B200F05CFA022803D1012000F06F
:1014600033FAEDE7012000F02FFA0DE6920A06406C
:10147000B20100209A99D93F38B5040001F0ECFD83
:1014800001F060FC01F098FD02F042FE02F01AFF4C
:1014900002F089FF90480078132848DB8F48B0F9A4
:1014A000160000B200F034FA022840D19C48B1EE98
:1014B0000C0A80ED000A9B4981ED000A9A4A82EDF0
:1014C000000A9FED800A80ED010A81ED010A82ED9C
:1014D000010A96489649016096498160804D9FEDCA
:1014E0007A0AD5ED020A70EE600A9FED781AF4EEE2
:1014F000410AF1EE10FA10DBD5ED020A70EE600A37
:101500009FED731AF4EE410AF1EE10FA05D50021B1
:10151000C1610020C5F8800009E0D5ED020A30EE77
:10152000600A01F075FAB1EE400A85ED200A01204B
:1015300000F0CAF9A2E70000B001002070B5040075
:10154000664DB5F9140000B200F0E2F9002811D19F
:101550004FF47A7301227849674800F012FDB5F91B
:10156000140000B200F0D4F900281CD1012000F0D2
:10157000ABF9F4E7B5F9140000B200F0C9F902289C
:1015800011D14FF47A73012264495B4800F0F9FCF1
:10159000B5F9140000B200F0BBF9022803D1012014
:1015A00000F092F9F4E7B5F91C0000B200F0B0F9D0
:1015B000022838D1B5F9160000B200F0A9F90228C6
:1015C00031D1534E464D6868306052490878002842
:1015D0000CD19FED3D1AD6ED000A494890ED3D0A29
:1015E00002F072FA012000F06FF9EEE700200870B7
:1015F0005248A8670020E8674FF4617000F064F972
:101600000020A8670020E867322000F05DF9002084
:10161000A8673548E86740F2DC5000F055F9002033
:10162000A8670020E867012000F04EF988E7000075
:10163000A9010020F8B50400284DB5F90A0000B250
:1016400000F066F9002839D1224E002030600020D9
:101650003B49086000203B49086000203A49086087
:101660001D4F387802280ED0387803280BD03878F0
:10167000072808D03878082805D038780C2802D0F8
:1016800038780D280AD14FF4AF6000F01DF94FF4FF
:101690007A7301222D49184800F073FC3878401CF9
:1016A000387001203060B5F90A0000B200F030F95E
:1016B000002803D1012000F007F9F4E7012000F031
:1016C00003F9B9E73333333F920A06400AD7A3BC84
:1016D0000BD7A33C245300202C540020F8510020A9
:1016E000E84C00200000C0BF000080BF980100202F
:1016F0002C5300202853002024510020A401002056
:10170000C84900203053002034530020584B00209B
:10171000945300202A54002090530020B10100204F
:101720006C00002090000020B40000207401002014
:10173000000020409A99993EB00100203333B33F16
:101740009C530020A0530020A4530020AD01002092
:1017500010B4020052B2002A06D40A01DFF88C311C
:10176000040064B21A5509E00A01DFF8843104006C
:1017700064B214F00F04234403F8042C10BC704727
:1017800080B500217FF00400FFF7E2FF01BDEFF319
:101790000580002802D07FF005000AE0DFF8541130
:1017A0000868002803D101200860002001E05FF0F4
:1017B000FF30704710B5EFF30580002802D07FF0AE
:1017C00005000EE0DFF82C412068012807D1FFF763
:1017D000D7FF0220206002F0E8FF002001E05FF068
:1017E000FF3010BD2DE9FF47070088461400002098
:1017F0000390EFF30580002862D1380000285FD005
:101800008020824618200500002081465FF0FF30CE
:101810000600002C33D02068002801D020688146C3
:10182000A069002801D0A0690500002D04D0392D41
:1018300002D22079C00701D5002042E0606900286B
:1018400002D0606980088246A06800280BD0E0685A
:101850005C2808D32069002805D06069002802D0E0
:10186000012006000DE0A06800280AD1E0680028E9
:1018700007D12069002804D10020060001E00020E3
:101880000600012E0CD1A0680290206901900095FD
:10189000434652464946380002F012FE03900FE0DC
:1018A000002E0DD103A8019000954346524692B2F6
:1018B0004946380002F053FE012801D00020039071
:1018C000039804B0BDE8F08738B50400EFF3058055
:1018D000002802D07FF0050505E00025002C02D08D
:1018E000200002F03BFF280032BD000000E400E0D1
:1018F00018ED00E020530020034B0360034B0B6006
:1019000080231360704700BFB04E002014460020B3
:10191000010040F261100A0012B2824204DB0A00A8
:1019200012B2B2F5D46F02DB5FF0FF3028E00A009C
:1019300012B2824207DB080000B240F25922904204
:1019400001DA00201CE0080000B240F25922904267
:1019500007DB080000B240F24D42904201DA01205C
:101960000EE0080000B240F24D42904206DB080053
:1019700000B2B0F5D46F01DA022001E05FF0FF3071
:101980007047000038B52DED048BB0EE409AB0EEF4
:10199000608AF0EE418A19EE100A03F0C9FA0022BB
:1019A000DFF8A83403F0E8FA0022DFF8443503F04A
:1019B000B5FB04000D0038EE680A10EE100A03F0C3
:1019C000B7FA22002B0003F0D7FA04000D0018EE3E
:1019D000900A03F0ADFA22002B0003F0C3FC03F0E1
:1019E0007FFD00EE100ABDEC048B31BD2DE9F04106
:1019F0002DED028BDFF858442078002812D0022801
:101A000042D01BD3042865D051D3062800F07F8034
:101A100073D3082800F0A580C0F08C80092800F05E
:101A2000AB800CE2DFF854040078482803D120781A
:101A3000401C207001E00020207002E2DFF83C042E
:101A40000178442917D10020DFF80C140870002019
:101A5000DFF80C1408700020DFF80C140870002068
:101A6000DFF8101408700020DFF8E8130870207801
:101A7000401C207007E00078482802D10120207027
:101A800001E000202070DCE1DFF8CC03DFF8EC138C
:101A90000978DFF8C8230378D1540178491C017014
:101AA0000078202802DB2078401C2070C9E1DFF894
:101AB000B003DFF8C8130978DFF8A8230378D154FE
:101AC0000178491C01700078082802DB2078401C4E
:101AD0002070B6E1DFF89003DFF8A0130978DFF893
:101AE0008C230378D1540178491C017000780828B0
:101AF00002DB2078401C2070A3E1DFF8800300782F
:101B0000DFF86C1308702078401C207099E1DFF832
:101B10006403DFF868130978DFF85C230378D15495
:101B20000178491C01700078042802DB2078401CF1
:101B3000207086E1C749DFF890030A78825CDFF8FD
:101B40008C330D785A55CD4A12780B78C2540878E8
:101B5000401C087008780C2802DB2078401C20709C
:101B60006FE1C64800784C2803D12078401C2070D3
:101B700001E00020207064E1C0480078542840F063
:101B80005B81BF48B5490A8802804A8842808A88BA
:101B90008280CA88C2800A8902814A8942818A89F0
:101BA0008281CA89C2810A8A02824A8A42828A8AD8
:101BB0008282CA8AC2820A8B02834A8B42838A8BC0
:101BC0008283C98BC183A74D9FEDCA8ADFEDCA8A84
:101BD000B0EE681AF0EE480AB5F9000000EE100AFF
:101BE000B8EEC00AFFF7CEFEDFEDBC0AB4EE600A25
:101BF000F1EE10FA0EDAB0EE681AF0EE480AB5F916
:101C0000000000EE100AB8EEC00AFFF7BBFE9D48C8
:101C100080ED000A9B4EB0EE681AF0EE480AB5F966
:101C2000000000EE100AB8EEC00AFFF7ABFE86ED2A
:101C3000000A9FEDAD1ADFEDB10AB5F9020000EE22
:101C4000100AB8EEC00AFFF79DFEDFEDAD0AB4EE54
:101C5000600AF1EE10FA0FDB9FEDAA1ADFED8B0A96
:101C6000B5F9020000EE100AB8EEC00AFFF78AFECE
:101C7000854880ED000A0EE09FEDA21ADFED830A91
:101C8000B5F9020000EE100AB8EEC00AFFF77AFEBE
:101C90007D4880ED000A7E4F9FED7E1ADFED7E0AC3
:101CA000B5F9040000EE100AB8EEC00AFFF76AFEAC
:101CB00087ED000ADFF8E4819FED791ADFED790AFC
:101CC000B5F9060000EE100AB8EEC00AFFF75AFE9A
:101CD00088ED000A9FED740AD6ED000AF4EE400A82
:101CE000F1EE10FA02DB5FF0814030606648D0ED23
:101CF000000AF4EE400AF1EE10FA02DB5FF08141D7
:101D00000160D7ED000AF4EE400AF1EE10FA02DBB2
:101D10005FF081403860D8ED000AF4EE400AF1EE41
:101D200010FA03DB5FF08140C8F800005F484F49BC
:101D30000A68026049685E4A11605E4D006828606A
:101D40009FED5D8B4C4EB6F9000003F0FDFB53ECAC
:101D5000182B03F011F903F0C3FB59490860B6F9D9
:101D6000020003F0F1FB53EC182B03F005F903F02C
:101D7000B7FB5449086000210800C0B20C281DDAE6
:101D8000514A0800C0B2105C012805D14F480B0031
:101D9000DBB2C05C00280AD00800C0B2105C00288A
:101DA0000AD14A480A00D2B2805C012804D1080056
:101DB000C0B2474A106001E0491CDDE795ED000A1A
:101DC000B5EE400AF1EE10FA09D595ED000ADFED07
:101DD000410A30EE200A404880ED020A02E03E4807
:101DE00029688160224D2878012816D13C48017865
:101DF000012905D00178062902D001780B2902D1EA
:101E00000178491C01704FF47A7301223749354833
:101E100000F0B7F8002028700EE0287804280BD1D5
:101E20004FF47A73012231492E4800F0AAF80120BC
:101E300035490870002028700020207001E0002043
:101E40002070BDEC028BBDE8F08100000000F03F87
:101E50003254002037540020335400201C520020FC
:101E60003454002000530020355400200853002033
:101E70002F54002036540020CC5300203154002031
:101E8000F8510020A8530020AC5300204DA10C4174
:101E9000B0530020834E383EB4F50541B4530020C2
:101EA00072C2343EFE58F24001008040B853002018
:101EB000BC530020C8530020FCA9F1D24D62503F12
:101EC000C0530020C4530020E0520020EC520020F8
:101ED00098010020DB0FC940E84C00200100C04001
:101EE0002C54002024510020533F4F3EAF010020CE
:101EF0000000D0407B4E0841F819973E1074DF4037
:101F00000100404098DDD33D3054002010B504005E
:101F1000002C01D1012033E0A0690028FFD194F802
:101F20003D00002805D1002084F83C00200003F08B
:101F30009CFB242084F83D002068C06830F40050E9
:101F40002168C860200000F07BFB2068006930F445
:101F50009040216808612068406930F02A002168BB
:101F600048612068C06850F400502168C8600020B3
:101F70002064202084F83D00202084F83E000020CA
:101F800010BD2DE9FC4706000D00170098460024FF
:101F900096F83D0020285DD1002D03D0380080B296
:101FA000002801D1012056E096F83C00012801D11B
:101FB000022050E0012086F83C00002030642120FF
:101FC00086F83D0003F068FC8146B784F784B0686A
:101FD000B0F5805F05D13069002802D10024AA46FF
:101FE00002E02C005FF0000A002086F83C00F08C34
:101FF00000281ED0CDF800804B4600228021300002
:1020000000F0B5F9002801D0032024E0002C08D10D
:10201000BAF80000C005C00D316848601AF1020A24
:1020200003E0207831684860641CF08C401EF08426
:10203000DDE7CDF800804B4600224021300000F063
:1020400096F9002801D0032005E0202086F83D0005
:10205000002000E00220BDE8F68770B505000C0006
:10206000160095F83E00202819D1002C03D030002E
:1020700080B2002801D1012012E095F83C0001282F
:1020800001D102200CE0012085F83C0000202863EB
:10209000320092B22100280000F0B1F900E00220E5
:1020A00070BD2DE9FC470600306807683068D0F83D
:1020B0000C803068D0F814900020002517F00F0431
:1020C000002C08D1B80606D55FEA886003D5300039
:1020D00000F03DFA49E1002C00F080805FEAC97011
:1020E00002D418F4907F79D017F00100C0B2002814
:1020F00006D05FEAC85003D5306C50F00100306460
:10210000780708D519F00100C0B2002803D0306C60
:1021100050F002003064B80708D519F00100C0B2D1
:10212000002803D0306C50F00400306438070BD521
:102130005FEA886004D419F00100C0B2002803D01F
:10214000306C50F008003064306C002845D0B80680
:1021500005D55FEA886002D5300000F0F8F93068F4
:102160004069800910F001000500306C000701D4BF
:10217000002D2DD0300000F067F93068406940062E
:1021800022D53068143050E8000F30F040000100D4
:10219000306810F1140242E800100028F1D1B06B51
:1021A00000280DD00FF20930B16B0865B06B03F059
:1021B000C7FB002811D0B06BB16B096D88470CE0EC
:1021C000300003F0D1FB08E0300003F0CDFB04E069
:1021D000300003F0C9FB00203064C6E0306B0128FA
:1021E00040F0B180F80640F1AE805FEAC86040F18F
:1021F000AA80002000903068006800903068406835
:10220000009000983068406940065BD5B06B00686C
:10221000D0F804A0504680B2002852D05046B18D6C
:1022200080B288424DD2A6F82EA0B06BC069B0F53E
:10223000807F3FD030680C3050E8000F30F4807061
:102240000100306810F10C0242E800100028F1D1C2
:102250003068143050E8000F40084000010030683A
:1022600010F1140242E800100028F1D13068143057
:1022700050E8000F30F040000100306810F1140207
:1022800042E800100028F1D1202086F83E0000200E
:10229000306330680C3050E8000F30F0100001005F
:1022A000306810F10C0242E800100028F1D1B06B48
:1022B00003F0F8FAB18DF08D091A89B2300003F0FD
:1022C0006AFB52E0B08DB6F82EA0B0EB0A0AF08D92
:1022D000002837D0504680B2002833D030680C3008
:1022E00050E8000F30F490700100306810F10C02DB
:1022F00042E800100028F1D13068143050E8000F97
:10230000400840000100306810F1140242E800105B
:102310000028F1D1202086F83E000020306330688C
:102320000C3050E8000F30F010000100306810F160
:102330000C0242E800100028F1D1514689B2300069
:1023400003F029FB11E0380606D55FEA086003D5E3
:10235000300000F0B9F808E0780606D55FEA48607A
:1023600003D5300000F0E3F8FFE7BDE8F3872DE97F
:10237000F04105000E0017009846069C286800688A
:102380003040B04201D1012000E000203900C9B244
:10239000884231D114F1010FF0D0002C05D003F0A8
:1023A0007BFAB0EB08008442E8D228680C3050E891
:1023B000000F30F4D0700100286810F10C0242E8E0
:1023C00000100028F1D12868143050E8000F4008B0
:1023D00040000100286810F1140242E800100028B3
:1023E000F1D1202085F83D00202085F83E00002016
:1023F00085F83C00032000E00020BDE8F08110B427
:10240000030099629A85DA8500201864222083F8F7
:102410003E00002083F83C001869002805D01868A9
:10242000C06850F480701C68E0601868406950F023
:1024300001001C6860611868C06850F020001C68CA
:10244000E060002010BC704701680C3151E8001FAB
:1024500031F490710A00016811F10C0343E8002186
:102460000029F1D10168143151E8001F49084900E1
:102470000A00016811F1140343E800210029F1D199
:10248000016B01290DD101680C3151E8001F31F0B9
:1024900010010A00016811F10C0343E80021002932
:1024A000F1D1202180F83E10002101637047000027
:1024B00038B50400A56B0020E8850020E8842800DA
:1024C00003F052FA31BD0000010091F83D002128CF
:1024D0002BD18868B0F5805F0DD1086900280AD13A
:1024E000086A02001088C005C00D0B685860086AB1
:1024F000801C086205E0086A431C0B6200780B68C8
:102500005860C88C401EC88480B200280BD108686F
:10251000C06830F080000B68D8600868C06850F070
:1025200040000B68D860002000E00220704710B522
:1025300004002068C06830F040002168C860202096
:1025400084F83D00200003F06DFA002010BD7CB53A
:10255000040094F83E00222870D1A068B0F5805F96
:102560000DD1206900280AD10025A66A206840689C
:10257000C005C00D3080A06A801CA06217E0A56A6B
:102580000026A068B0F5805F05D0A068002806D1BD
:102590002069002803D120684068287004E0206882
:1025A000406810F07F002870A06A401CA062E08D97
:1025B000401EE08580B200283ED12068C06830F01F
:1025C00020002168C8602068C06830F480702168ED
:1025D000C8602068406940084000216848612020A8
:1025E00084F83E00206B012821D100202063206860
:1025F0000C3050E8000F30F010000100206810F19E
:102600000C0242E800100028F1D120680068C006E2
:1026100008D500200090206800680090206840687D
:1026200000900098A18D200003F0B5F902E0200091
:1026300003F0B2F9002002E0002000E0022076BDA5
:102640002DE9F84F84B005002868016931F4405144
:10265000E868014328680161D5F808B0286950EAA4
:102660000B0B686950EA0B0BE86950EA0B0B286802
:10267000C168B24801405BEA01012868C16028686E
:10268000416931F44071A8690143286841612868B3
:10269000AB49884203D02868AA49884203D103F095
:1026A00071FA040002E003F062FA0400E869B0F590
:1026B000004F40F0A1805FF0640A022600275FF01F
:1026C00019085FF0000922000023A8FB020108FBA3
:1026D000031109FB0211CDE9000168680021A6FB86
:1026E000002306FB013307FB0033DDE9000103F0A3
:1026F000B1FA6421B0FBF1F0039022000023A8FBA3
:10270000020108FB031109FB0211CDE90001686811
:102710000021A6FB002306FB013307FB0033DDE9A4
:10272000000103F097FA029022000023A8FB0201A7
:1027300008FB031109FB0211CDE9000168680021C3
:10274000A6FB002306FB013307FB0033DDE9000194
:1027500003F080FA6421B0FBF1F102980AFB110149
:10276000C80032306421B0FBF1F0400010F4F87082
:10277000039910EB0110029022000023A8FB020134
:1027800008FB031109FB0211CDE900016868002173
:10279000A6FB002306FB013307FB0033DDE9000144
:1027A00003F058FA009022000023A8FB020108FB66
:1027B000031109FB02118046894668680021A6FBC7
:1027C000002306FB013307FB00334046494603F074
:1027D00041FA6421B0FBF1F100980AFB110A5FEAAB
:1027E000CA0032306421B0FBF1F111F00701029808
:1027F0000918286881609EE0042600275FF0640ABB
:102800005FF019085FF0000922000023A8FB020115
:1028100008FB031109FB0211CDE9000168680021E2
:10282000A6FB002306FB013307FB0033DDE90001B3
:1028300003F010FA6421B0FBF1F0039022000023B2
:10284000A8FB020108FB031109FB0211CDE90001FD
:1028500068680021A6FB002306FB013307FB003359
:10286000DDE9000103F0F6F9029022000023A8FB45
:10287000020108FB031109FB0211CDE900016868A0
:102880000021A6FB002306FB013307FB0033DDE933
:10289000000103F0DFF96421B0FBF1F102980AFBBB
:1028A0001101080132306421B0FBF1F010F0F000AA
:1028B000039910EB0110029022000023A8FB0201F3
:1028C00008FB031109FB0211CDE900016868002132
:1028D000A6FB002306FB013307FB0033DDE9000103
:1028E00003F0B8F9009022000023A8FB020108FBC6
:1028F000031109FB02118046894668680021A6FB86
:10290000002306FB013307FB00334046494603F032
:10291000A1F96421B0FBF1F100980AFB110A5FEA0A
:102920000A1032306421B0FBF1F111F00F0102986E
:1029300009182868816005B0BDE8F08FF369FFFFD2
:102940000010014000140140F0EE400A90ED040A2E
:1029500030EEC01AF0EE602A90ED040AF0EE001A94
:10296000B0EE602A00EE612A90ED030A72EE001AC2
:1029700090ED010A20EE222A90ED060AB4EE420AFA
:10298000F1EE10FA0BD590ED060AB5EE400AF1EE25
:1029900010FA04D090ED060AB0EE402A15E090ED52
:1029A000060AB1EE400AB4EE402AF1EE10FA0CD558
:1029B00090ED060AB5EE400AF1EE10FA05D090ED62
:1029C000060AB1EE400AB0EE402A90ED050AB4EED8
:1029D000600AF1EE10FA08D490ED050AB1EE400A53
:1029E000F4EE400AF1EE10FA0AD590ED003AB0EE9E
:1029F000420A03EE010A90ED023A03EE210A01E0D9
:102A00009FED650A0169C160C0ED040A70470000CE
:102A100010B52DED088B0400F0EE408AB0EE689AF8
:102A200094ED070A30EE280A84ED070AD4ED079AE0
:102A300094ED040A38EEC0AA94ED010A60EE29AACA
:102A400094ED060AB4EE6A0AF1EE10FA0BD594ED95
:102A5000060AB5EE400AF1EE10FA04D094ED060A2B
:102A6000F0EE40AA15E094ED060AB1EE400AF4EE4D
:102A700040AAF1EE10FA0CD594ED060AB5EE400A24
:102A8000F1EE10FA05D094ED060AB1EE400AF0EE30
:102A900040AA94ED050AB4EE680AF1EE10FA08D4E3
:102AA00094ED050AB1EE400AF4EE408AF1EE10FA18
:102AB0000AD594ED000AB0EE6A8A00EE098A94ED18
:102AC000020A00EE0A8A01E09FED338A18EE100A2E
:102AD00002F02EFA31F0004141EC1B0B206A02F0AB
:102AE00027FA53EC1B2B03F0CDF91ED294ED080A04
:102AF000B5EE400AF1EE10FA17D018EE100A02F007
:102B000017FA31F0004141EC1B0B94ED080A20EE5E
:102B1000080A10EE100A02F00BFA53EC1B2B02F01D
:102B2000FDFA02F0DDFC08EE100AC4ED048A18EE8E
:102B3000100A02F0FDF931F0004141EC1B0B206A54
:102B400002F0F6F953EC1B2B03F09CF91ED294ED26
:102B5000080AB5EE400AF1EE10FA17D018EE100A86
:102B600002F0E6F931F0004141EC1B0B94ED080A4C
:102B700020EE080A10EE100A02F0DAF953EC1B2BD3
:102B800002F0CCFA02F0ACFC08EE100AB0EE480AF3
:102B9000BDEC088B10BD00000000000000210161A9
:102BA0000021C1600021C161704730B4002513E0ED
:102BB00050F8042BD30744BFA9F101039A18091F49
:102BC000042942F8045BFAD213468C0744BF1580EF
:102BD0009B1CC90748BF1D7050F8041B0029E7D192
:102BE00030BC704710B44B484B490A784B4B0468D3
:102BF0001A550268322A03DA0268521C026001E0A8
:102C00000022026046480278002A06D0022A1ED01E
:102C10000DD3042A36D02BD35EE009780D2903D1D9
:102C20000178491C017001E00021017056E00A782A
:102C30000A2A06D100213B4A11700178491C017013
:102C400004E009780D2901D00021017046E0354AE1
:102C50000978354B147819551178491C1170117881
:102C6000182904DB002111700178491C017035E03E
:102C700009780A2903D10178491C017001E000217B
:102C800001702BE009780D2923D12849264A92EDBD
:102C9000030ADFED1D0A80EE200A81ED000A244BB5
:102CA00092ED040ADFED180A80EE200A83ED000A97
:102CB000204C92ED050ADFED150A80EE200ADFEDCB
:102CC000140A20EE200A84ED050A096821601968BB
:102CD00061600021017001E00021017010BC7047AB
:102CE0001CB5154C207801280CD0144800788DF8BC
:102CF00000004FF47A73012269461148FFF741F949
:102D00000120207013BD000000007A44000034430D
:102D1000DB0F494018530020265400204C4E002061
:102D200027540020285400203C520020105300203B
:102D300014530020E84C0020295400201A510008A8
:102D4000245100202DE9F84F2DED028B82B0DFF8E1
:102D5000284BDFF8285B686A2060DFF8246B95ED6C
:102D60000A0AB1EE400A86ED000ADFF8187BE86A2D
:102D70003860DFF8148B206802F0DAF831F0004197
:102D800002000B0092469B46D8F8000002F0D0F8F3
:102D900052465B4603F076F819D298ED000AD4ED5E
:102DA000000A20EE200A10EE100A02F0C1F8824656
:102DB0008B46206802F0BCF831F0004102000B00A5
:102DC0005046594602F0AAF902F08AFB20603068AA
:102DD00002F0AEF831F0004102000B0092469B4633
:102DE000D8F8000002F0A4F852465B4603F04AF817
:102DF00019D298ED000AD6ED000A20EE200A10EE56
:102E0000100A02F095F880468946306802F090F882
:102E100031F0004102000B004046494602F07EF9C5
:102E200002F05EFB3060DFF8648A386802F080F8F8
:102E300031F0004102000B0092469B46D8F800009A
:102E400002F076F852465B4603F01CF819D298ED72
:102E5000000AD7ED000A20EE200A10EE100A02F058
:102E600067F880468946386802F062F831F0004120
:102E700002000B004046494602F050F902F030FBD8
:102E80003860DFF80C9A206802F052F882468B46D0
:102E9000386802F04DF8D9E9002302F06DF8524687
:102EA0005B4602F05FFA02F01BFBC5F8B000DFF8EA
:102EB000E48998ED000B03F000F8B0EE408AF0EEE4
:102EC000608A206802F034F853EC182B93F000432A
:102ED00002F052F8CDE90001306802F029F882468C
:102EE0008B4698ED000B02F0EEFF51EC100B5246B2
:102EF0005B4602F041F802000B00DDE9000102F040
:102F0000E9FF82468B46386802F012F8D9E90023BF
:102F100002F032F852465B4602F024FA02F0E0FA80
:102F2000C5F8B400DFF8708998ED000B02F0CBFF14
:102F3000B0EE408AF0EE608A206801F0F9FF53ECB1
:102F4000182B93F0004302F017F8CDE90001306828
:102F500001F0EEFF82468B4698ED000B02F0ADFFCC
:102F600051EC100B52465B4602F006F8DDE90023F7
:102F700002F0F8F982468B46386801F0D9FFD9E9AA
:102F8000002301F0F9FF52465B4602F0EBF902F034
:102F9000A7FAC5F8B800DFF8040921680160DFF876
:102FA000000931680160DFF8FC083968016002B08F
:102FB000BDEC028BBDE8F18F38B52DED048BDFF849
:102FC000E8489FED5E8B9FED5F9ADFF8B05895ED76
:102FD0002C0A20EE090A10EE100A01F0A9FF53ECAA
:102FE000182B01F0C9FFDFF8C428DFF8C43802F05D
:102FF00095F802F0E1FFA4F8F20095ED2D0A20EE1D
:10300000090A10EE100A01F093FF53EC182B01F09F
:10301000B3FFDFF89828DFF8983802F07FF802F065
:10302000CBFFA4F8C20095ED2E0A20EE090A10EE9F
:10303000100A01F07DFF53EC182B01F09DFFDFF823
:103040006C28DFF86C3802F069F802F0B5FFA4F8DC
:103050002201BDEC048B31BD2DE970432DED068BB3
:10306000DFF8186896ED1E8AD6ED1F8A96ED209A35
:10307000B06801F05DFF41EC100B02F01EFFB0EEF6
:1030800040AAF0EE60AA18EE100A01F051FF53ECCE
:103090001A2B01F071FF8046894618EE900A01F064
:1030A00047FF04000D00B06801F042FF41EC100B37
:1030B00002F009FF51EC100B22002B0001F05CFF25
:1030C00042464B4602F04EF902F00AFA7062B068CE
:1030D00001F02EFF41EC100B02F0F5FEB0EE40AA1D
:1030E000F0EE60AAB1EE480A10EE100A01F020FFDF
:1030F00053EC1A2B01F040FF8046894618EE900AE7
:1031000001F016FF04000D00B06801F011FF41EC62
:10311000100B02F0D2FE51EC100B22002B0001F03C
:103120002BFF42464B4602F01DF902F0D9F9B0627E
:1031300086ED0B9ABDEC068BBDE8708300000000A5
:10314000008033400000704238B52DED048BB0EEA6
:10315000409AB0EE608AF0EE418ADFF85847DFF817
:10316000580720600020A060DFF85007017805298B
:1031700040F0CB80DFEDCF9ADFF8445795ED000AA1
:1031800039EE400AB4EE690AF1EE10FA1BDB95ED58
:10319000000A39EE400ADFEDDA0AB4EE600AF1EE19
:1031A00010FA10D5DFF81C070021C161DFF81817ED
:1031B0000162DFF8C80600218167DFF810070168A7
:1031C000491C01603BE00020DFF80017086095ED26
:1031D000000A39EE400A10EE100A01F0A9FE31F0A3
:1031E0000041DFF8EC26DFF8EC3602F003FF12D8DE
:1031F000B0EE080ADFF8CC0680ED080A80ED000A80
:1032000095ED000A39EE400AFFF702FCDFF86C0684
:1032100080ED1E0A13E00020A060DFF8A8065FF032
:10322000804101625FF08141016095ED000A39EE55
:10323000400AFFF7EDFBDFF8440680ED1E0ADFF8D9
:10324000985695ED000A38EE400AB4EE690AF1EEA0
:1032500010FA1BDB95ED000A38EE400ADFEDA80AF4
:10326000B4EE600AF1EE10FA10D5DFF87006002116
:10327000C161DFF854160162DFF800060021C16762
:10328000DFF85C060168491C0160D7E10020DFF827
:103290005016086095ED000A38EE400A10EE100A4C
:1032A00001F046FE31F00041DFF82426DFF8243635
:1032B00002F0A0FE14D8DFF82406DFF82816016219
:1032C000DFF82416016095ED000A38EE400AFFF79A
:1032D0009FFBB1EE400ADFF8A40580ED1F0AADE1C7
:1032E000DFF8F8055FF0804101625FF08141016025
:1032F00095ED000A38EE400AFFF78AFBB1EE400A6E
:10330000DFF8780580ED1F0A98E100780A2840F080
:10331000CB80DFED689ADFF8A85595ED000A39EE0D
:10332000400AB4EE690AF1EE10FA1BDB95ED000AD3
:1033300039EE400ADFED720AB4EE600AF1EE10FADF
:1033400010D5DFF880050021C161DFF87C1501622E
:10335000DFF8280500218167DFF870050168491C46
:1033600001603BE00020DFF86415086095ED000A7D
:1033700039EE400A10EE100A01F0DAFD31F000419A
:10338000DFF84C25DFF84C3502F034FE12D8B0EEF1
:10339000080ADFF8300580ED080A80ED000A95ED97
:1033A000000A39EE400AFFF733FBDFF8D00480ED66
:1033B0001E0A13E00020A060DFF808055FF08041DE
:1033C00001625FF08141016095ED000A39EE400A2B
:1033D000FFF71EFBDFF8A40480ED1E0ADFF8F854A7
:1033E00095ED000A38EE400AB4EE690AF1EE10FAE3
:1033F0001BDB95ED000A38EE400ADFED410AB4EE22
:10340000600AF1EE10FA10D5DFF8D0040021C16196
:10341000DFF8B4140162DFF864040021C167DFF84B
:10342000C0040168491C016008E10020DFF8B01405
:10343000086095ED000A38EE400A10EE100A01F01F
:1034400077FD31F00041DFF88824DFF8883402F09E
:10345000D1FD14D8DFF88404DFF888140162DFF8A6
:103460008814016095ED000A38EE400AFFF7D0FAA3
:10347000B1EE400ADFF8040480ED1F0ADEE0DFF859
:103480005C045FF0804101625FF08141016095ED75
:10349000000A38EE400AFFF7BBFAB1EE400ADFF847
:1034A000DC0380ED1F0AC9E0DFED029ADFF810545B
:1034B00002E000BF0AD7A3BC95ED000A39EE400A2E
:1034C000B4EE690AF1EE10FA1CDB95ED000A39EE54
:1034D000400ADFED0B0AB4EE600AF1EE10FA11D5E6
:1034E000DFF8E0030021C161DFF8DC130162E3488B
:1034F00000218167DFF8D4030168491C01603BE0CB
:103500000BD7A33C0020DFF8C413086095ED000A38
:1035100039EE400A10EE100A01F00AFD31F00041C8
:10352000DFF8AC23DFF8AC3302F064FD11D8B0EE65
:10353000080ADFF8900380ED080A80ED000A95ED97
:10354000000A39EE400AFFF763FACC4880ED1E0A04
:1035500012E00020A060DFF86C035FF080410162A0
:103560005FF08141016095ED000A39EE400AFFF7F6
:103570004FFAC24880ED1E0ADFF85C5395ED000A51
:1035800038EE400AB4EE690AF1EE10FA1ADB95ED56
:10359000000A38EE400ADFED610AB4EE600AF1EE8F
:1035A00010FA0FD5DFF834030021C161DFF81813DA
:1035B0000162B2480021C167DFF824030168491C99
:1035C00001603BE00020DFF81813086095ED000A69
:1035D00038EE400A10EE100A01F0AAFC31F000416A
:1035E000DFF8EC22DFF8EC3202F004FD13D8DFF84C
:1035F000EC02DFF8F0120162DFF8EC12016095EDE9
:10360000000A38EE400AFFF703FAB1EE400A9B4881
:1036100080ED1F0A12E0DFF8C4025FF08041016212
:103620005FF08141016095ED000A38EE400AFFF736
:10363000EFF9B1EE400A914880ED1F0A8F4D95EDEC
:10364000020A38EEC00ADFED860AB4EE600AF1EE37
:1036500010FA15DB95ED020A38EEC00ADFED810A9B
:10366000B4EE600AF1EE10FA0AD50020E061002005
:10367000C5F88000DFF844040168491C016048E097
:103680009FED790AD5ED020A78EEE00AF4EE400AE1
:10369000F1EE10FA11DBF1EE688A95ED020A38EED0
:1036A000C00A2000FFF7B4F9B1EE400A85ED200A08
:1036B0000020DFF8081408602BE0D5ED020A70EE58
:1036C000E80AF4EE400AF1EE10FA13DB9FED670A08
:1036D00078EE808A95ED020A38EEC00A2000FFF7E6
:1036E00097F9B1EE400A85ED200A0020DFF8CC13EF
:1036F00008600EE095ED020A38EEC00A2000FFF7E0
:1037000087F9B1EE400A85ED200A0020DFF8AC13FE
:103710000860FFF7A1FCBDEC048B31BD0BD7A33CC7
:1037200010B52DED028BB0EE408ADFF88801DFF88E
:1037300094130160DFF890118160504C94ED020AFF
:1037400038EE400ADFED4A0AB4EE600AF1EE10FAF4
:103750001FDB94ED020A38EE400ADFED460AB4EEB4
:10376000600AF1EE10FA14D50021C1610020C4F8FE
:103770008000DFF848030168491C0160DFF84C0154
:103780000168491C0160DFF858010168491C0160AB
:103790005DE09FED350AD4ED020A78EE600AF4EEA2
:1037A000400AF1EE10FA18DBB1EE488A94ED020AF5
:1037B00038EE400AFFF72CF9B1EE400A84ED200AFA
:1037C0000020DFF8F81208600020DFF80011086020
:1037D0000020DFF80C11086039E0D4ED020A70EE29
:1037E000C80AF4EE400AF1EE10FA1ADB9FED1F0A48
:1037F00038EE008A94ED020A38EE400AFFF708F925
:10380000B1EE400A84ED200A0020DFF8B012086013
:103810000020DFF8B81008600020DFF8C41008604E
:1038200015E094ED020A38EE400AFFF7F1F8B1EE28
:10383000400A84ED200A0020DFF880120860002092
:10384000DFF8881008600020DFF89410086000207E
:10385000E0670020A067FFF7FFFBBDEC028B10BD07
:10386000BC7493BCBD74933CDC0F4940DB0FC94072
:103870000AD7A3BC0BD7A33C78530020E84C002008
:103880007C530020805300202401002028010020C8
:10389000809B0008889B0008909B000884530020B0
:1038A000885300208C5300201848002066F7E4213C
:1038B000C8B4DE3F740100200000A0402C5400205A
:1038C000AC5300202C0100209A99993E9C53002073
:1038D000343333333333E33FA85300205001002007
:1038E000A0530020333333400000404010B52DED8D
:1038F000048BB0EE409AB0EE608AF0EE418A42F25C
:103900001070DFF824160860DFF8A84394ED000A71
:1039100038EE400ADFED670AB4EE600AF1EE10FA05
:103920001ADB94ED000A38EE400ADFED630AB4EECC
:10393000600AF1EE10FA0FD5DFF8F8050021C16139
:10394000DFF8E0150162D8480021C167DFF8E8051B
:103950000168491C01603BE00020DFF8DC150860CD
:1039600094ED000A38EE400A10EE100A01F0E0FA79
:1039700031F00041DFF8B425DFF8B43502F03AFB4E
:1039800013D8DFF8B005DFF8BC150162DFF8B01519
:10399000016094ED000A38EE400AFFF739F8B1EE05
:1039A000400AC14880ED1F0A12E0DFF88805DFF801
:1039B00094150162DFF88815016094ED000A38EE75
:1039C000400AFFF725F8B1EE400AB74880ED1F0A1C
:1039D000DFF8DC02DFF868150160B34C94ED020AF1
:1039E00038EEC00ADFED360AB4EE600AF1EE10FAE6
:1039F00014DB94ED020A38EEC00ADFEDA50AB4EE3E
:103A0000600AF1EE10FA09D50021C1610020C4F866
:103A100080002A480168491C016042E09FED230AAA
:103A2000D4ED020A78EEE00AF4EE400AF1EE10FA64
:103A30000FDBF1EE688A94ED020A38EEC00AFEF759
:103A4000E7FFB1EE400A84ED200A00201B49086020
:103A500027E0D4ED020A70EEE80AF4EE400AF1EE37
:103A600010FA11DB9FED120A78EE808A94ED020ABB
:103A700038EEC00AFEF7CCFFB1EE400A84ED200A12
:103A800000200E4908600CE094ED020A38EEC00AEE
:103A9000FEF7BEFFB1EE400A84ED200A0020074980
:103AA0000860FFF7D9FABDEC048B10BDDC0F49406C
:103AB000DB0FC9400AD723BC0BD7233CA4530020FB
:103AC0008FC275BC0000204038B52DED048BB0EEE0
:103AD000409AB0EE608AF0EE418A42F21070DFF850
:103AE00058140860DFF8C841F0EE089AC4ED009A57
:103AF0006C4D95ED000A39EE400ADFED660AB4EE32
:103B0000600AF1EE10FA1ADB95ED000A39EE400A70
:103B1000DFED610AB4EE600AF1EE10FA0FD5DFF8BE
:103B200000040021C161DFF8FC1301625E4800213E
:103B30008167DFF8F4030168491C016037E0002069
:103B4000DFF8E413086095ED000A39EE400A10EE44
:103B5000100A01F0EDF931F00041DFF8D023DFF871
:103B6000D03302F047FA10D8DFF8B403DFF8D813E7
:103B70000162C0ED009A95ED000A39EE400AFEF7A9
:103B800047FF494880ED1E0A11E00020A060DFF8E1
:103B90009003DFF8B0130162C0ED009A95ED000AC2
:103BA00039EE400AFEF734FF3F4880ED1E0A3E4DD5
:103BB00095ED020A38EEC00ADFED380AB4EE600A6D
:103BC000F1EE10FA15DB95ED020A38EEC00ADFEDD2
:103BD000300AB4EE600AF1EE10FA0AD50020E06176
:103BE0000020C5F88000DFF864030168491C01600B
:103BF00048E09FED2B0AD5ED020A78EEE00AF4EEDC
:103C0000400AF1EE10FA11DBF1EE688A95ED020A36
:103C100038EEC00A2000FEF7FBFEB1EE400A85ED4B
:103C2000200A0020DFF8241308602BE0D5ED020AFB
:103C300070EEE80AF4EE400AF1EE10FA13DB9FEDA5
:103C40001B0A78EE808A95ED020A38EEC00A200041
:103C5000FEF7DEFEB1EE400A85ED200A0020DFF817
:103C6000EC1208600EE095ED020A38EEC00A200062
:103C7000FEF7CEFEB1EE400A85ED200A0020DFF807
:103C8000CC120860FFF7E8F9BDEC048B31BD0000F1
:103C900090C2753C0AD7A3BC0BD7A33C8FC275BC9E
:103CA000DC0F4940B0530020E84C0020DB0FC94036
:103CB00074010020B453002038B52DED048BB0EE14
:103CC000409AB0EE608AF0EE418AA24CA248206091
:103CD0000020A060DFED8E9AA04D95ED000A39EE30
:103CE000400AB4EE690AF1EE10FA17DB95ED000A0E
:103CF00039EE400ADFED870AB4EE600AF1EE10FA01
:103D00000CD587480021C161864901629048002195
:103D1000816785480168491C016038E000208249BC
:103D2000086095ED000A39EE400A10EE100A01F025
:103D3000FFF831F000417D4A7D4B02F05BF912D86B
:103D4000B0EE080A764880ED080A80ED000A95ED8D
:103D5000000A39EE400AFEF75BFEB1EE400A7C48ED
:103D600080ED1E0A13E00020A0606D485FF08041E6
:103D700001625FF08141016095ED000A39EE400A71
:103D8000FEF746FEB1EE400A714880ED1E0A744D02
:103D900095ED000A38EE400AB4EE690AF1EE10FA29
:103DA00017DB95ED000A38EE400ADFED5A0AB4EE53
:103DB000600AF1EE10FA0CD55E480021C161594944
:103DC000016263480021C1675B480168491C0160CA
:103DD00034E000205849086095ED000A38EE400AAA
:103DE00010EE100A01F0A4F831F000414F4A504B98
:103DF00002F000F910D84F48504901625049016063
:103E000095ED000A38EE400AFEF702FEB1EE400AD8
:103E10004F4880ED1F0A11E046485FF08041016283
:103E20005FF08141016095ED000A38EE400AFEF72F
:103E3000EFFDB1EE400A464880ED1F0A444D95ED76
:103E4000020A38EEC00AB4EE690AF1EE10FA14DB89
:103E500095ED020A38EEC00ADFED2E0AB4EE600AD4
:103E6000F1EE10FA09D50020E0610020C5F88000CD
:103E700036480168491C016045E09FED270AD5EDF1
:103E8000020A78EEE00AF4EE400AF1EE10FA10DBD6
:103E9000F1EE688A95ED020A38EEC00A2000FEF7BE
:103EA000B7FDB1EE400A85ED200A002027490860E1
:103EB00029E0D5ED020A70EEE80AF4EE400AF1EED0
:103EC00010FA12DB9FED150A78EE808A95ED020A52
:103ED00038EEC00A2000FEF79BFDB1EE400A85EDEA
:103EE000200A0020194908600DE095ED020A38EE1D
:103EF000C00A2000FEF78CFDB1EE400A85ED200AD5
:103F0000002012490860FFF7A7F8BDEC048B31BD13
:103F10000AD723BC0BD7233CDC0F4940DB0FC94039
:103F20002C0100209A99993E9C530020343333335E
:103F30003333E33F50010020A0530020333333409C
:103F400000004040CDCCCC3F6666E63FA453002045
:103F5000E84C00207401002000002040B4530020F1
:103F6000B05300202DE9F0438EB0060037005FF01B
:103F7000060CEE4608784A7852EA00223800C0B2B1
:103F80000CFB00F02EF8002068463A00D2B20CFB81
:103F900002F210448A78CB7853EA022343806846C1
:103FA0003A00D2B20CFB02F210440A794B7953EA80
:103FB000022383805FF03008DFF8D0943800C0B26D
:103FC00008FB00F009EB00023800C0B20CFB00F067
:103FD0003EF800303800C0B208FB00F048440089C9
:103FE0001B1A13853800C0B208FB00F04844B0F932
:103FF0000800002806D13800C0B208FB00F0484491
:10400000002202853800C0B208FB00F04844B0F935
:10401000280040F6FF72904216DB3800C0B208FB61
:1040200000F04844B0F9080000280DD03800C0B2B4
:1040300008FB00F048443A00D2B208FB02F24A44BE
:10404000128DB2F5005202853800C0B208FB00F0B4
:104050004844B0F92800DFF83824904216DA3800D6
:10406000C0B208FB00F04844B0F9080000280DD0A9
:104070003800C0B208FB00F048443A00D2B208FB56
:1040800002F24A44128D12F5005202853800C0B285
:1040900008FB00F048443A00D2B208FB02F24A445E
:1040A000D2E904453A00D2B208FB02F24A44B2F91E
:1040B0002820D317A2186B41C0E904233800C0B2EE
:1040C00008FB00F048443A00D2B20CFB02F23EF882
:1040D0000220028168463A00D2B20CFB02F2104480
:1040E00040883A00D2B208FB02F229F802003800F8
:1040F000C0B208FB00F809EB08006A463B00DBB2DF
:104100000CFB03FC6244928882800EB0BDE8F08311
:1041100010B5DFF87843B4F93210B4F93000091A59
:1041200000EE101AB8EEC00ADFF86803FEF70CFCC8
:10413000B4F9360000EE900AF8EEE00A30EE800A9C
:10414000BDEEC00A10EE100AE086B4F96210B4F9B0
:104150006000091A00EE101AB8EEC00ADFF8380342
:10416000FEF7F2FBB4F9660000EE900AF8EEE00A02
:1041700030EE800ABDEEC00A10EE100AA4F8660008
:10418000B4F99210B4F99000091A00EE101AB8EEC2
:10419000C00ADFF80803FEF7D7FBB4F9960000EE7B
:1041A000900AF8EEE00A30EE800ABDEEC00A10EE8A
:1041B000100AA4F89600B4F9C210B4F9C000091AA4
:1041C00000EE101AB8EEC00ADFF8D402FEF7BCFB0E
:1041D000B4F9C60000EE900AF8EEE00A30EE800A6C
:1041E000BDEEC00A10EE100AA4F8C600B4F9F21031
:1041F000B4F9F000091A00EE101AB8EEC00ADFF8A0
:10420000A402FEF7A1FBB4F9F60000EE900AF8EE66
:10421000E00A30EE800ABDEEC00A10EE100AA4F8E3
:10422000F600B4F92211B4F92001091A00EE101AAF
:10423000B8EEC00ADFF87002FEF786FBB4F926017B
:1042400000EE900AF8EEE00A30EE800ABDEEC00AF9
:1042500010EE100AA4F82601B4F95211B4F9500175
:10426000091A00EE101AB8EEC00ADFF84002FEF795
:104270006BFBB4F9560100EE900AF8EEE00A30EE5E
:10428000800ABDEEC00A10EE100AA4F85601B4F977
:104290008211B4F98001091A00EE101AB8EEC00AB2
:1042A0008348FEF751FBB4F9860100EE900AF8EE60
:1042B000E00A30EE800ABDEEC00A10EE100AA4F843
:1042C000860110BD18B589B04FF40070039000202E
:1042D0000590002006900820079000208DF820000F
:1042E000684600210022C0E9001201242000C0B26B
:1042F000092826DA302065492200D2B242430A4416
:10430000B2F9062044F201039A4208DB2200D2B23D
:1043100000FB02F008444FF48041C1800FE022000E
:10432000D2B242430A44B2F9062012F5804F06DAAF
:104330002200D2B200FB02F008445E49C180641C36
:10434000D4E75248B0F9361009128DF800106946CA
:10435000C28E4A70B0F9662012128DF80220B0F8B1
:1043600066208DF80320B0F9962012128DF80420F3
:10437000B0F896208DF80520B0F9C62012128A7187
:10438000B0F8C6008DF8070002AB6A4603A94A4898
:1043900001F0C2FF002804D048480188491C018070
:1043A000F2E70AB010BD18B589B040F2FF100390D3
:1043B00000200590002006900820079000208DF82E
:1043C0002000684600210022C0E9001201242000DC
:1043D000C0B2092826DA30202C492200D2B242434A
:1043E0000A44B2F9062044F201039A4208DB220093
:1043F000D2B200FB02F008444FF48041C1800FE0CC
:104400002200D2B242430A44B2F9062012F5804F8C
:1044100006DA2200D2B200FB02F008442549C1802E
:10442000641CD4E71948B0F9F61009128DF8001091
:104430006946B0F8F6204A70B0F9262112128DF8BC
:104440000220B0F826218DF80320B0F9562112126F
:104450008DF80420B0F856218DF80520B0F986219A
:1044600012128A71B0F886018DF8070002AB6A4615
:1044700003A9114801F050FF002804D00F4801881B
:10448000491C0180F2E70AB010BD00001848002066
:1044900002F0FFFF00000020240000204800002060
:1044A0006C00002090000020B4000020D800002004
:1044B000FC00002000C0FFFFA85100202454002071
:1044C0002DE9F04F85B006000F0090469946DDF8C3
:1044D00038A00F9C109D002C07D1502080F311882C
:1044E000BFF34F8FBFF36F8FFEE7002D07D1502032
:1044F00080F31188BFF34F8FBFF36F8FFEE75C200F
:10450000009000985C2807D0502080F31188BFF3FA
:104510004F8FBFF36F8FFEE70098002D19D0002C4E
:1045200017D0AB46CBF8304002208BF85900002062
:104530000390CDF808B004A80190CDF800A04B4638
:1045400042463900300000F047F8584600F0B7F80E
:1045500001E000200490049805B0BDE8F08F2DE93B
:10456000F84F84B006000F0090469946DDF838A059
:10457000DDF83CB0404680B2800002F041F9050011
:10458000002D0BD05C2002F03BF90400002C01D080
:10459000256304E0280002F0C7F900E00024002CA5
:1045A00015D0002084F85900002003900294CDF823
:1045B00004B0CDF800A04B46424692B2390030001C
:1045C00000F00AF8200000F07AF8012001E05FF026
:1045D000FF3005B0BDE8F08F2DE9F94F81B00C0038
:1045E00016000C9F0D9DDDF83880B00000905FF044
:1045F000A50BD8F830A05A460099504602F044FA6C
:10460000D8F8300000EB8600B0F1040A5FEADA0A5D
:104610005FEACA0A1AF00700002807D0502080F38A
:104620001188BFF34F8FBFF36F8FFEE7002C15D0BB
:1046300000208146B9F1100F0CD214F8090008EBE4
:10464000090181F8340014F80900002802D019F19A
:104650000109EFE7002088F8430002E0002088F815
:104660003400382F01D337200700C8F82C70C8F861
:104670004C700020C8F8500018F1040002F046FA0F
:1046800018F1180002F042FAC8F81080D7F138008B
:10469000C8F81800C8F824800020C8F8540000208A
:1046A00088F85800029A0199504602F06DFAC8F84D
:1046B0000000002D01D0C5F80080BDE8F78F38B5A7
:1046C000040002F0F1FADFF82C140868401C0860BE
:1046D000DFF824542868002806D12C6008680128D7
:1046E0000DD100F0E9FA0AE0DFF8100400680028B4
:1046F00005D1E06A2968C96A884200D32C60DFF8D6
:1047000000040168491C016000686064DFF8F4037C
:104710000168E26A914201D2E16A0160211DDFF87D
:10472000E823E36A1420434302EB030002F0F1F9AB
:1047300002F0D4FADFF8C403006800280DD028681E
:10474000C06AE16A884208D25FF08050DFF89C14AA
:104750000860BFF34F8FBFF36F8F31BD38B50500D1
:104760000024002D15D0DFF868040068002807D069
:10477000502080F31188BFF34F8FBFF36F8FFEE798
:1047800000F060F80021280000F084FB00F060F8E1
:104790000400002C08D15FF08050DFF8501408604E
:1047A000BFF34F8FBFF36F8F31BD10B586B00020C0
:1047B00004900020039005AA03A904A8FDF79CF823
:1047C000DFF8A8460498029003980190002000901A
:1047D0000023059ADFF898160FF2B940FFF770FE34
:1047E00020602068002801D0012400E00024012C72
:1047F00002D102F0F7FA0400012C16D1502080F308
:104800001188BFF34F8FBFF36F8F5FF0FF30DFF87A
:10481000641608600120DFF8E41208600020DFF869
:10482000B413086002F0D9F90AE014F1010F07D1BE
:10483000502080F31188BFF34F8FBFF36F8FFEE7D7
:1048400006B010BDDFF888030168491C016070479D
:10485000F8B500250026DFF878432068002807D146
:10486000502080F31188BFF34F8FBFF36F8FFEE7A7
:1048700002F01AFA2068401E20602068002857D1F4
:10488000DFF870020068002852D0DFF8DC150868F5
:10489000002827D0C868C068050015F1180002F08C
:1048A0005FF9281D02F05CF9DFF858020168EA6A36
:1048B000914201D2E96A0160291DDFF84C22EB6ABE
:1048C0001420434302EB030002F023F9E86ADFF807
:1048D00028120968C96A8842D7D30120DFF89815E1
:1048E0000860D2E7002D01D000F054FADFF88C7593
:1048F0003C68002C0CD000F023F8002803D00120E5
:10490000DFF874150860641E002CF4D100203860B4
:10491000DFF86405006800280AD0012006005FF077
:104920008050DFF8C8120860BFF34F8FBFF36F8F5E
:1049300002F0D4F93000F2BDDFF898020068704749
:104940002DE9F0410027A2480068002875D1DFF862
:1049500084020468641C0460002C1CD1DFF820135E
:1049600008680068002807D0502080F31188BFF342
:104970004F8FBFF36F8FFEE7D1F80080DFF8100391
:1049800002680A60C0F80080DFF8F4040168491C7E
:10499000016000F0FFF9DFF8DC84D8F80000844201
:1049A00038D3DFF8DC1208680068002804D15FF013
:1049B000FF30C8F800002DE00868C068C068050036
:1049C00068680600B44202D2C8F8006022E0281DE0
:1049D00002F0C6F8A86A002803D015F1180002F00A
:1049E000BFF848480168EA6A914201D2E96A016069
:1049F000291D454AEB6A1420434302EB030002F0F1
:104A000088F8E86A3C490968C96A8842C9D3012024
:104A10000700C6E7384800683B49C26A1420424391
:104A20008858022801D301200700DFF84C040068F1
:104A3000002807D00120070004E0DFF840040168E7
:104A4000491C01603800BDE8F08110B4604800687E
:104A5000002804D00120DFF8201408602CE000209A
:104A6000DFF814140860274A10681423264C03FB4F
:104A700000F1615800290BD1002807D1502181F3A2
:104A80001188BFF34F8FBFF36F8FFEE7401EECE737
:104A900003FB00F304EB03014B685B684B604B685E
:104AA00011F10804A34202D14B685B684B6049686E
:104AB000C968114B1960106010BC704738B504000C
:104AC0000D00002C07D1502080F31188BFF34F8FC9
:104AD000BFF36F8FFEE7DFF8AC03006810F1180139
:104AE000200002F022F80121280000F0D3F931BDA6
:104AF00000000000E4530020D4530020F0530020B5
:104B000000540020EC530020B43D002070B5050097
:104B10000E001400002D07D1502080F31188BFF340
:104B20004F8FBFF36F8FFEE7DFF8D403006810F1FB
:104B30001801280001F0EDFF002C02D05FF0FF30DB
:104B400006002100300000F0A5F970BD38B5050061
:104B5000E868C468002C07D1502080F31188BFF3A7
:104B60004F8FBFF36F8FFEE714F1180001F0F8FFCD
:104B700017480068002815D1201D01F0F1FFDFF86B
:104B800008030168E26A914201D2E16A0160211DD5
:104B9000DFF8F822E36A1420434302EB030001F03C
:104BA000B8FF05E014F11801DFF8BC0201F0B1FF15
:104BB000DFF8D0020068C06AE16A884205D20120AD
:104BC0000121DFF8B422116000E0002032BD0000B6
:104BD0000C540020E8530020DFF8A412096801609B
:104BE000DFF82013096841607047000004ED00E021
:104BF0002DE9F04104000D00002C07D1502080F376
:104C00001188BFF34F8FBFF36F8FFEE7002D07D1E1
:104C1000502080F31188BFF34F8FBFF36F8FFEE7F3
:104C200002F042F8DFF8DC0206686768F71B2868C4
:104C300010F1010F02D15FF000081BE0DFF8400225
:104C400000682168884205D06068864202D35FF020
:104C500001080FE02868874208D22868C01B286036
:104C60002000FFF7B9FF5FF0000803E00020286094
:104C70005FF0010802F032F84046BDE8F081000024
:104C8000D85300200120DFF8F011086070470000C1
:104C9000DC53002010B5040000F039F8DFF8EC0117
:104CA00000680228F8D35FF0805028490860BFF3FD
:104CB0004F8FBFF36F8FEFE770B50024382C09D208
:104CC000DFF8C801142101FB04F1084401F00FFFD3
:104CD000641CF3E7DFF83052280001F008FFDFF82A
:104CE0002C62300001F003FFDFF87C0101F0FFFED1
:104CF000DFF81C0201F0FBFEDFF8180201F0F7FEFE
:104D0000DFF814020560DFF81402066070BD38B5E4
:104D1000DFF80C522868002817D001F0C5FFDFF833
:104D2000F001C068C0680400201D01F019FFDFF821
:104D3000F4010168491E01602868401E286001F0E6
:104D4000CDFF200000F004F8E2E731BD04ED00E003
:104D500010B5040094F85900002806D1206B01F02A
:104D6000E3FD200001F0E0FD13E094F85900012874
:104D700003D1200001F0D8FD0BE094F8590002287F
:104D800007D0502080F31188BFF34F8FBFF36F8F90
:104D9000FEE710BDDFF8802110680068002804D10C
:104DA0005FF0FF30334A106006E01068C068C068EA
:104DB000010048682F4A10607047DFF86C010068F6
:104DC000002801D1012007E0DFF8C40000680028B6
:104DD00001D1022000E00020704770B504002500DA
:104DE0000026002C3ED0DFF89C000068854207D0EA
:104DF000502080F31188BFF34F8FBFF36F8FFEE712
:104E0000286D002807D1502080F31188BFF34F8F01
:104E1000BFF36F8FFEE7286D401E2865E86AE96CD6
:104E200088421FD0286D00281CD1281D01F098FE53
:104E3000E86CE862E86AD0F13800A861DFF8480061
:104E40000168EA6A914201D2E96A0160291DDFF82E
:104E50003C20EB6A1420434302EB030001F059FEAF
:104E600001200600300070BD7C5200200854002054
:104E7000A09B000804540020F8530020F4530020A5
:104E8000FC530020D4530020EC530020B43D0020FC
:104E90000C5400202DE9F04105000C00194807686A
:104EA000DFF85C80D8F80000001D01F059FE15F114
:104EB000010F08D1002C06D0D8F80000011D1548BC
:104EC00001F027FE1AE0E8190600D8F80000466055
:104ED000BE4207D2D8F80000011D1048006801F05A
:104EE00024FE0BE0D8F80000011D0B48006801F01B
:104EF0001CFE0E4801688E4200D20660BDE8F081BB
:104F0000D4530020E853002054520020685200205F
:104F100090520020A4520020D8530020DC530020DF
:104F2000E0530020E4530020F053002004540020FC
:104F3000C0F3C75181B1FF2906D0C110400721F04D
:104F4000E04101F16051704741020CBF40F4E001C3
:104F50006FF000410020704700F0004100020AD0CD
:104F6000B0FA80FC00FA0CF001F16051A1EB0C5199
:104F700001EBD02140057047B0B581EA030C0CF07D
:104F8000004C40F2FF7515EA11541DBF15EA135786
:104F9000AC42AF4239E0E41923EA455343F48013AD
:104FA000C90241F0004141EA505EC7021100A7FB6F
:104FB000020200284FF00000EEFB01204FF000013C
:104FC000E3FB072118BF42F00102401800214941CC
:104FD000E3FB0E01A4F580640F0302D252004041AE
:104FE000494154F101046CDD470872F1004250F16F
:104FF000000051EB0451A1F580115CBF41EA0C01A6
:10500000B0BD4CEA05510020B0BD05EA1357AC42D3
:1050100014BFAF4241E050EA410E1CBF52EA430EBA
:1050200002E061460020B0BD24423C441BD15FEA4F
:10503000070EF6D0090302BF01460020AEF1140EA0
:10504000B1FA81F7AEEB070401FA07FE0C37C7F19E
:10505000200100FA07F7C8404EEA000E23EA455344
:1050600043F48013A2E733F00043B3FA83F704BF9D
:10507000B2FA82FE77440B3FE41BB7F1200E2FBF3C
:1050800002FA0EF3BB40C7F1200E22FA0EFE38BF23
:1050900043EA0E03BA40641C82E750EA410E14BF93
:1050A00052EA430E6FF000014FF4001717EB430F65
:1050B0008ABF194617EB410FB5E74CEA05510020AE
:1050C000B0BDD4F10104B4F120070FDAC4F1200718
:1050D000520828BF42F0010210FA07F501FA07F75B
:1050E000E1BF2A43E0403843E1400FE0352C98DC33
:1050F000C7F1200452EA400220FA07F218BF42F03A
:10510000010231FA07F0A1400A43002172F1004286
:1051100050F1000051EB0C01B0BD0100F0B540F2C0
:10512000FF7581EA030C0CF0004C15EA11541DBF09
:1051300015EA1357AC42AF42E5E0BC41C1F313019D
:10514000C3F31303801A994143F4801304D2641EFD
:105150004000494180185941C90241EA5051B1FB10
:10516000F3F603FB1611A2FB0675D7EBC020A9418D
:1051700002D2761E80185941C90241EA5051B1FB52
:10518000F3FE03FB1E11A2FB0E75D7EBC020A94155
:1051900003D2AEF1010E80185941890241EA9051C3
:1051A000760546EA8E2EB1FBF3F603FB1611A2FB41
:1051B0000675D7EB8020A94102D2761E801859418E
:1051C000C90241EA50514EEA060EB1FBF3F603FB69
:1051D0001611A2FB0675D7EBC020A94102D2761E9C
:1051E00080185941C90241EA5051B1FBF3F703FB62
:1051F0001711A2FB0735D3EBC020A94167F10007C7
:105200000CBF004247F0010766F3D5274FEA1E3175
:10521000B80814F5806412DDBD0775F1004250EB4B
:105220000E5051EB045111F5801F5CBF41EA0C0197
:10523000F0BD4CF07F6141F0E0410020F0BDBD07C2
:105240006D0840EA0E5041F48011D4F10104B4F12C
:1052500020060ADAC4F120060200E04001FA06F353
:10526000E1401843B24015430EE0342C13DCC6F184
:10527000200445EA40056D0820FA06F2154321FA9C
:1052800006F0A1400D43002175F1004250F10000ED
:1052900051EB0C01F0BD00205FEA0C01F0BDCFB96D
:1052A00092185B41B3FA83F704BFB2FA82F6BF19D2
:1052B0000B3FB7F120062FBF02FA06F3BB40C7F140
:1052C000200622FA06F638BF3343BA401CB1E4196F
:1052D000641E33E77F4231F00041B1FA81F404BF2C
:1052E000B0FA80F6A4190B3CB4F120062FBF00FAE7
:1052F00006F1A140C4F1200620FA06F638BF31437A
:10530000A0403C1B1AE7AC421ABF05EA1357AF4254
:1053100012E050EA41061CBF52EA4306BFE750EADA
:105320004107304661461CBF41EA0551F0BD52EAD3
:10533000430C08BFC143F0BD00204FF4001616EB2C
:10534000410F98BF16EB430F08BF16EB410F24BF68
:10535000C14305E016EB430F0CBF61464CEA055113
:10536000F0BD000070B44FF0004591EA030F40F12A
:10537000B9856B40841A71EB030604D26E40001BA2
:10538000B141121973414FF4001C1CEB410F34BFA3
:105390007CEB430683E00C0DA4EB1356362E00F392
:1053A0007C80012E45EAC32341DC43EA525312BFFD
:1053B000D20292025B08240545EAC12141EA50511C
:1053C000D2EBC020994125D407D1B0FA80F610FA6B
:1053D00006F162D00020203608E0B1FA81F6B14033
:1053E000C6F1200220FA02F21143B0404FEAF474F1
:1053F000B4EB465434F001064FEA74040AD8D6F5EB
:105400000016760D04F00044F04061FA06F25040B8
:10541000F1404840C00A40EA415021F0004128BF15
:105420005FEA500550F1000044EBD12135E0DB0A82
:1054300045EAC121C90AB6F120050EDD42EA024261
:10544000120CC5F1200603FA06F6EB4042EA060507
:105450006D42984161F100010DE062FA06F5F240FB
:10546000554063FA06FC82EA0C02F3405A406D4252
:10547000904161EB030111F4801F05D1641E6205A8
:1054800002D06D004041494121F48011430875F17B
:10549000004350F1000041EB045170BC70471CEB1D
:1054A000410F15D223F0004352EA43060BD04FEAD6
:1054B0004C0CBCEB410F04D80C0D661E342EB7DD2E
:1054C000EBE7801A994150EA410608BF0021E4E762
:1054D00008BF1CEB430F28BF6FF00001DDE70000A1
:1054E00001F000428B1AA3F16051B1F5801F0ADB75
:1054F000B1F17F6F1FD242EAC102C10071F10041D8
:1055000042EB507070470B15C3F10903212B10D2E9
:10551000890241EA905180020128494141F000414D
:1055200021FA03F0C3F12003994071F10041504189
:105530007047100070476FF0000013EB103F5CBF26
:10554000000E42EAC0507047C11768B14840401A87
:10555000B0FA80F29040D21CC907C2F5846241EAD9
:10556000025202EBD02140057047000010B5DFF871
:10557000DC42DFF8DC0220605FF4E1306060002094
:10558000A0600020E060002020610C20606100200D
:10559000A0610020E0612000FCF7B8FC002801D0E9
:1055A00001F0FEFE0122DFF8AC122000FCF755FDF1
:1055B00010BD80B5DFF8A002DFF8A01201605FF433
:1055C000E1314160002181600021C1600021016161
:1055D0000C214161002181610021C161FCF796FC31
:1055E000002801D001F0DCFE01BD80B5DFF87002BB
:1055F000DFF870120160DFF87012416000218160F5
:105600004FF40051C160002101610421416100217A
:1056100081610021C161FCF779FC002801D001F013
:10562000BFFE01BD10B5DFF84442DFF84402206040
:105630005FF4E13060600020A0600020E0600020A6
:1056400020610C2060610020A0610020E06120004A
:10565000FCF75CFC002801D001F0A2FE0122DFF87B
:1056600014122000FCF7F9FC10BD10B586B0040040
:105670006846142101F096FE20687549884248D199
:10568000002005907C48016851F01001016000681D
:1056900010F01000059005980020059077480168EB
:1056A00051F002010160016811F0020105910599B4
:1056B00000210591016851F001010160006810F0BE
:1056C00001000590059880200090022001900020A4
:1056D000029003200390072004906946684801F077
:1056E00065FE4FF4007000900220019000200290AF
:1056F00003200390072004906946624801F056FE9B
:1057000000220521252002F00DF8252002F01FF8C7
:1057100099E02068514988422ED1002005905A48CE
:10572000016851F400310160006810F40030059008
:105730000598002005905148016851F0080101606A
:10574000006810F008000590059860200090022085
:1057500001900020029003200390072004906946E6
:105760004A4801F023FE00220521262001F0DAFF3D
:10577000262001F0ECFF66E020683A4988422FD1EC
:10578000002005904048016851F4802101600068C4
:1057900010F4802005900598002005903748016896
:1057A00051F004010160006810F0040005900598B4
:1057B0004FF44060009002200190002002900320EE
:1057C0000390072004906946314801F0EFFD002264
:1057D0000521272001F0A6FF272001F0B8FF32E0C5
:1057E0002068234988422ED1002005902248016874
:1057F00051F020010160006810F02000059005982C
:10580000002005901D48016851F0400101600068CA
:1058100010F04000059005984FF48440009002205D
:105820000190002002900320039008200490694614
:10583000184801F0BBFD00220521472001F072FF4E
:10584000472001F084FF06B010BD00005850002032
:1058500000100140265400209C50002000440040CD
:10586000E050002000480040A086010024510020A4
:1058700000140140315400204438024030380240C6
:10588000000402400000024040380240000C024088
:10589000000802400018024001480068704700BF3D
:1058A000D053002070B50400A56DFFF7F5FF06008A
:1058B00094F83500022806D080206065002084F826
:1058C000340001203BE02068006830F016002168B9
:1058D00008602068406930F0800021684861206CD1
:1058E000002802D1A06C002805D02068006830F0A4
:1058F00008002168086020680068400840002168AE
:10590000086020680068C0070ED5FFF7C5FF801B40
:105910000628F6D320206065032084F83500002097
:1059200084F8340003200AE03F21E06D8140A96043
:10593000012084F83500002084F83400002070BD78
:10594000010091F83500022803D08020486501202D
:1059500009E0052081F8350008680068400840002B
:105960000A681060002070477047000018B589B0C1
:1059700004006B4602AA0021234800F069FD02984A
:1059800040F20121401A072803D869460298FEF721
:10599000E9FA0AB010BD7047F8B5040020681B4949
:1059A000884206D1FCF722F8012219491948FCF770
:1059B00054FB20681849884225D1FDF713F9174E8A
:1059C000174F012239003000FCF747FB0500280083
:1059D000C0B2002817D02800C0B2022813D100207E
:1059E000009030680068009030684068009000982F
:1059F000202086F83E00002086F83C000122390075
:105A00003000FCF72AFBF1BDA85100200014014032
:105A10003154002024510020001001405850002033
:105A200026540020704700002DE9F04104000D00CD
:105A3000002C01D1012095E0584F386810F0070084
:105A4000A84207D23D70386810F00700A84201D084
:105A5000012087E02078800716D52078400704D5FC
:105A60004F48016851F4E05101602078000704D5E7
:105A70004B48016851F46041016049490A6832F0BD
:105A8000F002A06802430A602078C00738D5606839
:105A9000012805D143480068800313D4012061E048
:105AA0006068022802D06068032805D13D4800687C
:105AB000800107D4012055E03A480068800701D4EE
:105AC00001204FE0DFF8D880D8F80010890889005D
:105AD00060680143C8F80010FFF7DEFE0600D8F842
