:020000040800F2
:10000000385800203D9E0008459B0008479B00088B
:10001000499B00084B9B00084D9B00080000000016
:100020000000000000000000000000002582000821
:100030004F9B000800000000CD810008519B000884
:10004000F59E0008F99E0008FD9E0008019F00082B
:10005000059F0008099F00080D9F0008119F0008D8
:10006000159F0008199F00081D9F0008219F000888
:10007000259F0008299F00082D9F0008319F000838
:10008000359F0008399F00083D9F0008419F0008E8
:10009000659B0008459F0008499F00086F9B00086A
:1000A0004D9F0008519F0008559F0008599F000868
:1000B0005D9F0008619F00087B9B0008659F00080A
:1000C000699F00086D9F0008719F0008759F0008D8
:1000D000799F0008859B00088F9B0008999B00086A
:1000E0007D9F0008819F0008859F0008899F000868
:1000F0008D9F0008919F0008959F0008999F000818
:100100009D9F0008A19F0008A59F0008A99F0008C7
:10011000AD9F0008B19F0008B59F0008B99F000877
:10012000BD9F0008C19F0008C59F0008C99F000827
:10013000CD9F0008D19F0008D59F0008D99F0008D7
:10014000DD9F0008E19F0008E59F0008E99F000887
:10015000ED9F0008F19F0008F59F0008A39B000891
:10016000F99F0008FD9F000801A0000805A00008F5
:1001700009A000080DA0000811A000080000000060
:1001800015A0000819A0000880B5DFF8242400217C
:100190000FF2AD0001F064FBDFF818140860DFF81F
:1001A000182400210FF25D1001F05AFBDFF80C1447
:1001B0000860DFF80C2400210FF2893001F050FBB9
:1001C000DFF800140860DFF8682A00210FF2F93028
:1001D00001F046FBDFF85C1A0860DFF85C2A0021BA
:1001E000DFF8580A01F03CFBDFF8541A0860DFF82A
:1001F000542A0021DFF8500A01F032FBDFF84C1AD4
:100200000860DFF84C2A0021DFF8480A01F028FBDB
:10021000DFF8441A0860DFF8442A0021DFF8400ABA
:1002200001F01EFBDFF83C1A0860DFF83C2A0021D1
:10023000DFF8380A01F014FBDFF8341A086001BD5A
:1002400010B50400DFF82C0A9FED290A80ED3E0A64
:10025000DFF8241ADFF8242AC1F8F82080ED3D0ADF
:10026000DFF81C2AC1F8F4209FED220A80ED330A42
:10027000DFF8102AC1F8CC2080ED340ADFF8082A14
:10028000C1F8D0209FED1C0A80ED290ADFED1B0A82
:10029000C1ED290A80ED2A0A9FED190A81ED2A0A8B
:1002A000DFF8E829C267C1ED1F0ADFF8E429C0F8CA
:1002B000802081ED200ADFF8DC294265DFF8D829AB
:1002C0004A65DFF8D8298265DFF8D4298A65DFF826
:1002D000D429C262DFF8D029CA62DFF8D0290263CC
:1002E000DFF8CC090863012001F02CFBFBE70000DC
:1002F000869592400AB68040AB985F405111863F88
:100300007D8D073F2DE9F84F0400DFF8A8592878C4
:10031000022818D02878072815D028780C2812D061
:10032000287811280FD0287812280CD02878152882
:1003300040F08180DFF88009B0F9180000B201F0C8
:1003400025FB002877D1DFF874693068002800F0B9
:10035000F580DFF86C793868002800F0EF80DFF86E
:1003600064890020C8F87C000020C8F878000020CC
:10037000C8F880002878172833DADFF84C99002075
:10038000C9F80000DFF844A99AF8000001280BD151
:100390004FF47A730122DFF83819DFF8380901F0D9
:1003A000F2FD00208AF80000287804280ED0287872
:1003B00005280BD02878092808D028780A2805D0E5
:1003C00028780E2802D028780F2803D14FF4AF6088
:1003D00001F0B8FA0120C9F800002878401C287004
:1003E00003E00120DFF8F0180870002030600020E2
:1003F00038600020DFF8E4180860D8F80800DFF85B
:10040000E01808602878052840F0988028780A28A5
:1004100040F0948028780F2840F09080DFF8C408DE
:1004200002F0C4FBDFF8C00802F0C0FBDFF8640C88
:1004300002F0BCFB82E0DFF88468306819287DD3C5
:10044000DFF87C783868192878D3DFF89088D8F8F6
:100450000000192872D3DFF86C980020C9F87C00DE
:100460000020C9F878000020C9F8800028781728F3
:1004700033DADFF854A80020CAF80000DFF84CB8DF
:100480009BF8000001280BD14FF47A730122DFF8AA
:100490004018DFF8400801F076FD00208BF80000DE
:1004A000287804280ED0287805280BD02878092829
:1004B00008D028780A2805D028780E2802D0287875
:1004C0000F2803D14FF4966001F03CFA0120CAF8DE
:1004D00000002878401C28700FE0DFF8DC07B0F936
:1004E000100000B201F052FA022802D02878172832
:1004F00003DB0120DFF8E0170870002030600020E7
:1005000038600020C8F80000D9F80800DFF8D017DC
:1005100008602878052811D128780A280ED1287873
:100520000F280BD1DFF8BC0702F040FBDFF8B8075B
:1005300002F03CFBDFF85C0B02F038FB0A2001F014
:1005400001FAE2E670B504000125DFF86C67B6F940
:10055000160000B201F01AFA02281AD102F0DDFBEF
:100560000120DFF8641708602800C0B2002810D00E
:10057000B6F9080000B201F009FA002804D11420ED
:10058000DFF83017087003E00120DFF82817087043
:100590006D1EB6F9160000B201F0F8F9022803D07A
:1005A0000020DFF824170860052001F0CBF9CCE724
:1005B0003C9C000838530020609C00083C530020FD
:1005C000849C00084053002070B52DED028B040080
:1005D000DFF8F4060068002800F00B83DFF8D4563B
:1005E0002878012810D1DFF8DC66DFF8AC0AF06764
:1005F0000020B0674FF4167001F0A4F90020F067F6
:100600002878401C2870F4E22878022808D19FED51
:10061000CF1ADFEDCF0A9FEDCF0A02F0B3FDE8E27B
:100620002878032827D1DFF89C66DFF8700AF06786
:100630000020B0674FF4617001F084F99FEDC68A25
:1006400086ED1F8ADFF8580AB0672878032803D19F
:10065000012001F077F9F8E72878042840F0C982F2
:100660000020B06786ED1F8A4FF4617001F06AF9CF
:100670000020F067BDE2287804280CD19FEDB31A62
:10068000DFEDD50A9FEDD50A02F07CFD0120DFF8F1
:100690003C160870ADE2287805280CD19FEDAB1A06
:1006A000DFEDCF0A9FEDCF0A02F06CFD0120DFF8ED
:1006B0001C1608709DE2287806282ED1DFF8046603
:1006C000DFF8E009F067BFEE008A86ED1E8A4FF47E
:1006D0002F7001F037F9DFF8C809F067DFF8C809B3
:1006E000B0674FF4FA7001F02DF986ED1F8A0020F3
:1006F000B0674FF4617001F025F92878401C28702C
:100700000120DFF8A81908700020F0670020B0670A
:100710000020DFF8B81508706BE2287807281ED192
:10072000DFF8BC0590ED001ADFEDC80A9FEDC80A9E
:1007300002F028FDDFF87459287801280AD14FF417
:100740007A730122DFF86819DFF8880501F01BFCD5
:10075000002028700020DFF87415087049E228781E
:1007600008282BD10020DFF864150870DFF85465E5
:100770005FF03F40F0670020B0674FF4487001F031
:10078000E1F89FED758A86ED1F8ADFF81409B067DE
:100790002878082803D1012001F0D4F8F8E7287858
:1007A000092840F0268286ED1F8A0020B0674FF4AA
:1007B000617001F0C7F80020F0671AE22878092874
:1007C0000ED1DFF81C0590ED001ADFEDD00A9FED89
:1007D000D00A02F0D7FC0120DFF8F014087008E21C
:1007E00028780A280ED1DFF8F80490ED001ADFED22
:1007F000C90A9FEDC90A02F0C5FC0120DFF8CC143C
:100800000870F6E128780B282ED1DFF8B864DFF8FD
:10081000A408F067BFEE008A86ED1E8A4FF42F70A1
:1008200001F090F8DFF89008F067DFF87C08B06717
:100830004FF4FA7001F086F886ED1F8A0020B06749
:100840004FF4617001F07EF82878401C2870012078
:10085000DFF8581808700020F0670020B06700200B
:10086000DFF868140870C4E128780C281ED1DFF87E
:10087000700490ED001ADFEDC70A9FEDC70A02F081
:1008800081FCDFF82858287801280AD14FF47A73C0
:100890000122DFF81C18DFF83C0401F074FB002093
:1008A00028700020DFF824140870A2E128780D28B1
:1008B0002BD10020DFF814140870DFF808645FF013
:1008C0003F40F0670020B0674FF4487001F03AF8FD
:1008D0009FED218A86ED1F8ADFF8C407B06728786C
:1008E0000D2803D1012001F02DF8F8E728780E2813
:1008F00040F07F8186ED1F8A0020B0674FF4617061
:1009000001F020F80020F06773E128780E280CD160
:100910009FED0E1ADFEDB90A9FEDB90A02F032FC25
:100920000120DFF8A813087063E128780F2815D19B
:100930009FED061ADFEDB30A9FEDB30A02F022FC29
:100940000120DFF88813087053E100BF00000000A9
:10095000C4655440C0069740CDCC4CBE28781028C2
:100960001DD10020D9490870D64E5FF07E50F06747
:100970000020B0674FF4967000F0E4FFDFF8380B0A
:10098000B0670020F0674FF42F7000F0DBFF28788D
:10099000401C28700020F0670020B06729E128780B
:1009A00011280AD19FED991ADFED990ADFF80C0B97
:1009B00090ED000A02F0A8FF1BE12878122813D15D
:1009C0009FED921ADFF8F80AD0ED000A9FED910A28
:1009D00003F064FA0DE100BF78BBB43F5935924093
:1009E00027D75F3F3A7189402878132832D14FF4D6
:1009F0007A730122DFF8CC1AB64801F0C4FAB14E7E
:100A00000020B067DFF8800BF0674FF4AF6000F0B4
:100A100099FF0020F0670020B067642000F092FF8B
:100A20002878401C2870B7EE000A86ED1F0A86ED74
:100A30001E0A4FF4FA7000F085FF0020F0670020D6
:100A4000B0670020C6F88000D3E000BFFC025D4024
:100A50009C716540287814281DD1974DB5F9180070
:100A600000B200F093FF002804D19FED6B0A02F062
:100A700069FEBEE0B5F9180000B200F087FF022859
:100A800040F0B7809FED611ADFED640A9FED640AC4
:100A900002F078FBADE02878152840F0AA80864E59
:100AA000B6F9180000B200F071FF00281AD19FEDCE
:100AB0005A1AB0EE418A7048D0F8800003F0EAFB81
:100AC000DFF8C82ADFF8C83A03F008FC03F0C4FCDA
:100AD00000EE900AB0EE481A7A4890ED000A03F052
:100AE00001F886E0B6F9180000B200F04FFF0228C6
:100AF00040F07F802878152810D19FED4A0A02F037
:100B000021FE012000F01EFFF4E700BF8F3CB23F42
:100B1000F0AE6440A7B15E3F45FA51401520287001
:100B2000287815280BD19FED3F1ADFED380A9FED8D
:100B30003E0A03F0B3FA012000F004FFF0E7654E2F
:100B40004FF47A730122DFF84C1A300001F01BFADF
:100B500040F6980000F0F6FE152028702878152839
:100B60000BD19FED301ADFED290A9FED300A03F01B
:100B700095FA012000F0E6FEF0E7152028702878AD
:100B800015280BD19FED240A02F0DCFD012000F0B6
:100B9000D9FEF4E7CAE75F40389623401520287055
:100BA0004FF47A730122DFF8081B300001F0EBF9F3
:100BB000287815281DD19FED181AB0EE418A2E48CD
:100BC000D0F8800003F066FBDFF8C029DFF8C039F9
:100BD00003F084FB03F040FC00EE900AB0EE481AEC
:100BE000384890ED000A02F07DFF012000F0AAFED7
:100BF000DEE7012000F0A6FEEAE400BF2D54B33F7B
:100C0000DA4724400CAD5D3F3F6F1140000000000B
:100C1000C65E00406EBF4F3E920A06404518E43F54
:100C2000AA54B83F80926A40228BD43F228B943FD3
:100C3000A89C000844530020CC9C0008ED0C000840
:100C400048530020F09C0008BD1000084C530020C1
:100C5000149D0008C914000850530020389D000856
:100C600099150008545300205C9D0008B516000833
:100C700058530020C8490020584B00202D56C53F2E
:100C8000B5990240A8D1DB3F75DB833F1394414007
:100C90006F23444026D52140F3ED833F332D23407D
:100CA000F7DB063F75220440FF50853FFF63044099
:100CB00014AB073F2C540020F85100209C53002017
:100CC000A0530020E84C0020245300202D54002085
:100CD000AD010020245100202A540020A4530020FC
:100CE000985300202C0100205001002038B504004A
:100CF000DFF8641A0868002840F0E580DFF85C0A35
:100D00000078162880F2DF8040F23340DFF8501A76
:100D10004A8882420ADB4A8840F26A539A4205DADC
:100D2000DFF8442ADFF89037D36738E04A8840F28A
:100D30006A539A4209DB4A88B2F5D46F05DADFF8C4
:100D4000282A5FF04043D36729E040F297224B887E
:100D500093420ADB4B8840F2CE35AB4205DADFF82E
:100D6000082A5FF07F53D36719E04B8840F2611582
:100D7000AB4208DB4B88934205DADFF8EC295FF0E1
:100D80008043D3670BE04A8840F2CE339A4206DBB9
:100D90004A88824203DADFF8D0290023D3670A8821
:100DA00082420ADB0A8840F26A539A4205DADFF887
:100DB000B8295FF07E53936738E00A8840F26A539F
:100DC0009A4209DB0A88B2F5D46F05DADFF8982970
:100DD0005FF07E53936729E040F297220B8893429D
:100DE0000ADB0B8840F2CE35AB4205DADFF8782912
:100DF000DFF87839936719E00B8840F26115AB4250
:100E000008DB0B88934205DADFF85C29DFF85C39F0
:100E100093670BE00A8840F2CE339A4206DB0A88D9
:100E2000824203DADFF8402900239367CA888242AE
:100E30000ADBCA8840F26A539A4205DADFF82809C9
:100E40009849C0F8801020E1CA8840F26A539A425B
:100E50000ADBCA88B2F5D46F06DADFF80C095FF056
:100E60007E51C0F8801010E140F29722CB88934267
:100E70000ADBCB8840F2CE35AB4205DADFF8E80872
:100E80008749C0F8801000E1CB8840F26115AB4281
:100E900009DBCB88934206DADFF8CC08DFF8CC1800
:100EA000C0F88010F1E0CA8840F2CE339A42C0F216
:100EB000EC80C988814280F2E880DFF8AC0800212C
:100EC000C0F88010E1E00868002840F0DE80DFF81C
:100ED0008C0800781628C0F2D88040F23340DFF842
:100EE00080184A8882420ADB4A8840F26A539A4252
:100EF00005DADFF874285FF03F43D36738E04A88AB
:100F000040F26A539A4209DB4A88B2F5D46F05DA97
:100F1000DFF854285FF03F43D36729E040F297227F
:100F20004B8893420ADB4B8840F2CE35AB4205DA60
:100F3000DFF834285FF07C53D36719E04B8840F228
:100F40006115AB4208DB4B88934205DADFF81828BD
:100F50005FF07C53D3670BE04A8840F2CE339A426D
:100F600006DB4A88824203DADFF8FC270023D367D6
:100F70000A88824209DB0A8840F26A539A4204DAFC
:100F8000DFF8E4270023936735E00A8840F26A53CC
:100F90009A4208DB0A88B2F5D46F04DADFF8C82772
:100FA0000023936727E040F297220B88934209DBE6
:100FB0000B8840F2CE35AB4204DADFF8AC270023D1
:100FC000936718E00B8840F26115AB4207DB0B8892
:100FD000934204DADFF89027002393670BE00A8836
:100FE00040F2CE339A4206DB0A88824203DADFF807
:100FF000782700239367CA8882420ADBCA8840F2B6
:101000006A539A4205DADFF860072649C0F8801073
:101010003BE0CA8840F26A539A420ADBCA88B2F5BA
:10102000D46F06DADFF840075FF07E51C0F8801019
:101030002BE040F29722CB8893420ADBCB8840F228
:10104000CE35AB4205DADFF820071549C0F880102D
:101050001BE0CB8840F26115AB4209DBCB889342A1
:1010600006DADFF80407DFF80417C0F880100CE098
:10107000CA8840F2CE339A4207DBC988814204DA3B
:10108000DFF8E4060021C0F88010052000F05AFCCB
:101090002EE60000740100209A99D93F666666BF6B
:1010A0009A9919BF9A99193F3333B3BF2E54002030
:1010B000AE0100203333333F333333BF2DE9F14FDB
:1010C000DFF8980600781628C0F2EF81DFF8904626
:1010D000B4F9160000B200F059FC022840F0E58196
:1010E000B4F91A0000B200F051FC002803D101202D
:1010F00000F028FCF4E7B4F9160000B200F046FC5A
:10110000022840F0D281DFF868562868002800F1F4
:10111000BA812868062190FBF1F0401CDFF85416D4
:1011200008602868062805DA2868401CDFF8481699
:10113000086004E02868401FDFF83C160860DFF80C
:101140003C66DFF834764FF47A730122DFF86005ED
:1011500039680844411E300000F015FFDFF8201602
:101160003A682820424301EB0200DFF808160968BC
:1011700050F82100DFF80C160860DFF80C86DFF865
:101180000C163A682820424301EB0200DFF8E41510
:10119000096850F82100C8F80000DFF8E80590ED74
:1011A000000AF1EE040AB4EE600AF1EE10FA15D569
:1011B000DFF8B495DFF88C05C9F87C000020C9F889
:1011C0007800642000F0BEFB0020C9F87C000020FD
:1011D000C9F878004FF4FA7000F0B4FBDFF8E0A231
:1011E000DFF88495D9F80400CAF80000DFF8A0B54C
:1011F0009BF80000002814D1B4F9160000B200F0EA
:10120000C5FB02280DD19FEDAB1ADAED000ADFF81D
:10121000740590ED000A02F053FD012000F092FBEE
:10122000E4E700208BF800000020C9F878000020D7
:10123000C9F87C00502000F085FBDFF83805016814
:10124000012940F0C080386804285BDB3868042836
:1012500040F0F180DFF864A2D9F80000CAF800007D
:101260009BF80000002812D1B4F9160000B200F07B
:101270008DFB02280BD19FED8F1AD8ED000A9AED55
:10128000000A02F02FFC012000F05CFBE8E70020E0
:101290008BF80000B4F9160000B200F077FB0228CA
:1012A0000AD14FF47A730122BA49300000F06BFE84
:1012B00040F6980000F046FBD9F80000CAF800009C
:1012C0009BF80000002819D1B4F9160000B200F014
:1012D0005DFB022812D19FED771ADFF8B0143A684F
:1012E0002820424301EB0200D0ED020A9AED000AE9
:1012F00002F0F8FB012000F025FBE1E700208BF86D
:10130000000098E0D9F80400CAF800006B48D9F84A
:10131000001001609BF80000002813D1B4F91600FA
:1013200000B200F033FB02280CD19FED621AD8ED19
:10133000000A624890ED000A02F0D4FB012000F0A0
:1013400001FBE7E700208BF80000B4F9160000B2BB
:1013500000F01CFB02280AD14FF47A7301228D4958
:10136000300000F010FE40F6980000F0EBFADFF8D5
:101370004C81D9F80000C8F80000D9F80400CAF878
:1013800000009BF80000002819D1B4F9160000B243
:1013900000F0FCFA022812D19FED461ADFF8EC1398
:1013A0003A682820424301EB0200D0ED020A98ED92
:1013B000000A02F097FB012000F0C4FAE1E70020E8
:1013C0008BF8000037E00068022834D1386805281F
:1013D00031DADFF8E8A0D9F80000CAF800009BF87D
:1013E0000000002812D1B4F9160000B200F0CEFAC5
:1013F00002280BD19FED2F1AD8ED000A9AED000AB2
:1014000002F070FB012000F09DFAE8E700208BF865
:101410000000B4F9160000B200F0B8FA02280AD1B0
:101420004FF47A7301225B49300000F0ACFD4FF4B9
:10143000E16000F087FA3868052821DAB4F91A006B
:1014400000B200F0A3FA00280AD1B4F9160000B2E5
:1014500000F09CFA022803D1012000F073FAEDE7B6
:10146000B4F9160000B200F091FA022806D14FF448
:101470007A730122C749300000F085FD01F038FC85
:101480005FF0FF302860B4F91A0000B200F07EFA75
:1014900002280AD1B4F9160000B200F077FA022847
:1014A00003D1012000F04EFAEDE7012000F04AFAE6
:1014B00006E60000920A06400000C0BF90530020DC
:1014C00094530020B201002038B5040001F0E2FD81
:1014D00001F056FC01F08EFD03F0C8F803F0A0F90E
:1014E00003F00FFA9D480078162848DB9C48B0F9B5
:1014F000160000B200F04AFA022840D1A648B1EE28
:101500000C0A80ED000AA54981ED000AA44A82ED8B
:10151000000A9FED8C0A80ED010A81ED010A82ED3F
:10152000010AA048A0490160A04981608E4D9FED4D
:10153000860AD5ED020A70EE600A9FED841AF4EE79
:10154000410AF1EE10FA10DBD5ED020A70EE600AE6
:101550009FED7F1AF4EE410AF1EE10FA05D5002155
:10156000C1610020C5F8800009E0D5ED020A30EE27
:10157000600A01F085FAB1EE400A85ED200A0120EB
:1015800000F0E0F9A2E70000CDCC2C409A9999999F
:101590009999B9BFB00100202DE9F0410400704DC8
:1015A000B5F9140000B200F0F1F9002811D14FF4A0
:1015B0007A7301227E49714800F0E5FCB5F9140008
:1015C00000B200F0E3F900281CD1012000F0BAF9C4
:1015D000F4E7B5F9140000B200F0D8F9022811D1EF
:1015E0004FF47A7301226B49644800F0CCFCB5F9E2
:1015F000140000B200F0CAF9022803D1012000F063
:10160000A1F9F4E7B5F91C0000B200F0BFF9022817
:1016100049D1B5F9160000B200F0B8F9022842D15C
:10162000DFF89081504E7068C8F80000584F387845
:10163000002812D1B5F9160000B200F0A7F902286F
:101640000BD19FED411AD8ED000A9FED420A02F03E
:1016500037FB012000F076F9E8E700203870002021
:10166000B0670020F067502000F06CF9DFF8488187
:101670003068C8F800003878002812D1B5F9160093
:1016800000B200F083F902280BD19FED2F1ADFED95
:10169000350A98ED000A02F025FA012000F052F90F
:1016A000E9E700203870012000F04CF977E70000EE
:1016B000A4010020F8B50400294DB5F90A0000B2D4
:1016C00000F064F9002839D1234E0020306000205A
:1016D0003A49086000203A4908600020394908600A
:1016E0001E4F387804280ED0387805280BD038786B
:1016F000092808D038780A2805D038780E2802D072
:1017000038780F280AD14FF4AF6000F01BF94FF47E
:101710007A7301222C49194800F035FC3878401CB6
:10172000387001203060B5F90A0000B200F02EF9DF
:10173000002803D1012000F005F9F4E7012000F0B2
:1017400001F9B9E73333333F920A06400AD7A3BC05
:101750000BD7A33CEE7C8F3F245300202C54002059
:10176000F85100208716C93FE84C0020000080BFD8
:10177000980100202C5300202853002024510020E1
:10178000C84900203053002034530020584B00201B
:101790002A540020B10100206C000020900000209D
:1017A000B400002074010020000020409A99993E66
:1017B000B001002094530020905300209C5300203F
:1017C000A0530020A4530020AD01002010B402005B
:1017D00052B2002A06D40A01DFF88C31040064B248
:1017E0001A5509E00A01DFF88431040064B214F0EC
:1017F0000F04234403F8042C10BC704780B500216B
:101800007FF00400FFF7E2FF01BDEFF30580002841
:1018100002D07FF005000AE0DFF8541108680028C4
:1018200003D101200860002001E05FF0FF30704725
:1018300010B5EFF30580002802D07FF005000EE020
:10184000DFF82C412068012807D1FFF7D7FF0220DD
:10185000206003F058FA002001E05FF0FF3010BD77
:101860002DE9FF4707008846140000200390EFF39E
:101870000580002862D1380000285FD08020824691
:1018800018200500002081465FF0FF300600002C84
:1018900033D02068002801D020688146A069002844
:1018A00001D0A0690500002D04D0392D02D2207985
:1018B000C00701D5002042E06069002802D06069BD
:1018C00080088246A06800280BD0E0685C2808D316
:1018D0002069002805D06069002802D00120060098
:1018E0000DE0A06800280AD1E068002807D120692F
:1018F000002804D10020060001E000200600012E8F
:101900000CD1A06802902069019000954346524690
:101910004946380003F082F803900FE0002E0DD105
:1019200003A8019000954346524692B249463800BA
:1019300003F0C3F8012801D000200390039804B0FD
:10194000BDE8F08738B50400EFF30580002802D029
:101950007FF0050505E00025002C02D0200003F0F3
:10196000ABF9280032BD000000E400E018ED00E013
:1019700020530020034B0360034B0B608023136054
:10198000704700BFB04E002014460020010040F216
:1019900061100A0012B2824204DB0A0012B2B2F5F0
:1019A000D46F02DB5FF0FF3028E00A0012B28242FF
:1019B00007DB080000B240F25922904201DA002011
:1019C0001CE0080000B240F25922904207DB0800F8
:1019D00000B240F24D42904201DA01200EE00800D0
:1019E00000B240F24D42904206DB080000B2B0F572
:1019F000D46F01DA022001E05FF0FF307047000091
:101A000038B52DED048BB0EE409AB0EE608AF0EE62
:101A1000418A19EE100A02F03DFC0022DFF834344E
:101A200003F034FD0022DFF8DC3403F001FE040093
:101A30000D0038EE680A10EE100A02F02BFC2200AE
:101A40002B0003F023FD04000D0018EE900A02F0B5
:101A500021FC22002B0002F041FC02F0FDFC00EE14
:101A6000100ABDEC048B31BD70B52DED028BDFF893
:101A7000E8432078002811D0022841D01AD3042846
:101A800064D050D3062879D070D3082800F09B800A
:101A9000C0F08480092800F0A180D5E1DFF8E403DC
:101AA0000078482803D12078401C207001E00020F5
:101AB0002070CBE1DFF8CC030178442917D1002056
:101AC000DFF89C1308700020DFF89C1308700020DA
:101AD000DFF89C1308700020DFF8A01308700020C6
:101AE000DFF8781308702078401C207007E0007839
:101AF000482802D10120207001E000202070A5E1DB
:101B0000DFF85C03DFF87C130978DFF858230378EB
:101B1000D1540178491C01700078202802DB20781C
:101B2000401C207092E1DFF84003DFF85813097879
:101B3000DFF838230378D1540178491C017000780C
:101B4000082802DB2078401C20707FE1C848CD497E
:101B50000978C84A0378D1540178491C017000788B
:101B6000082802DB2078401C20706FE1C54800780F
:101B7000C14908702078401C207067E1BF48C14906
:101B80000978BF4A0378D1540178491C0170007864
:101B9000042802DB2078401C207057E1AF49CF4871
:101BA0000A78825CCE4B0D785A55B64A12780B787B
:101BB000C2540878401C087008780C2802DB207892
:101BC000401C207042E1AF4800784C2803D12078B7
:101BD000401C207001E00020207037E1A948007807
:101BE000542840F02E81A8489E490A8802804A88DD
:101BF00042808A888280CA88C2800A8902814A8992
:101C000042818A898281CA89C2810A8A02824A8A79
:101C100042828A8A8282CA8AC2820A8B02834A8B61
:101C200042838A8B8283C98BC183904D9FEDB28A98
:101C3000DFEDB28AB0EE681AF0EE480AB5F900009E
:101C400000EE100AB8EEC00AFFF7DAFEDFEDAE0ACA
:101C5000B4EE600AF1EE10FA0EDAB0EE681AF0EEA9
:101C6000480AB5F9000000EE100AB8EEC00AFFF706
:101C7000C7FE864880ED000AB0EE681AF0EE480A0A
:101C8000B5F9000000EE100AB8EEC00AFFF7B8FE82
:101C90007E4880ED000A9FED7E1ADFED7E0AB5F9E1
:101CA000020000EE100AB8EEC00AFFF7A9FEDFED51
:101CB0007A0AB4EE600AF1EE10FA0FDB9FED781AA3
:101CC000DFED780AB5F9020000EE100AB8EEC00A9E
:101CD000FFF796FE714880ED000A0EE09FED701A46
:101CE000DFED700AB5F9020000EE100AB8EEC00A86
:101CF000FFF786FE694880ED000A9FED6B1ADFED65
:101D00006B0AB5F9040000EE100AB8EEC00AFFF73E
:101D100077FE674880ED000A9FED661ADFED660AE0
:101D2000B5F9060000EE100AB8EEC00AFFF768FE2B
:101D3000624880ED000A62484E490A6802604968BC
:101D4000604A1160604D006828609FED608B4C4ECA
:101D5000B6F9000003F090FD53EC182B03F096FB4E
:101D600002F07AFB5B490860B6F9020003F084FDDB
:101D700053EC182B03F08AFB02F06EFB5649086007
:101D800000210800C0B20C281DDA544A0800C0B275
:101D9000105C012805D152480B00DBB2C05C002862
:101DA0000AD00800C0B2105C00280AD14C480A00D2
:101DB000D2B2805C012804D10800C0B2494A106048
:101DC00001E0491CDDE795ED000AB5EE400AF1EEB1
:101DD00010FA09D595ED000ADFED430A30EE200A2E
:101DE000424880ED020A02E0404829688160224DA5
:101DF0002878012816D13E480178032905D00178BA
:101E0000082902D001780D2902D10178491C0170FE
:101E10004FF47A7301223A49364800F0B4F80020B2
:101E200028700EE0287804280BD14FF47A73012231
:101E30003349304800F0A7F80120344908700020E9
:101E400028700020207001E000202070BDEC028B83
:101E500070BD00000000F03F3254002037540020D5
:101E6000335400201C520020345400200053002022
:101E700035540020085300202F54002036540020F1
:101E8000CC53002031540020F8510020A8530020EA
:101E9000533F4F3E1074DF4001004040AC530020E0
:101EA00098DDD33D4DA10C41834E383EB4F505413C
:101EB000B053002072C2343EFE58F240B4530020AA
:101EC000B8530020BC530020C8530020FCA9F1D215
:101ED0004D62503FC0530020C4530020E052002008
:101EE000EC52002098010020DB0FC940E84C002094
:101EF0002C540020245100207B4E0841F819973EB5
:101F0000AF0100200000D0400100C040305400204C
:101F100010B50400002C01D1012033E0A069002895
:101F2000FFD194F83D00002805D1002084F83C0042
:101F3000200003F032FD242084F83D002068C068B2
:101F400030F400502168C860200000F07BFB20685E
:101F5000006930F49040216808612068406930F0E1
:101F60002A00216848612068C06850F40050216848
:101F7000C86000202064202084F83D00202084F8E0
:101F80003E00002010BD2DE9FC4706000D001700A3
:101F90009846002496F83D0020285DD1002D03D0FE
:101FA000380080B2002801D1012056E096F83C00AC
:101FB000012801D1022050E0012086F83C000020D9
:101FC0003064212086F83D0003F0FEFD8146B78491
:101FD000F784B068B0F5805F05D13069002802D180
:101FE0000024AA4602E02C005FF0000A002086F8D8
:101FF0003C00F08C00281ED0CDF800804B4600221B
:102000008021300000F0B5F9002801D0032024E041
:10201000002C08D1BAF80000C005C00D3168486036
:102020001AF1020A03E0207831684860641CF08CE1
:10203000401EF084DDE7CDF800804B4600224021B1
:10204000300000F096F9002801D0032005E02020A0
:1020500086F83D00002000E00220BDE8F68770B55C
:1020600005000C00160095F83E00202819D1002C20
:1020700003D0300080B2002801D1012012E095F891
:102080003C00012801D102200CE0012085F83C0031
:1020900000202863320092B22100280000F0B1F93C
:1020A00000E0022070BD2DE9FC470600306807689B
:1020B0003068D0F80C803068D0F8149000200025EB
:1020C00017F00F04002C08D1B80606D55FEA886027
:1020D00003D5300000F03DFA49E1002C00F080808B
:1020E0005FEAC97002D418F4907F79D017F001002C
:1020F000C0B2002806D05FEAC85003D5306C50F05B
:1021000001003064780708D519F00100C0B200283A
:1021100003D0306C50F002003064B80708D519F0D5
:102120000100C0B2002803D0306C50F004003064CD
:1021300038070BD55FEA886004D419F00100C0B2FB
:10214000002803D0306C50F008003064306C002858
:1021500045D0B80605D55FEA886002D5300000F0AA
:10216000F8F930684069800910F001000500306C12
:10217000000701D4002D2DD0300000F067F9306841
:102180004069400622D53068143050E8000F30F026
:1021900040000100306810F1140242E800100028ED
:1021A000F1D1B06B00280DD00FF20930B16B08658A
:1021B000B06B03F05DFD002811D0B06BB16B096D01
:1021C00088470CE0300003F067FD08E0300003F0C2
:1021D00063FD04E0300003F05FFD00203064C6E0E2
:1021E000306B012840F0B180F80640F1AE805FEA24
:1021F000C86040F1AA80002000903068006800901C
:1022000030684068009000983068406940065BD5AF
:10221000B06B0068D0F804A0504680B2002852D0BD
:102220005046B18D80B288424DD2A6F82EA0B06B38
:10223000C069B0F5807F3FD030680C3050E8000FA7
:1022400030F480700100306810F10C0242E8001098
:102250000028F1D13068143050E8000F40084000E9
:102260000100306810F1140242E800100028F1D19A
:102270003068143050E8000F30F040000100306842
:1022800010F1140242E800100028F1D1202086F855
:102290003E000020306330680C3050E8000F30F012
:1022A00010000100306810F10C0242E80010002814
:1022B000F1D1B06B03F08EFCB18DF08D091A89B2AB
:1022C000300003F000FD52E0B08DB6F82EA0B0EB68
:1022D0000A0AF08D002837D0504680B2002833D04B
:1022E00030680C3050E8000F30F490700100306816
:1022F00010F10C0242E800100028F1D130681430CF
:1023000050E8000F400840000100306810F114024E
:1023100042E800100028F1D1202086F83E0000207D
:10232000306330680C3050E8000F30F010000100CE
:10233000306810F10C0242E800100028F1D151463B
:1023400089B2300003F0BFFC11E0380606D55FEA21
:10235000086003D5300000F0B9F808E0780606D52B
:102360005FEA486003D5300000F0E3F8FFE7BDE81E
:10237000F3872DE9F04105000E0017009846069CF2
:10238000286800683040B04201D1012000E0002000
:102390003900C9B2884231D114F1010FF0D0002CBC
:1023A00005D003F011FCB0EB08008442E8D22868A5
:1023B0000C3050E8000F30F4D0700100286810F1A4
:1023C0000C0242E800100028F1D12868143050E8CF
:1023D000000F400840000100286810F1140242E894
:1023E00000100028F1D1202085F83D00202085F83C
:1023F0003E00002085F83C00032000E00020BDE8FE
:10240000F08110B4030099629A85DA85002018647F
:10241000222083F83E00002083F83C001869002841
:1024200005D01868C06850F480701C68E0601868B7
:10243000406950F001001C6860611868C06850F085
:1024400020001C68E060002010BC704701680C315F
:1024500051E8001F31F490710A00016811F10C037A
:1024600043E800210029F1D10168143151E8001F2F
:10247000490849000A00016811F1140343E80021EA
:102480000029F1D1016B01290DD101680C3151E80E
:10249000001F31F010010A00016811F10C0343E83C
:1024A00000210029F1D1202180F83E100021016394
:1024B0007047000038B50400A56B0020E8850020B7
:1024C000E884280003F0E8FB31BD0000010091F82A
:1024D0003D0021282BD18868B0F5805F0DD10869B7
:1024E00000280AD1086A02001088C005C00D0B68D8
:1024F0005860086A801C086205E0086A431C0B6289
:1025000000780B685860C88C401EC88480B20028D0
:102510000BD10868C06830F080000B68D86008688C
:10252000C06850F040000B68D860002000E0022036
:10253000704710B504002068C06830F04000216882
:10254000C860202084F83D00200003F003FC002038
:1025500010BD7CB5040094F83E00222870D1A0681C
:10256000B0F5805F0DD1206900280AD10025A66A48
:1025700020684068C005C00D3080A06A801CA06241
:1025800017E0A56A0026A068B0F5805F05D0A068B6
:10259000002806D12069002803D1206840682870EF
:1025A00004E02068406810F07F002870A06A401C9A
:1025B000A062E08D401EE08580B200283ED12068F8
:1025C000C06830F020002168C8602068C06830F41E
:1025D00080702168C8602068406940084000216818
:1025E0004861202084F83E00206B012821D1002082
:1025F000206320680C3050E8000F30F0100001001C
:10260000206810F10C0242E800100028F1D1206887
:102610000068C00608D5002000902068006800907F
:102620002068406800900098A18D200003F04BFBCB
:1026300002E0200003F048FB002002E0002000E060
:10264000022076BD2DE9F84F84B0050028680169A5
:1026500031F44051E868014328680161D5F808B0B9
:10266000286950EA0B0B686950EA0B0BE86950EADD
:102670000B0B2868C168B24801405BEA0101286879
:10268000C1602868416931F44071A8690143286834
:1026900041612868AB49884203D02868AA4988422A
:1026A00003D103F007FC040002E003F0F8FB040090
:1026B000E869B0F5004F40F0A1805FF0640A02269F
:1026C00000275FF019085FF0000922000023A8FB33
:1026D000020108FB031109FB0211CDE90001686842
:1026E0000021A6FB002306FB013307FB0033DDE9D5
:1026F000000103F047FC6421B0FBF1F003902200DD
:102700000023A8FB020108FB031109FB0211CDE91C
:10271000000168680021A6FB002306FB013307FBCC
:102720000033DDE9000103F02DFC029022000023BC
:10273000A8FB020108FB031109FB0211CDE900010E
:1027400068680021A6FB002306FB013307FB00336A
:10275000DDE9000103F016FC6421B0FBF1F1029801
:102760000AFB1101C80032306421B0FBF1F04000D7
:1027700010F4F870039910EB01100290220000236E
:10278000A8FB020108FB031109FB0211CDE90001BE
:1027900068680021A6FB002306FB013307FB00331A
:1027A000DDE9000103F0EEFB009022000023A8FB0E
:1027B000020108FB031109FB021180468946686883
:1027C0000021A6FB002306FB013307FB0033404634
:1027D000494603F0D7FB6421B0FBF1F100980AFBF6
:1027E000110A5FEACA0032306421B0FBF1F111F046
:1027F000070102980918286881609EE004260027D6
:102800005FF0640A5FF019085FF0000922000023FE
:10281000A8FB020108FB031109FB0211CDE900012D
:1028200068680021A6FB002306FB013307FB003389
:10283000DDE9000103F0A6FB6421B0FBF1F0039099
:1028400022000023A8FB020108FB031109FB02116F
:10285000CDE9000168680021A6FB002306FB0133D7
:1028600007FB0033DDE9000103F08CFB029022003E
:102870000023A8FB020108FB031109FB0211CDE9AB
:10288000000168680021A6FB002306FB013307FB5B
:102890000033DDE9000103F075FB6421B0FBF1F1C9
:1028A00002980AFB1101080132306421B0FBF1F0FB
:1028B00010F0F000039910EB0110029022000023A9
:1028C000A8FB020108FB031109FB0211CDE900017D
:1028D00068680021A6FB002306FB013307FB0033D9
:1028E000DDE9000103F04EFB009022000023A8FB6D
:1028F000020108FB031109FB021180468946686842
:102900000021A6FB002306FB013307FB00334046F2
:10291000494603F037FB6421B0FBF1F100980AFB54
:10292000110A5FEA0A1032306421B0FBF1F111F0B4
:102930000F01029809182868816005B0BDE8F08F82
:10294000F369FFFF001001400014014010B52DEDA8
:10295000088B0400F0EE408A94ED040A38EEC09A29
:10296000F0EE689A94ED040AF0EE000AB0EE681AF0
:1029700000EE601A94ED030A31EE00AA94ED010A0C
:1029800060EE29AA94ED060AB4EE6A0AF1EE10FA96
:102990000BD594ED060AB5EE400AF1EE10FA04D01C
:1029A00094ED060AF0EE40AA15E094ED060AB1EEA9
:1029B000400AF4EE40AAF1EE10FA0CD594ED060AA6
:1029C000B5EE400AF1EE10FA05D094ED060AB1EE2C
:1029D000400AF0EE40AA94ED050AB4EE680AF1EE62
:1029E00010FA08D494ED050AB1EE400AF4EE408ADC
:1029F000F1EE10FA0AD594ED000AB0EE6A8A00EE04
:102A0000098A94ED020A00EE0A8A01E09FED668AC7
:102A10002069E060C4ED048A18EE100A01F03AFC67
:102A200031F0004141EC1B0B206A01F033FC53EC08
:102A30001B2B03F0BFFB1ED294ED080AB5EE400A33
:102A4000F1EE10FA17D018EE100A01F023FC31F065
:102A5000004141EC1B0B94ED080A20EE080A10EE31
:102A6000100A01F017FC53EC1B2B02F0E1FD01F002
:102A7000F3FC08EE100AB0EE480ABDEC088B10BD5E
:102A800010B52DED088B0400F0EE408AB0EE689A88
:102A900094ED070A30EE280A84ED070AD4ED079A70
:102AA00094ED040A38EEC0AA94ED010A60EE29AA5A
:102AB00094ED060AB4EE6A0AF1EE10FA0BD594ED25
:102AC000060AB5EE400AF1EE10FA04D094ED060ABB
:102AD000F0EE40AA15E094ED060AB1EE400AF4EEDD
:102AE00040AAF1EE10FA0CD594ED060AB5EE400AB4
:102AF000F1EE10FA05D094ED060AB1EE400AF0EEC0
:102B000040AA94ED050AB4EE680AF1EE10FA08D472
:102B100094ED050AB1EE400AF4EE408AF1EE10FAA7
:102B20000AD594ED000AB0EE6A8A00EE098A94EDA7
:102B3000020A00EE0A8A01E09FED1B8A18EE100AD5
:102B400001F0A8FB31F0004141EC1B0B206A01F0C1
:102B5000A1FB53EC1B2B03F02DFB1ED294ED080AB6
:102B6000B5EE400AF1EE10FA17D018EE100A01F097
:102B700091FB31F0004141EC1B0B94ED080A20EE73
:102B8000080A10EE100A01F085FB53EC1B2B02F033
:102B90004FFD01F061FC08EE100AC4ED048AB0EEAE
:102BA000480ABDEC088B10BD000000000021016147
:102BB0000021C1600021C161704730B4002513E0DD
:102BC00050F8042BD30744BFA9F101039A18091F39
:102BD000042942F8045BFAD213468C0744BF1580DF
:102BE0009B1CC90748BF1D7050F8041B0029E7D182
:102BF00030BC704710B4554855490A78554B0468A5
:102C00001A550268322A03DA0268521C026001E097
:102C10000022026050480278002A06D0022A1ED004
:102C20000DD3042A36D02BD35EE009780D2903D1C9
:102C30000178491C017001E00021017056E00A781A
:102C40000A2A06D10021454A11700178491C0170F9
:102C500004E009780D2901D00021017046E03F4AC7
:102C600009783F4B147819551178491C1170117867
:102C7000182904DB002111700178491C017035E02E
:102C800009780A2903D10178491C017001E000216B
:102C900001702BE009780D2923D13249304A92ED99
:102CA000030ADFED270A80EE200A81ED000A2E4B91
:102CB00092ED040ADFED220A80EE200A83ED000A7D
:102CC0002A4C92ED050ADFED1F0A80EE200ADFEDA7
:102CD0001E0A20EE200A84ED050A096821601968A1
:102CE00061600021017001E00021017010BC70479B
:102CF00080B541208DF8000043208DF8010054205C
:102D00008DF8020030208DF803004FF47A7304220E
:102D100069461748FFF737F901BD1CB5154C2078F7
:102D200001280CD0144800788DF800004FF47A7315
:102D3000012269461148FFF726F90120207013BDD2
:102D400000007A4400003443DB0F49401853002050
:102D5000265400204C4E00202754002028540020E8
:102D60003C5200201053002014530020E84C002057
:102D700058500020295400205644000824510020B7
:102D80002DE9F84F2DED028B82B0DFF8084BDFF80C
:102D9000085B686A2060DFF8046B95ED0A0AB1EE03
:102DA000400A86ED000ADFF8F87AE86A3860DFF852
:102DB000F48A206801F06EFA31F0004102000B0045
:102DC00092469B46D8F8000001F064FA52465B46F2
:102DD00003F0F0F919D298ED000AD4ED000A20EEC4
:102DE000200A10EE100A01F055FA82468B46206840
:102DF00001F050FA31F0004102000B0050465946F4
:102E000002F016FC01F028FB2060306801F042FA65
:102E100031F0004102000B0092469B46D8F80000BA
:102E200001F038FA52465B4603F0C4F919D298ED26
:102E3000000AD6ED000A20EE200A10EE100A01F07A
:102E400029FA80468946306801F024FA31F00041C1
:102E500002000B004046494602F0EAFB01F0FCFA92
:102E60003060DFF8448A386801F014FA31F000412C
:102E700002000B0092469B46D8F8000001F00AFAC7
:102E800052465B4603F096F919D298ED000AD7ED49
:102E9000000A20EE200A10EE100A01F0FBF980462D
:102EA0008946386801F0F6F931F0004102000B0064
:102EB0004046494602F0BCFB01F0CEFA3860DFF82C
:102EC000EC99206801F0E6F982468B46386801F0FB
:102ED000E1F9D9E9002302F0D9FA52465B4601F044
:102EE000FDF901F0B9FAC5F8B000DFF8C48998ED32
:102EF000000B03F07AF9B0EE408AF0EE608A2068A9
:102F000001F0C8F953EC182B93F0004302F0BEFA1D
:102F1000CDE90001306801F0BDF982468B4698ED9D
:102F2000000B03F068F951EC100B52465B4602F0BF
:102F3000ADFA02000B00DDE9000103F063F98246FF
:102F40008B46386801F0A6F9D9E9002302F09EFA11
:102F500052465B4601F0C2F901F07EFAC5F8B400B2
:102F6000DFF8508998ED000B03F045F9B0EE408A88
:102F7000F0EE608A206801F08DF953EC182B93F085
:102F8000004302F083FACDE90001306801F082F9D4
:102F900082468B4698ED000B03F027F951EC100B9D
:102FA00052465B4602F072FADDE9002301F096F921
:102FB00082468B46386801F06DF9D9E9002302F0AA
:102FC00065FA52465B4601F089F901F045FAC5F809
:102FD000B800DFF8E40821680160DFF8E008316834
:102FE0000160DFF8DC083968016002B0BDEC028BDB
:102FF000BDE8F18F38B52DED048BDFF8C8489FEDA3
:103000005E8B9FED5F9ADFF8905895ED2C0A20EECD
:10301000090A10EE100A01F03DF953EC182B02F0EA
:1030200035FADFF8A428DFF8A43802F001FB03F03A
:103030005BF9A4F8F20095ED2D0A20EE090A10EED6
:10304000100A01F027F953EC182B02F01FFADFF8F1
:103050007828DFF8783802F0EBFA03F045F9A4F8A5
:10306000C20095ED2E0A20EE090A10EE100A01F0BA
:1030700011F953EC182B02F009FADFF84C28DFF8AD
:103080004C3802F0D5FA03F02FF9A4F82201BDEC78
:10309000048B31BD2DE970432DED068BDFF8F86709
:1030A00096ED1E8AD6ED1F8A96ED209AB06801F043
:1030B000F1F841EC100B03F098F8B0EE40AAF0EEF6
:1030C00060AA18EE100A01F0E5F853EC1A2B02F092
:1030D000DDF98046894618EE900A01F0DBF804001D
:1030E0000D00B06801F0D6F841EC100B03F083F846
:1030F00051EC100B22002B0002F0C8F942464B465F
:1031000001F0ECF801F0A8F97062B06801F0C2F8C3
:1031100041EC100B03F06FF8B0EE40AAF0EE60AA9D
:10312000B1EE480A10EE100A01F0B4F853EC1A2B75
:1031300002F0ACF98046894618EE900A01F0AAF830
:1031400004000D00B06801F0A5F841EC100B03F08D
:103150004CF851EC100B22002B0002F097F942467C
:103160004B4601F0BBF801F077F9B06286ED0B9A9F
:10317000BDEC068BBDE8708300000000008033408A
:103180000000704238B52DED048BB0EE409AB0EEE1
:10319000608AF0EE418ADFF83847DFF838072060B0
:1031A000DFF834070178072940F0C980DFEDDE9AA7
:1031B000DFF8285795ED000A39EE400AB4EE690AA7
:1031C000F1EE10FA1BDB95ED000A39EE400ADFED57
:1031D000D70AB4EE600AF1EE10FA10D5DFF8000756
:1031E0000021C161DFF8FC160162DFF8AC060021A6
:1031F0008167DFF8F4060168491C016039E00020AE
:10320000DFF8E416086095ED000A39EE400A10EE8A
:10321000100A01F03FF831F00041DFF8D026DFF866
:10322000D03603F07FF812D8B0EE080ADFF8B00607
:1032300080ED080A80ED000A95ED000A39EE400A9B
:10324000FFF71EFCDFF8500680ED1E0A11E0DFF8E4
:1032500090065FF0804101625FF08141016095ED71
:10326000000A39EE400AFFF70BFCDFF82C0680ED70
:103270001E0ADFF8805695ED000A38EE400AB4EEDB
:10328000690AF1EE10FA1BDB95ED000A38EE400AF0
:10329000DFEDA60AB4EE600AF1EE10FA10D5DFF801
:1032A00058060021C161DFF83C160162DFF8E8052D
:1032B0000021C167DFF844060168491C0160D1E1C3
:1032C0000020DFF83816086095ED000A38EE400A55
:1032D00010EE100A00F0DEFF31F00041DFF80C269E
:1032E000DFF80C3603F01EF814D8DFF80C06DFF810
:1032F00010160162DFF80C16016095ED000A38EE39
:10330000400AFFF7BDFBB1EE400ADFF88C0580ED07
:103310001F0AA7E1DFF8E0055FF0804101625FF07E
:103320008141016095ED000A38EE400AFFF7A8FBE5
:10333000B1EE400ADFF8600580ED1F0A92E10078E7
:103340000C2840F0C980DFED789ADFF8905595EDB4
:10335000000A39EE400AB4EE690AF1EE10FA1BDBFE
:1033600095ED000A39EE400ADFED700AB4EE600A0E
:10337000F1EE10FA10D5DFF868050021C161DFF821
:1033800064150162DFF8100500218167DFF8580538
:103390000168491C016039E00020DFF84C15086025
:1033A00095ED000A39EE400A10EE100A00F072FFA7
:1033B00031F00041DFF83425DFF8343502F0B2FF98
:1033C00012D8B0EE080ADFF8180580ED080A80ED83
:1033D000000A95ED000A39EE400AFFF751FBDFF8CD
:1033E000B80480ED1E0A11E0DFF8F4045FF08041BC
:1033F00001625FF08141016095ED000A39EE400AFB
:10340000FFF73EFBDFF8900480ED1E0ADFF8E4547E
:1034100095ED000A38EE400AB4EE690AF1EE10FAB2
:103420001BDB95ED000A38EE400ADFED400AB4EEF2
:10343000600AF1EE10FA10D5DFF8BC040021C1617A
:10344000DFF8A0140162DFF850040021C167DFF843
:10345000AC040168491C016004E10020DFF89C1401
:10346000086095ED000A38EE400A10EE100A00F0F0
:1034700011FF31F00041DFF87424DFF8743402F0FA
:1034800051FF14D8DFF87004DFF874140162DFF81C
:103490007414016095ED000A38EE400AFFF7F0FA67
:1034A000B1EE400ADFF8F00380ED1F0ADAE0DFF842
:1034B00048045FF0804101625FF08141016095ED59
:1034C000000A38EE400AFFF7DBFAB1EE400ADFF8F7
:1034D000C80380ED1F0AC5E0DFED139ADFF8FC5347
:1034E00095ED000A39EE400AB4EE690AF1EE10FAE1
:1034F0001EDB95ED000A39EE400ADFED0C0AB4EE52
:10350000600AF1EE10FA13D5DFF8D4030021C1618F
:10351000DFF8D0130162E04800218167DFF8C803BB
:103520000168491C01603BE00AD7A3BC0BD7A33C50
:103530000020DFF8B413086095ED000A39EE400A68
:1035400010EE100A00F0A6FE31F00041DFF89C23D7
:10355000DFF89C3302F0E6FE11D8B0EE080ADFF87F
:10356000800380ED080A80ED000A95ED000A39EE2F
:10357000400AFFF785FAC84880ED1E0A10E0DFF820
:1035800060035FF0804101625FF08141016095ED71
:10359000000A39EE400AFFF773FABF4880ED1E0AB1
:1035A000DFF8505395ED000A38EE400AB4EE690A90
:1035B000F1EE10FA1ADB95ED000A38EE400ADFED65
:1035C000B10AB4EE600AF1EE10FA0FD5DFF8280365
:1035D0000021C161DFF80C130162AF480021C1670F
:1035E000DFF818030168491C01603BE00020DFF8A8
:1035F0000C13086095ED000A38EE400A10EE100A30
:1036000000F048FE31F00041DFF8E022DFF8E03260
:1036100002F088FE13D8DFF8E002DFF8E41201625E
:10362000DFF8E012016095ED000A38EE400AFFF77E
:1036300027FAB1EE400A984880ED1F0A12E0DFF841
:10364000B8025FF0804101625FF08141016095ED59
:10365000000A38EE400AFFF713FAB1EE400A8E482E
:1036600080ED1F0A8C4D95ED020A38EEC00ADFEDA1
:10367000860AB4EE600AF1EE10FA15DB95ED020A47
:1036800038EEC00ADFED7F0AB4EE600AF1EE10FA00
:103690000AD50020E0610020C5F88000DFF838047A
:1036A0000168491C016048E09FED780AD5ED020AE7
:1036B00078EEE00AF4EE400AF1EE10FA11DBF1EEDA
:1036C000688A95ED020A38EEC00A2000FFF7D8F9A3
:1036D000B1EE400A85ED200A0020DFF8FC130860F7
:1036E0002BE0D5ED020A70EEE80AF4EE400AF1EEA6
:1036F00010FA13DB9FED660A78EE808A95ED020AD8
:1037000038EEC00A2000FFF7BBF9B1EE400A85EDA4
:10371000200A0020DFF8C01308600EE095ED020AD1
:1037200038EEC00A2000FFF7ABF9B1EE400A85ED94
:10373000200A0020DFF8A0130860FFF7ABFCBDEC07
:10374000048B31BD10B52DED028BB0EE408ADFF851
:103750008001DFF88C130160DFF8881181604E4C26
:1037600094ED020A38EE400ADFED470AB4EE600A33
:10377000F1EE10FA1FDB94ED020A38EE400ADFED9D
:10378000410AB4EE600AF1EE10FA14D50021C161CD
:103790000020C4F88000DFF840030168491C016084
:1037A000DFF844010168491C0160DFF8500101683D
:1037B000491C01605DE09FED350AD4ED020A78EE08
:1037C000600AF4EE400AF1EE10FA18DBB1EE488A16
:1037D00094ED020A38EE400AFFF752F9B1EE400AC2
:1037E00084ED200A0020DFF8F01208600020DFF8E6
:1037F000F81008600020DFF80411086039E0D4ED0B
:10380000020A70EEC80AF4EE400AF1EE10FA1ADB72
:103810009FED1F0A38EE008A94ED020A38EE400A46
:10382000FFF72EF9B1EE400A84ED200A0020DFF800
:10383000A81208600020DFF8B01008600020DFF850
:10384000BC10086015E094ED020A38EE400AFFF75C
:1038500017F9B1EE400A84ED200A0020DFF8781253
:1038600008600020DFF8801008600020DFF88C106E
:1038700008600020E0670020A067FFF70BFCBDECAC
:10388000028B10BD0BD7A33C0AD7A3BCDC0F494069
:10389000DB0FC94078530020E84C00207C53002007
:1038A000805300202401002028010020B09E000841
:1038B000B89E0008C09E0008845300208853002052
:1038C0008C5300201848002066F7E421C8B4DE3F7E
:1038D000740100200000A0402C540020AC530020B4
:1038E0002C0100209A99993E9C53002034333333A5
:1038F0003333E33FA853002050010020A0530020A1
:10390000333333400000404010B52DED048BB0EE52
:10391000409AB0EE608AF0EE418A42F21070DFF811
:1039200054170860DFF86C4794ED000A38EE400A3F
:10393000DFED670AB4EE600AF1EE10FA1ADB94EDDF
:10394000000A38EE400ADFED630AB4EE600AF1EED9
:1039500010FA0FD5DFF828070021C161DFF8101732
:103960000162D6480021C167DFF818070168491CC9
:1039700001603BE00020DFF80C17086094ED000ABE
:1039800038EE400A10EE100A00F084FC31F00041DD
:10399000DFF8E426DFF8E43602F0C4FC13D8DFF8E1
:1039A000E006DFF8E4160162DFF8E416016094ED4A
:1039B000000A38EE400AFFF763F8B1EE400ABF484C
:1039C00080ED1F0A12E0DFF8B8065FF08041016267
:1039D000DFF8BC16016094ED000A38EE400AFFF7EC
:1039E0004FF8B1EE400AB54880ED1F0ADFF87806BF
:1039F000DFF89C160160B14C94ED020A38EEC00A63
:103A0000DFED360AB4EE600AF1EE10FA14DB94ED45
:103A1000020A38EEC00ADFEDA50AB4EE600AF1EE44
:103A200010FA09D50021C1610020C4F880002A489D
:103A30000168491C016042E09FED230AD4ED020AAF
:103A400078EEE00AF4EE400AF1EE10FA0FDBF1EE48
:103A5000688A94ED020A38EEC00AFFF711F8B1EE59
:103A6000400A84ED200A00201B49086027E0D4EDBD
:103A7000020A70EEE80AF4EE400AF1EE10FA11DBE9
:103A80009FED120A78EE808A94ED020A38EEC00AA1
:103A9000FEF7F6FFB1EE400A84ED200A00200E4941
:103AA00008600CE094ED020A38EEC00AFEF7E8FF69
:103AB000B1EE400A84ED200A002007490860FFF7B4
:103AC000E9FABDEC048B10BDDC0F4940DB0FC940A7
:103AD0000AD723BC0BD7233CA45300208FC275BC4C
:103AE0000000204010B52DED048BB0EE409AB0EEF2
:103AF000608AF0EE418A42F21070DFF878150860B3
:103B0000DFF8944394ED000A38EE400ADFED680ACE
:103B1000B4EE600AF1EE10FA1ADB94ED000A38EE0A
:103B2000400ADFED640AB4EE600AF1EE10FA0FD538
:103B3000DFF84C050021C161DFF8341501625F48F0
:103B40000021C167DFF83C050168491C01603BE0CA
:103B50000020DFF83015086094ED000A38EE400AC6
:103B600010EE100A00F096FB31F00041DFF8082556
:103B7000DFF8083502F0D6FB13D8DFF80405DFF8CC
:103B800018150162DFF80815016094ED000A38EE9F
:103B9000400AFEF775FFB1EE400A484880ED1F0A63
:103BA00012E0DFF8DC04DFF8F0140162DFF8E01463
:103BB000016094ED000A38EE400AFEF761FFB1EEB5
:103BC000400A3E4880ED1F0ADFF89C04DFF8C0146D
:103BD00001603A4C94ED020A38EEC00ADFED360A75
:103BE000B4EE600AF1EE10FA15DB94ED020A38EE3D
:103BF000C00ADFED2E0AB4EE600AF1EE10FA0AD523
:103C00000021C1610020C4F88000DFF8540601687B
:103C1000491C016045E09FED9B0AD4ED020A78EE55
:103C2000E00AF4EE400AF1EE10FA10DBF1EE688AD9
:103C300094ED020A38EEC00AFEF722FFB1EE400A08
:103C400084ED200A0020DFF81816086029E0D4ED82
:103C5000020A70EEE80AF4EE400AF1EE10FA12DB06
:103C60009FED890A78EE808A94ED020A38EEC00A48
:103C7000FEF706FFB1EE400A84ED200A0020DFF8CF
:103C8000E01508600DE094ED020A38EEC00AFEF778
:103C9000F7FEB1EE400A84ED200A0020DFF8C015DF
:103CA0000860FFF7F7F9BDEC048B10BD90C2753CBE
:103CB0000AD723BC0BD7233C8FC275BCE84C00202D
:103CC00038B52DED048BB0EE409AB0EE608AF0EE80
:103CD000418A42F21070DFF8AC130860DFF88843C5
:103CE000DFF8AC032060DFF87C5595ED000A39EE73
:103CF000400ADFED660AB4EE600AF1EE10FA18DB56
:103D000095ED000A39EE400ADFED610AB4EE600A73
:103D1000F1EE10FA0DD5D5480021C161D4490162F8
:103D2000DFF8440500218167D2480168491C016021
:103D300036E00020CF49086095ED000A39EE400AD0
:103D400010EE100A00F0A6FA31F00041CA4ACB4B3F
:103D500002F0E8FA11D8C5485FF07F510162DFF840
:103D60000C15016095ED000A39EE400AFEF788FE59
:103D7000DFF8F40480ED1E0A12E00020A060BB48CA
:103D80005FF07F510162DFF8E414016095ED000AF5
:103D900039EE400AFEF774FEDFF8CC0480ED1E0A0F
:103DA000DFF8C45495ED020A38EEC00ADFED390A97
:103DB000B4EE600AF1EE10FA15DB95ED020A38EE6A
:103DC000C00ADFEDA40AB4EE600AF1EE10FA0AD5DB
:103DD0000020E0610020C5F88000DFF8840401685D
:103DE000491C016048E09FED270AD5ED020A78EEF4
:103DF000E00AF4EE400AF1EE10FA11DBF1EE688A07
:103E000095ED020A38EEC00A2000FEF739FEB1EE49
:103E1000400A85ED200A0020DFF8441408602BE0FA
:103E2000D5ED020A70EEE80AF4EE400AF1EE10FA5F
:103E300013DB9FED150A78EE808A95ED020A38EEC5
:103E4000C00A2000FEF71CFEB1EE400A85ED200AF4
:103E50000020DFF80C1408600EE095ED020A38EE41
:103E6000C00A2000FEF70CFEB1EE400A85ED200AE4
:103E70000020DFF8EC130860FFF70CF9BDEC048BB1
:103E800031BD0000DC0F4940DB0FC9400AD7A3BC9D
:103E90000BD7A33C8FC275BCB453002038B52DEDB1
:103EA000048BB0EE409AB0EE608AF0EE418A42F2A6
:103EB0001070744908606C4CF0EE089AC4ED009ADA
:103EC000DFF8AC5395ED000A39EE400ADFED620AE7
:103ED000B4EE600AF1EE10FA18DB95ED000A39EE47
:103EE000400ADFED5E0AB4EE600AF1EE10FA0DD57D
:103EF0005E480021C1615E490162DFF86C03002168
:103F000081675C480168491C016031E00020594923
:103F1000086095ED000A39EE400A10EE100A00F034
:103F2000B9F931F00041544A544B02F0FBF90FD873
:103F30004E48C0ED089AC0ED009A95ED000A39EEA2
:103F4000400AFEF79DFDDFF8200380ED1E0A0FE01A
:103F500046485FF080410162C0ED009A95ED000A8D
:103F600039EE400AFEF78CFDDFF8FC0280ED1E0AF8
:103F7000DFF8F45295ED020A38EEC00ADFED380A98
:103F8000B4EE600AF1EE10FA15DB95ED020A38EE98
:103F9000C00ADFED300AB4EE600AF1EE10FA0AD57D
:103FA0000020E0610020C5F88000DFF8B40201685D
:103FB000491C016048E09FED2B0AD5ED020A78EE1E
:103FC000E00AF4EE400AF1EE10FA11DBF1EE688A35
:103FD00095ED020A38EEC00A2000FEF751FDB1EE61
:103FE000400A85ED200A0020DFF8741208602BE0FB
:103FF000D5ED020A70EEE80AF4EE400AF1EE10FA8E
:1040000013DB9FED220A78EE808A95ED020A38EEE6
:10401000C00A2000FEF734FDB1EE400A85ED200A0B
:104020000020DFF83C1208600EE095ED020A38EE41
:10403000C00A2000FEF724FDB1EE400A85ED200AFB
:104040000020DFF81C120860FFF724F8BDEC048B99
:1040500031BD000090C2753C0AD7A3BC0BD7A33C6E
:104060008FC275BCDC0F4940740100202C01002078
:104070009A99993E9C530020343333333333E33FD2
:1040800050010020A053002033333340DB0FC940E0
:1040900000004040A8530020CDCCCC3F38B52DEDDA
:1040A000048BB0EE409AB0EE608AF0EE418A42F2A4
:1040B0001070744908606F4CF0EE089AC4ED009AD5
:1040C000714D95ED000A39EE400ADFED610AB4EE5C
:1040D000600AF1EE10FA17DB95ED000A39EE400A9E
:1040E000DFED5C0AB4EE600AF1EE10FA0CD562481E
:1040F0000021C161614901625B480021816760481C
:104100000168491C016032E000205D49086095EDBE
:10411000000A39EE400A10EE100A00F0BBF831F048
:1041200000415A4A5A4B02F0FDF80FD852485FF04E
:104130007F510162C0ED009A95ED000A39EE400A08
:10414000FEF79EFC484880ED1E0A10E00020A060AB
:1041500049485FF07F510162C0ED009A95ED000A79
:1041600039EE400AFEF78CFC3F4880ED1E0A3E4DBA
:1041700095ED020A38EEC00ADFED370AB4EE600AA8
:10418000F1EE10FA14DB95ED020A38EEC00ADFED0D
:10419000330AB4EE600AF1EE10FA09D50020E061AE
:1041A0000020C5F880002E480168491C016045E0E8
:1041B0009FED250AD5ED020A78EEE00AF4EE400AFA
:1041C000F1EE10FA10DBF1EE688A95ED020A38EE96
:1041D000C00A2000FEF754FCB1EE400A85ED200A2B
:1041E00000201F49086029E0D5ED020A70EEE80AB8
:1041F000F4EE400AF1EE10FA12DB9FED140A78EEAD
:10420000808A95ED020A38EEC00A2000FEF738FCDD
:10421000B1EE400A85ED200A0020114908600DE04A
:1042200095ED020A38EEC00A2000FEF729FCB1EE37
:10423000400A85ED200A002009490860FEF72AFFA0
:10424000BDEC048B31BD0000DC0F4940DB0FC940E1
:104250000AD7A3BC0BD7A33C8FC275BC90C2753CD8
:10426000A4530020B0530020E84C00200000204060
:10427000AC530020740100202C0100209A99993E33
:104280009C530020A0530020B45300203433333318
:104290003333E33FC0F3C75181B1FF2906D0C110CA
:1042A000400721F0E04101F16051704741020CBF2D
:1042B00040F4E0016FF000410020704700F0004141
:1042C00000020AD0B0FA80FC00FA0CF001F1605153
:1042D000A1EB0C5101EBD0214005704770B44FF0B9
:1042E000004591EA030F41F195876B40841A71EB09
:1042F000030604D26E40001BB141121973414FF402
:10430000001C1CEB410F34BF7CEB430683E00C0D1B
:10431000A4EB1356362E00F37C80012E45EAC3230E
:1043200041DC43EA525312BFD20292025B082405D9
:1043300045EAC12141EA5051D2EBC020994125D430
:1043400007D1B0FA80F610FA06F162D000202036CC
:1043500008E0B1FA81F6B140C6F1200220FA02F27B
:104360001143B0404FEAF474B4EB465434F0010604
:104370004FEA74040AD8D6F50016760D04F000440E
:10438000F04061FA06F25040F1404840C00A40EA6D
:10439000415021F0004128BF5FEA500550F1000074
:1043A00044EBD12135E0DB0A45EAC121C90AB6F167
:1043B00020050EDD42EA0242120CC5F1200603FA86
:1043C00006F6EB4042EA06056D42984161F10001B4
:1043D0000DE062FA06F5F240554063FA06FC82EA07
:1043E0000C02F3405A406D42904161EB030111F41D
:1043F000801F05D1641E620502D06D004041494115
:1044000021F48011430875F1004350F1000041EBA5
:10441000045170BC70471CEB410F15D223F00043D0
:1044200052EA43060BD04FEA4C0CBCEB410F04D8C8
:104430000C0D661E342EB7DDEBE7801A994150EA69
:10444000410608BF0021E4E708BF1CEB430F28BF6B
:104450006FF00001DDE7010001F000428B1AA3F1CB
:104460006051B1F5801F0ADBB1F17F6F1FD242EAC4
:10447000C102C10071F1004142EB507070470B1551
:10448000C3F10903212B10D2890241EA9051800225
:104490000128494141F0004121FA03F0C3F1200312
:1044A000994071F1004150417047100070476FF022
:1044B000000013EB103F5CBF000E42EAC050704793
:1044C0002DE9F0438EB0060037005FF0060CEE4693
:1044D00008784A7852EA00223800C0B20CFB00F09B
:1044E0002EF8002068463A00D2B20CFB02F21044CB
:1044F0008A78CB7853EA0223438068463A00D2B2E6
:104500000CFB02F210440A794B7953EA02238380B0
:104510005FF03008DFF8D0943800C0B208FB00F03C
:1045200009EB00023800C0B20CFB00F03EF800308E
:104530003800C0B208FB00F0484400891B1A1385FC
:104540003800C0B208FB00F04844B0F90800002869
:1045500006D13800C0B208FB00F0484400220285B2
:104560003800C0B208FB00F04844B0F9280040F61B
:10457000FF72904216DB3800C0B208FB00F04844DE
:10458000B0F9080000280DD03800C0B208FB00F0D8
:1045900048443A00D2B208FB02F24A44128DB2F506
:1045A000005202853800C0B208FB00F04844B0F960
:1045B0002800DFF83824904216DA3800C0B208FB31
:1045C00000F04844B0F9080000280DD03800C0B20F
:1045D00008FB00F048443A00D2B208FB02F24A4419
:1045E000128D12F5005202853800C0B208FB00F0AF
:1045F00048443A00D2B208FB02F24A44D2E90445E8
:104600003A00D2B208FB02F24A44B2F92820D3178A
:10461000A2186B41C0E904233800C0B208FB00F0C7
:1046200048443A00D2B20CFB02F23EF8022002816A
:1046300068463A00D2B20CFB02F2104440883A00BD
:10464000D2B208FB02F229F802003800C0B208FB1F
:1046500000F809EB08006A463B00DBB20CFB03FCE8
:104660006244928882800EB0BDE8F08310B5DFF816
:104670007843B4F93210B4F93000091A00EE101A78
:10468000B8EEC00ADFF86803FEF760F9B4F9360047
:1046900000EE900AF8EEE00A30EE800ABDEEC00AA5
:1046A00010EE100AE086B4F96210B4F96000091A3D
:1046B00000EE101AB8EEC00ADFF83803FEF746F92C
:1046C000B4F9660000EE900AF8EEE00A30EE800AD7
:1046D000BDEEC00A10EE100AA4F86600B4F99210FC
:1046E000B4F99000091A00EE101AB8EEC00ADFF80B
:1046F0000803FEF72BF9B4F9960000EE900AF8EEE5
:10470000E00A30EE800ABDEEC00A10EE100AA4F8EE
:104710009600B4F9C210B4F9C000091A00EE101ADC
:10472000B8EEC00ADFF8D402FEF710F9B4F9C600FB
:1047300000EE900AF8EEE00A30EE800ABDEEC00A04
:1047400010EE100AA4F8C600B4F9F210B4F9F000A3
:10475000091A00EE101AB8EEC00ADFF8A402FEF73C
:10476000F5F8B4F9F60000EE900AF8EEE00A30EE43
:10477000800ABDEEC00A10EE100AA4F8F600B4F9E3
:104780002211B4F92001091A00EE101AB8EEC00A7D
:10479000DFF87002FEF7DAF8B4F9260100EE900AAD
:1047A000F8EEE00A30EE800ABDEEC00A10EE100A04
:1047B000A4F82601B4F95211B4F95001091A00EE17
:1047C000101AB8EEC00ADFF84002FEF7BFF8B4F9DD
:1047D000560100EE900AF8EEE00A30EE800ABDEED7
:1047E000C00A10EE100AA4F85601B4F98211B4F907
:1047F0008001091A00EE101AB8EEC00A8348FEF7CD
:10480000A5F8B4F9860100EE900AF8EEE00A30EE61
:10481000800ABDEEC00A10EE100AA4F8860110BD91
:1048200018B589B04FF40070039000200590002067
:1048300006900820079000208DF82000684600218F
:104840000022C0E9001201242000C0B2092826DAA3
:10485000302065492200D2B242430A44B2F9062010
:1048600044F201039A4208DB2200D2B200FB02F0BC
:1048700008444FF48041C1800FE02200D2B242438D
:104880000A44B2F9062012F5804F06DA2200D2B2AD
:1048900000FB02F008445E49C180641CD4E7524822
:1048A000B0F9361009128DF800106946C28E4A70B0
:1048B000B0F9662012128DF80220B0F866208DF84B
:1048C0000320B0F9962012128DF80420B0F896203B
:1048D0008DF80520B0F9C62012128A71B0F8C60012
:1048E0008DF8070002AB6A4603A94A4801F0ACFE06
:1048F000002804D048480188491C0180F2E70AB02A
:1049000010BD18B589B040F2FF100390002005904B
:10491000002006900820079000208DF820006846AF
:1049200000210022C0E9001201242000C0B20928A1
:1049300026DA30202C492200D2B242430A44B2F98E
:10494000062044F201039A4208DB2200D2B200FBA7
:1049500002F008444FF48041C1800FE02200D2B23F
:1049600042430A44B2F9062012F5804F06DA2200CB
:10497000D2B200FB02F008442549C180641CD4E790
:104980001948B0F9F61009128DF800106946B0F810
:10499000F6204A70B0F9262112128DF80220B0F8E4
:1049A00026218DF80320B0F9562112128DF804202B
:1049B000B0F856218DF80520B0F9862112128A71BF
:1049C000B0F886018DF8070002AB6A4603A91148CA
:1049D00001F03AFE002804D00F480188491C0180EC
:1049E000F2E70AB010BD00001848002002F0FFFFF7
:1049F0000000002024000020480000206C0000205F
:104A000090000020B4000020D8000020FC0000200E
:104A100000C0FFFFA8510020245400202DE9F04FD2
:104A200085B006000F0090469946DDF838A00F9C2F
:104A3000109D002C07D1502080F31188BFF34F8FB9
:104A4000BFF36F8FFEE7002D07D1502080F3118850
:104A5000BFF34F8FBFF36F8FFEE75C20009000988D
:104A60005C2807D0502080F31188BFF34F8FBFF32D
:104A70006F8FFEE70098002D19D0002C17D0AB46A1
:104A8000CBF8304002208BF8590000200390CDF87D
:104A900008B004A80190CDF800A04B46424639006A
:104AA000300000F047F8584600F0B7F801E0002069
:104AB0000490049805B0BDE8F08F2DE9F84F84B05C
:104AC00006000F0090469946DDF838A0DDF83CB0AE
:104AD000404680B2800002F02BF80500002D0BD07C
:104AE0005C2002F025F80400002C01D0256304E0CE
:104AF000280002F0B1F800E00024002C15D00020BE
:104B000084F85900002003900294CDF804B0CDF849
:104B100000A04B46424692B23900300000F00AF83D
:104B2000200000F07AF8012001E05FF0FF3005B0CE
:104B3000BDE8F08F2DE9F94F81B00C0016000C9FF5
:104B40000D9DDDF83880B00000905FF0A50BD8F81F
:104B500030A05A460099504602F02EF9D8F830009D
:104B600000EB8600B0F1040A5FEADA0A5FEACA0ADB
:104B70001AF00700002807D0502080F31188BFF3F7
:104B80004F8FBFF36F8FFEE7002C15D000208146BA
:104B9000B9F1100F0CD214F8090008EB090181F8E3
:104BA000340014F80900002802D019F10109EFE7D8
:104BB000002088F8430002E0002088F83400382FF5
:104BC00001D337200700C8F82C70C8F84C700020BB
:104BD000C8F8500018F1040002F030F918F118007C
:104BE00002F02CF9C8F81080D7F13800C8F8180086
:104BF000C8F824800020C8F85400002088F8580025
:104C0000029A0199504602F057F9C8F80000002DA9
:104C100001D0C5F80080BDE8F78F38B5040002F078
:104C2000DBF9DFF82C140868401C0860DFF8245416
:104C30002868002806D12C60086801280DD100F0F2
:104C4000E9FA0AE0DFF810040068002805D1E06AFC
:104C50002968C96A884200D32C60DFF80004016823
:104C6000491C016000686064DFF8F4030168E26ACF
:104C7000914201D2E16A0160211DDFF8E823E36A75
:104C80001420434302EB030002F0DBF802F0BEF90C
:104C9000DFF8C403006800280DD02868C06AE16A04
:104CA000884208D25FF08050DFF89C140860BFF3A0
:104CB0004F8FBFF36F8F31BD38B505000024002D35
:104CC00015D0DFF868040068002807D0502080F372
:104CD0001188BFF34F8FBFF36F8FFEE700F060F8CE
:104CE0000021280000F084FB00F060F80400002C94
:104CF00008D15FF08050DFF850140860BFF34F8F89
:104D0000BFF36F8F31BD10B586B000200490002036
:104D1000039005AA03A904A8FCF72CFEDFF8A84617
:104D20000498029003980190002000900023059AB7
:104D3000DFF898160FF2B940FFF770FE2060206888
:104D4000002801D0012400E00024012C02D102F04F
:104D5000E1F90400012C16D1502080F31188BFF333
:104D60004F8FBFF36F8F5FF0FF30DFF8641608607E
:104D70000120DFF8E41208600020DFF8B4130860B7
:104D800002F0C3F80AE014F1010F07D1502080F3BC
:104D90001188BFF34F8FBFF36F8FFEE706B010BDD2
:104DA000DFF888030168491C01607047F8B50025E9
:104DB0000026DFF878432068002807D1502080F3D0
:104DC0001188BFF34F8FBFF36F8FFEE702F004F936
:104DD0002068401E20602068002857D1DFF870024C
:104DE0000068002852D0DFF8DC150868002827D0BA
:104DF000C868C068050015F1180002F049F8281DC0
:104E000002F046F8DFF858020168EA6A914201D2DE
:104E1000E96A0160291DDFF84C22EB6A1420434344
:104E200002EB030002F00DF8E86ADFF828120968C7
:104E3000C96A8842D7D30120DFF898150860D2E705
:104E4000002D01D000F054FADFF88C753C68002C7E
:104E50000CD000F023F8002803D00120DFF87415EF
:104E60000860641E002CF4D100203860DFF864056F
:104E7000006800280AD0012006005FF08050DFF8AB
:104E8000C8120860BFF34F8FBFF36F8F02F0BEF8F8
:104E90003000F2BDDFF89802006870472DE9F0415C
:104EA0000027A2480068002875D1DFF88402046852
:104EB000641C0460002C1CD1DFF820130868006813
:104EC000002807D0502080F31188BFF34F8FBFF325
:104ED0006F8FFEE7D1F80080DFF8100302680A60E8
:104EE000C0F80080DFF8F4040168491C016000F09C
:104EF000FFF9DFF8DC84D8F80000844238D3DFF80B
:104F0000DC1208680068002804D15FF0FF30C8F8A0
:104F100000002DE00868C068C068050068680600E9
:104F2000B44202D2C8F8006022E0281D01F0B0FFB0
:104F3000A86A002803D015F1180001F0A9FF48481D
:104F40000168EA6A914201D2E96A0160291D454A75
:104F5000EB6A1420434302EB030001F072FFE86A9E
:104F60003C490968C96A8842C9D301200700C6E7DD
:104F7000384800683B49C26A1420424388580228D6
:104F800001D301200700DFF84C040068002807D097
:104F90000120070004E0DFF840040168491C0160BB
:104FA0003800BDE8F08110B460480068002804D0E3
:104FB0000120DFF8201408602CE00020DFF8141432
:104FC0000860274A10681423264C03FB00F161583F
:104FD00000290BD1002807D1502181F31188BFF39C
:104FE0004F8FBFF36F8FFEE7401EECE703FB00F32C
:104FF00004EB03014B685B684B604B6811F10804DC
:10500000A34202D14B685B684B604968C968114B89
:105010001960106010BC704738B504000D00002CFA
:1050200007D1502080F31188BFF34F8FBFF36F8FEC
:10503000FEE7DFF8AC03006810F11801200001F072
:105040000CFF0121280000F0D3F931BD0000000061
:10505000E4530020D4530020F053002000540020DB
:10506000EC530020B43D002070B505000E00140084
:10507000002D07D1502080F31188BFF34F8FBFF36D
:105080006F8FFEE7DFF8D403006810F118012800E5
:1050900001F0D7FE002C02D05FF0FF3006002100A7
:1050A000300000F0A5F970BD38B50500E868C468A7
:1050B000002C07D1502080F31188BFF34F8FBFF32E
:1050C0006F8FFEE714F1180001F0E2FE1748006848
:1050D000002815D1201D01F0DBFEDFF80803016870
:1050E000E26A914201D2E16A0160211DDFF8F822F3
:1050F000E36A1420434302EB030001F0A2FE05E043
:1051000014F11801DFF8BC0201F09BFEDFF8D002B9
:105110000068C06AE16A884205D201200121DFF8F7
:10512000B422116000E0002032BD00000C540020C9
:10513000E8530020DFF8A41209680160DFF82013AB
:10514000096841607047000004ED00E02DE9F0417E
:1051500004000D00002C07D1502080F31188BFF30C
:105160004F8FBFF36F8FFEE7002D07D1502080F3E4
:105170001188BFF34F8FBFF36F8FFEE701F02CFF55
:10518000DFF8DC0206686768F71B286810F1010F7A
:1051900002D15FF000081BE0DFF8400200682168E0
:1051A000884205D06068864202D35FF001080FE0B4
:1051B0002868874208D22868C01B28602000FFF7B3
:1051C000B9FF5FF0000803E0002028605FF00108ED
:1051D00001F01CFF4046BDE8F0810000D8530020DC
:1051E0000120DFF8F011086070470000DC53002058
:1051F00010B5040000F039F8DFF8EC01006802286F
:10520000F8D35FF0805028490860BFF34F8FBFF399
:105210006F8FEFE770B50024382C09D2DFF8C80192
:10522000142101FB04F1084401F0F9FD641CF3E7CB
:10523000DFF83052280001F0F2FDDFF82C62300078
:1052400001F0EDFDDFF87C0101F0E9FDDFF81C0263
:1052500001F0E5FDDFF8180201F0E1FDDFF81402CE
:105260000560DFF81402066070BD38B5DFF80C5237
:105270002868002817D001F0AFFEDFF8F001C06801
:10528000C0680400201D01F003FEDFF8F40101688E
:10529000491E01602868401E286001F0B7FE20000A
:1052A00000F004F8E2E731BD04ED00E010B50400C1
:1052B00094F85900002806D1206B01F0CDFC2000A5
:1052C00001F0CAFC13E094F85900012803D1200032
:1052D00001F0C2FC0BE094F85900022807D05020DE
:1052E00080F31188BFF34F8FBFF36F8FFEE710BDC0
:1052F000DFF8802110680068002804D15FF0FF30DB
:10530000334A106006E01068C068C0680100486851
:105310002F4A10607047DFF86C010068002801D147
:10532000012007E0DFF8C4000068002801D1022056
:1053300000E00020704770B5040025000026002C16
:105340003ED0DFF89C000068854207D0502080F3F3
:105350001188BFF34F8FBFF36F8FFEE7286D0028D2
:1053600007D1502080F31188BFF34F8FBFF36F8FA9
:10537000FEE7286D401E2865E86AE96C88421FD068
:10538000286D00281CD1281D01F082FDE86CE86220
:10539000E86AD0F13800A861DFF848000168EA6ADD
:1053A000914201D2E96A0160291DDFF83C20EB6AD5
:1053B0001420434302EB030001F043FD01200600EB
:1053C000300070BD7C52002008540020D09E0008A0
:1053D00004540020F8530020F4530020FC53002014
:1053E000D4530020EC530020B43D00200C54002086
:1053F0002DE9F04105000C0019480768DFF85C80D2
:10540000D8F80000001D01F043FD15F1010F08D18F
:10541000002C06D0D8F80000011D154801F011FD40
:105420001AE0E8190600D8F800004660BE4207D22C
:10543000D8F80000011D1048006801F00EFD0BE0D7
:10544000D8F80000011D0B48006801F006FD0E4869
:1054500001688E4200D20660BDE8F081D45300207E
:10546000E85300205452002068520020905200203F
:10547000A4520020D8530020DC530020E053002029
:10548000E4530020F053002004540020B0B581EA1A
:10549000030C0CF0004C40F2FF7515EA11541DBFCF
:1054A00015EA1357AC42AF4239E0E41923EA4553F9
:1054B00043F48013C90241F0004141EA505EC70243
:1054C0001100A7FB020200284FF00000EEFB0120B4
:1054D0004FF00001E3FB072118BF42F00102401822
:1054E00000214941E3FB0E01A4F580640F0302D2C1
:1054F00052004041494154F101046CDD470872F10A
:10550000004250F1000051EB0451A1F580115CBF45
:1055100041EA0C01B0BD4CEA05510020B0BD05EADE
:105520001357AC4214BFAF4241E050EA410E1CBFDA
:1055300052EA430E02E061460020B0BD24423C44E2
:105540001BD15FEA070EF6D0090302BF0146002017
:10555000AEF1140EB1FA81F7AEEB070401FA07FEC3
:105560000C37C7F1200100FA07F7C8404EEA000ED9
:1055700023EA455343F48013A2E733F00043B3FA20
:1055800083F704BFB2FA82FE77440B3FE41BB7F106
:10559000200E2FBF02FA0EF3BB40C7F1200E22FAF5
:1055A0000EFE38BF43EA0E03BA40641C82E750EA9D
:1055B000410E14BF52EA430E6FF000014FF4001782
:1055C00017EB430F8ABF194617EB410FB5E74CEABB
:1055D00005510020B0BDD4F10104B4F120070FDA69
:1055E000C4F12007520828BF42F0010210FA07F563
:1055F00001FA07F7E1BF2A43E0403843E1400FE0FA
:10560000352C98DCC7F1200452EA400220FA07F258
:1056100018BF42F0010231FA07F0A1400A4300210D
:1056200072F1004250F1000051EB0C01B0BD0000DE
:10563000F0B540F2FF7581EA030C0CF0004C15EA5E
:1056400011541DBF15EA1357AC42AF42E5E0BC410F
:10565000C1F31301C3F31303801A994143F4801378
:1056600004D2641E4000494180185941C90241EAF0
:105670005051B1FBF3F603FB1611A2FB0675D7EBF5
:10568000C020A94102D2761E80185941C90241EAC0
:105690005051B1FBF3FE03FB1E11A2FB0E75D7EBBD
:1056A000C020A94103D2AEF1010E801859418902F0
:1056B00041EA9051760546EA8E2EB1FBF3F603FBE4
:1056C0001611A2FB0675D7EB8020A94102D2761EE7
:1056D00080185941C90241EA50514EEA060EB1FB09
:1056E000F3F603FB1611A2FB0675D7EBC020A94108
:1056F00002D2761E80185941C90241EA5051B1FBCD
:10570000F3F703FB1711A2FB0735D3EBC020A94128
:1057100067F100070CBF004247F0010766F3D52789
:105720004FEA1E31B80814F5806412DDBD0775F12B
:10573000004250EB0E5051EB045111F5801F5CBF3D
:1057400041EA0C01F0BD4CF07F6141F0E0410020E6
:10575000F0BDBD076D0840EA0E5041F48011D4F150
:105760000104B4F120060ADAC4F120060200E04088
:1057700001FA06F3E1401843B24015430EE0342C21
:1057800013DCC6F1200445EA40056D0820FA06F254
:10579000154321FA06F0A1400D43002175F10042A6
:1057A00050F1000051EB0C01F0BD00205FEA0C014C
:1057B000F0BDCFB992185B41B3FA83F704BFB2FAD8
:1057C00082F6BF190B3FB7F120062FBF02FA06F38E
:1057D000BB40C7F1200622FA06F638BF3343BA4071
:1057E0001CB1E419641E33E77F4231F00041B1FA85
:1057F00081F404BFB0FA80F6A4190B3CB4F1200682
:105800002FBF00FA06F1A140C4F1200620FA06F6E7
:1058100038BF3143A0403C1B1AE7AC421ABF05EA2F
:105820001357AF4212E050EA41061CBF52EA43064A
:10583000BFE750EA4107304661461CBF41EA0551C7
:10584000F0BD52EA430C08BFC143F0BD00204FF445
:10585000001616EB410F98BF16EB430F08BF16EB6F
:10586000410F24BFC14305E016EB430F0CBF614657
:105870004CEA0551F0BD0000C11768B14840401A1C
:10588000B0FA80F29040D21CC907C2F5846241EAA6
:10589000025202EBD02140057047000010B5DFF83E
:1058A000DC42DFF8DC0220605FF4E1306060002061
:1058B000A0600020E060002020610C2060610020DA
:1058C000A0610020E0612000FCF722FB002801D04D
:1058D00001F0FEFE0122DFF8AC122000FCF7BFFB56
:1058E00010BD80B5DFF8A002DFF8A01201605FF400
:1058F000E1314160002181600021C160002101612E
:105900000C214161002181610021C161FCF700FB94
:10591000002801D001F0DCFE01BD80B5DFF8700287
:10592000DFF870120160DFF87012416000218160C1
:105930004FF40051C1600021016104214161002147
:1059400081610021C161FCF7E3FA002801D001F078
:10595000BFFE01BD10B5DFF84442DFF8440220600D
:105960005FF4E13060600020A0600020E060002073
:1059700020610C2060610020A0610020E061200017
:10598000FCF7C6FA002801D001F0A2FE0122DFF8E0
:1059900014122000FCF763FB10BD10B586B00400A4
:1059A0006846142101F096FE20687549884248D166
:1059B000002005907C48016851F0100101600068EA
:1059C00010F01000059005980020059077480168B8
:1059D00051F002010160016811F002010591059981
:1059E00000210591016851F001010160006810F08B
:1059F0000100059005988020009002200190002071
:105A0000029003200390072004906946684801F043
:105A100065FE4FF40070009002200190002002907B
:105A200003200390072004906946624801F056FE67
:105A300000220521252002F00DF8252002F01FF894
:105A400099E02068514988422ED1002005905A489B
:105A5000016851F400310160006810F400300590D5
:105A60000598002005905148016851F00801016037
:105A7000006810F008000590059860200090022052
:105A800001900020029003200390072004906946B3
:105A90004A4801F023FE00220521262001F0DAFF0A
:105AA000262001F0ECFF66E020683A4988422FD1B9
:105AB000002005904048016851F480210160006891
:105AC00010F4802005900598002005903748016863
:105AD00051F004010160006810F004000590059881
