:020000040800F2
:10000000385A002039A10008A19D0008A39D0008CE
:10001000A59D0008A79D0008A99D000800000000FC
:100020000000000000000000000000005D8E0008DD
:10003000AB9D000800000000058E0008AD9D000883
:10004000D1A10008D5A10008D9A10008DDA10008B0
:10005000E1A10008E5A10008E9A10008EDA1000860
:10006000F1A10008F5A10008F9A10008FDA1000810
:1000700001A2000805A2000809A200080DA20008BC
:1000800011A2000815A2000819A20008C19D0008CD
:10009000CB9D00081DA2000821A20008D59D0008E4
:1000A00025A2000829A200082DA2000831A20008FC
:1000B00035A2000839A200083DA2000841A20008AC
:1000C00045A2000849A200084DA2000851A200085C
:1000D00055A20008DF9D0008E99D0008F39D000877
:1000E00059A200085DA2000861A2000865A20008EC
:1000F00069A200086DA2000871A2000875A200089C
:1001000079A200087DA2000881A2000885A200084B
:10011000FD9D000889A200088DA2000891A2000898
:1001200095A2000899A200089DA20008A1A20008BB
:10013000A5A20008A9A20008ADA20008079E000819
:10014000B1A20008119E0008B5A20008B9A20008DB
:10015000BDA20008C1A20008C5A200081B9E00089D
:10016000C9A20008CDA20008D1A20008D5A20008AB
:10017000D9A20008DDA20008E1A2000800000000EA
:10018000E5A20008E9A20008259E00082F9E0008AD
:10019000EDA20008F1A20008F5A20008F9A20008EB
:1001A0000000000000000000FDA2000880B501F082
:1001B0004BFA00F099F800F093FB00F023F900F0FF
:1001C00066F900F0C8FA00F0E9FA00F00AFB00F066
:1001D0002CFB00F046FB00F067FB00F0C5F900F0D7
:1001E0009EFA00F0D6F800F099F900F024FA01F038
:1001F00064FADFF8F02A00210FF6491001F088FABE
:10020000DFF8E41A0860DFF8E42A00210FF69D20E9
:1002100001F07EFADFF81C1C0860DFF81C2C0021BE
:100220000FF6A52001F074FADFF8101C0860DFF863
:10023000102C00210FF66D4001F06AFADFF8041C63
:100240000860DFF8042C0021DFF8000C01F060FAF0
:10025000DFF8FC1B0860DFF8FC2B0021DFF8F80B4F
:1002600001F056FADFF8F41B0860DFF8F42B0021E8
:10027000DFF8F00B01F04CFADFF8EC1B0860DFF858
:10028000EC2B0021DFF8E80B01F042FADFF8E41B69
:100290000860DFF8E42B0021DFF8E00B01F038FA0A
:1002A000DFF8DC1B0860DFF8DC2B0021DFF8D80B5F
:1002B00001F02EFADFF8D41B0860DFF8D42B002100
:1002C000DFF8D00B01F024FADFF8CC1B0860DFF870
:1002D000CC2B0021DFF8C80B01F01AFADFF8C81D9B
:1002E000086001F0FDF9FEE780B592B006A8302164
:1002F00001F0A4FA01A8142101F0A0FA0020009056
:10030000DFF89C0C016851F080510160006810F02A
:1003100080500090009800200090DFF8900D016858
:1003200031F4404151F400410160006810F4404054
:1003300000900098012006905FF480300790022022
:100340000C905FF480000D9006200E9080200F909E
:10035000022010900420119006A801F0AFFA0028A6
:1003600001D001F06FF90F200190022002900020CF
:1003700003904FF4A05004904FF480500590042156
:1003800001A801F091FC002801D001F05BF913B045
:1003900000BD1FB56846102101F050FADFF8044C8B
:1003A000DFF8040C2060002060600020A0600020C6
:1003B000206100202076002084F820000020E062E8
:1003C000DFF8EC0CA0620020E0600120E06100207A
:1003D00084F8300001206061200001F07BFD0028DE
:1003E00001D001F02FF900200090012001900020A1
:1003F00002906946200001F0A0FD002801D001F024
:1004000021F91FBD10B58AB0DFF8704CDFF8A40CDD
:100410002060042060600020A0600020E0605FF4A5
:10042000802020615FF48010606100202076002031
:1004300060760020A0760020E07600202077002063
:100440006077200001F0FAFE002801D001F0FAF8F0
:1004500001200890002006900120079000200090C5
:1004600000200190002002900020039000200590C1
:10047000002004906946200001F096FF200002F061
:1004800027F80221200002F09BF90AB010BD10B538
:100490008AB0DFF8244CDFF8240C20600420606070
:1004A0000020A0600020E0605FF4802020615FF405
:1004B0008010606100202076002060760020A07609
:1004C0000020E0760020207700206077200001F0F7
:1004D000B5FE002801D001F0B5F8012008900020F9
:1004E000069001200790002000900020019000203D
:1004F0000290002003900E2005900E20099001200C
:1005000004906946200001F04FFF200001F0E0FF59
:100510001021200002F054F90AB010BD80B5DFF8B8
:10052000A00BDFF8D81D01604FF4827141600021FB
:1005300081604FF40061C1600221016100214161CD
:100540004FF4007181610021C1610021016200212D
:100550004162002181620A21C16202F05DFA002835
:1005600001D001F06FF801BD18B589B0DFF8540B68
:10057000D0E90023CDE9002302A81C2101F05EF997
:10058000DFF8444BDFF8780D20601F20606000200A
:10059000A06049F63F40E060002020610020A0619B
:1005A000200002F069FD002801D001F04BF8002086
:1005B0000090002001906946200002F0F9FF002819
:1005C00001D001F03FF86020029040F2D660039025
:1005D0000020049000200690002202A9200002F0D2
:1005E00017FE002801D001F02DF84FF46160039050
:1005F000042202A9200002F00BFE002801D001F025
:1006000021F84FF47A700390082202A9200002F02A
:10061000FFFD002801D001F015F80C2202A92000EE
:1006200002F0F6FD002801D001F00CF8200003F0E4
:100630009AF90AB010BD18B591B0DFF8900AD0E968
:100640000023CDE9002302A81C2101F0F7F809A836
:10065000202101F0F3F8DFF8784ADFF8740D20600C
:1006600040F2FF4060600020A06040F2CF70E06088
:1006700000202061002060610020A061200002F0C5
:10068000FBFC002801D000F0DDFF002000900020DE
:1006900001906946200002F08BFF002801D000F095
:1006A000D1FF602002907120039000200490002070
:1006B000059000200690002007900020089004225A
:1006C00002A9200002F0A4FD002801D000F0BAFF2A
:1006D00091200390082202A9200002F099FD002831
:1006E00001D000F0AFFF0020099000200A90002008
:1006F0000B9000200C9000200D904FF400500E90B5
:100700000020109009A9200002F0A8FF002801D0C5
:1007100000F098FF200003F026F912B010BD80B55C
:10072000DFF8E00BDFF87C1D01605FF4E131416030
:10073000002181600021C160002101610C21416123
:10074000002181610021C16103F01EFB002801D05E
:1007500000F078FF01BD10B5DFF8AC4BDFF8AC0B53
:1007600020605FF4E13060600020A0600020E06065
:10077000002020610C2060610020A0610020E06169
:10078000200003F001FB002801D000F05BFF0122F4
:10079000DFF8141D200003F09EFB10BD10B5DFF83C
:1007A000704BDFF8700B20605FF4E1306060002078
:1007B000A0600020E060002020610C20606100202B
:1007C000A0610020E061200003F0DEFA002801D0E3
:1007D00000F038FF0122DFF8D41C200003F07BFB7F
:1007E00010BD10B5DFF8EC4BDFF8EC0B2060DFF844
:1007F000EC0B60600020A0604FF40050E06000202F
:100800002061042060610020A0610020E0612000E0
:1008100003F0BAFA002801D000F014FF0122DFF83B
:10082000041E200003F057FB10BD80B5DFF8B00BAD
:10083000DFF8F41D01604FF4165141600021816022
:100840000021C160002101610C2141610021816111
:100850000021C16103F098FA002801D000F0F2FEF7
:1008600001BD10B5DFF87C4BDFF87C0B20605FF436
:10087000E13060600020A0600020E0600020206186
:100880000C2060610020A0610020E061200003F0E6
:100890007BFA002801D000F0D5FE0122DFF88C1D84
:1008A000200003F018FB10BD80B5DFF8040CDFF862
:1008B000041C0160DFF8781D416000218160002187
:1008C000C160002101610C21416100218161002191
:1008D000C16103F059FA002801D000F0B3FE01BD58
:1008E0002DE9F84386B06846142100F0A7FF0020E8
:1008F0000590DFF8C40B016851F010010160016838
:1009000011F010010591059900210591016851F040
:1009100040010160016811F0400105910599002135
:100920000591016851F002010160016811F00201B6
:100930000591059900210591016851F008010160B8
:10094000016811F0080105910599002105910168E0
:1009500051F004010160016811F00401059105994D
:1009600000210591016851F480710160016811F462
:1009700080710591059900210591016851F02001D0
:100980000160016811F02001059105990021059190
:10099000016851F080010160016811F0800105914A
:1009A000059900210591016851F00101016000687D
:1009B00010F0010005900598DFF8AC4B00224FF4D1
:1009C0000071200004F011F9DFF8A05B0022032180
:1009D000280004F00AF9DFF8986B00223C2130006F
:1009E00004F003F9DFF88C7B00223D21380004F08D
:1009F000FCF801220221380004F0F7F8DFF8788BC8
:100A000000221021404604F0F0F8DFF8709B00222D
:100A10000221484604F0E9F80420009000200190EB
:100A2000002002906946200003F0B4FF4FF40070EC
:100A3000009001200190022002900020039069465E
:100A4000200003F0A7FF0320009001200190022066
:100A50000290002003906946280003F09BFF3C2091
:100A6000009001200190022002900020039069462E
:100A7000300003F08FFF4FF44040009002200190BF
:100A80000020029000200390022004906946DFF8C5
:100A9000A40B03F07FFF3F20009001200190002075
:100AA0000290002003906946380003F073FF402055
:100AB0000090022001900020029000200390092065
:100AC00004906946300003F065FF0E20009002207C
:100AD00001900020029000200390012004906946BC
:100AE000404603F057FF10200090012001900020A5
:100AF0000290002003906946404603F04BFF2020FF
:100B000000905FF404100190012002906946404675
:100B100003F040FF0220009001200190002002908D
:100B2000002003906946484603F034FF0022052167
:100B3000172004F013F9172004F025F907B0BDE8D9
:100B4000F083000038B50400DFF8340A0178012989
:100B500040F0A880DFF82C1ADFF8DC2A13785578EB
:100B600053EA05235B055B0D0B805378DBB2DB0892
:100B7000DBB2957853EA45135B055B0D4B809378A8
:100B8000DBB29B09DBB2D57853EA8503157953EACA
:100B900085235B055B0D8B801379DBB25B08DBB2D1
:100BA000557953EAC5135B055B0DCB805379DBB2F6
:100BB0001B09DBB2957953EA05135B055B0D0B81CD
:100BC0009379DBB2DB09DBB2D57953EA4503157AB9
:100BD00053EA45235B055B0D4B81137ADBB29B081F
:100BE000DBB2557A53EA85135B055B0D8B81537A33
:100BF000DBB25B09DBB2957A53EAC503CB81D37ACA
:100C0000157B53EA05235B055B0D0B82137BDBB27F
:100C1000DB08DBB2557B53EA45135B055B0D4B826A
:100C2000537BDBB29B09DBB2957B53EA8503D57B13
:100C300053EA85235B055B0D8B82D37BDBB25B08BC
:100C4000DBB2157C53EAC5135B055B0DCB82137CCD
:100C5000DBB21B09DBB2557C53EA05135B055B0D68
:100C60000B83537CDBB2DB09DBB2957C53EA450393
:100C7000D57C53EA45235B055B0D4B83D37CDBB20C
:100C80009B08DBB2157D53EA85135B055B0D8B83F7
:100C9000137DDBB25B09DBB2527D53EAC203CB8327
:100CA00000210170012000F0A5FD4DE710B5040002
:100CB00004F033FA04F05AF904F030FA04F09BFA25
:100CC000012000F097FDF3E710B50400DFF8B40849
:100CD0000088002801D004F097FB012000F08AFD75
:100CE000F4E700009C9E000898550020C09E000874
:100CF0002DE9F8432DED088BB0EE409AF0EE609AA6
:100D0000B0EE41AAF0EE61AAB0EE428AF0EE628A3D
:100D10009FEDDB1BB0EE4A0AF0EE6A0A04F099FC84
:100D2000B0EE40BAF0EE60BA53EC1A2B51EC1A0B4D
:100D300004F0B4FC53EC1A2B04F0B0FC02000B00DE
:100D40000020DFF8441804F07BFD04000D0053EC94
:100D5000182B51EC180B04F0A1FC53EC182B04F0E9
:100D60009DFC22002B0004F099FC04000D0053ECC4
:100D70001A2B51EC1A0B04F091FC06000F0053ECF7
:100D80001A2B51EC1A0B04F089FC32003B0004F0E2
:100D900085FC02000B000020DFF8F01704F050FD86
:100DA00006000F0053EC182B51EC180B04F076FCE6
:100DB0008046894653EC182B51EC180B04F06EFC5E
:100DC00042464B4604F06AFC32003B0004F066FCED
:100DD00002000B002000290004F056FE04000D0064
:100DE0000020DFF8AC1753EC1B2B04F029FD0600A4
:100DF0000F009FEDA31BB0EE480AF0EE680A04F066
:100E000028FC51EC100B32003B0004F047FC2200A0
:100E10002B0004F0ABFE41EC100B53EC102B51EC0B
:100E2000190B04F03BFC41EC100BBDEC088BBDE84A
:100E3000F18300009C550020E49E0008A05500208E
:100E4000089F0008A45500202C9F0008AD0F000843
:100E5000A8550020509F000889100008AC550020BC
:100E6000749F0008D5100008B0550020989F000816
:100E700019130008B4550020BC9F0008ED130008AA
:100E8000B8550020E09F0008F9130008BC55002069
:100E900004A0000805140008C055002028A0000880
:100EA000BD1400082DE9F0478246DFF8E84601202E
:100EB000208400206084DFF8E0562900200005F03F
:100EC0005EF8DFF8D886A86B05F0C6F8C8E900011F
:100ED000DFF8CC660020DFF8CC16C6E90001DFF8A9
:100EE000C89600200021C9E90001DFF8C076D7E9E3
:100EF0000001D6E9002305F0D3F840D20120208478
:100F000001206084DFF8A80620630020606397ED6D
:100F1000002B96ED001B99ED000BFFF7E9FE53EC5B
:100F2000102BDFF89006DFF8901604F0B7FB0022D4
:100F3000DFF8883604F084FCDFF88426DFF8843696
:100F400004F0ACFBD8E9002304F010FE05F0C0F873
:100F5000E0620020A062002060622900200005F00D
:100F60000EF8D7E90023DFF86006DFF8D01604F0AA
:100F7000FDFDC7E90001012000F03CFC0CE0012070
:100F80002084002060842900200004F0F8FFA86B72
:100F900005F062F8C8E90001012000F02BFCA4E78D
:100FA000403802400050002000200140F8B5070002
:100FB000454C0C21200002F096F8DFF8B8550022CD
:100FC0001021280003F011FE40F6B83021680864B3
:100FD000DFF8F865307800284BD040F21A402168DD
:100FE00008644FF4FA7000F005FC0022102128007C
:100FF00003F0FBFD4FF4FA7000F0FCFBDFF8D005C6
:10100000B0F9000021680864002030704FF47A7055
:1010100000F0F0FBDFF8BC05DFF8BC15097800EB49
:10102000810090ED000AB1EE400A10EE100A05F0C2
:1010300013F8DFF87425C2E90001DFF870650020BD
:101040000021C6E90001D6E90001DFF85425D2E904
:10105000002305F025F803D2012000F0CBFBF2E7D6
:1010600001221021280003F0C0FD0120DFF88815BF
:101070000870012000F0BEFBAAE70000F05300203A
:10108000000000000000144038B50400DFF84C55A3
:101090000821280002F027F84FF496602968C863F9
:1010A000052000F0A7FBFBE7C455002000700040BE
:1010B0000100000F00640040185400200068004048
:1010C000584F002090A100084850002098A1000827
:1010D000905000202DE9F8438146DFF800450421B7
:1010E000200002F000F80021200001F0FCFFDFF8F2
:1010F000F0540421280001F0F6FF0821280001F037
:10110000F2FF41F2883000F075FBDFF8D884DFF899
:101110008C74D7E9000104F0DBFFC8F80000DFF8A9
:101120008863307801280ED14FF4D7602168886336
:101130004FF482502168486340F6C4102168086467
:1011400000203070D5E03078022807D1DFF898040D
:101150000178491C017000203070CAE03078042802
:1011600006D10020DFF88414087000203070C0E041
:101170003078032806D10120DFF8701408700020B1
:101180003070B6E03078052806D10120DFF8601411
:10119000087000203070ACE03078062806D10020BE
:1011A000DFF85014087000203070A2E03078072873
:1011B0000FD1872029688863AF202968C863C820B9
:1011C00000F018FB0420DFF82C14087000203070A9
:1011D0008FE03078082806D10120DFF8F01308707E
:1011E0000020307085E03078092863D1002030700D
:1011F000DFF804140878002803D1012000F0FAFA7F
:10120000F6E700200870DFF8F463DFF8CC03DFF8BE
:10121000F013027831F812107186DFF8E8130278C3
:1012200031F81210A6F86210DFF8DC13007831F9FB
:1012300010004042A6F892004FF4FA7000F0DAFA7B
:1012400040F24A702168C86340F2DC5000F0D2FAE4
:10125000002070860020A6F862000020A6F8920008
:101260004FF496602168C863D8F8000004F0F4FEDB
:10127000D7E9002304F008FC0022D04B04F00EFA5A
:10128000DFF88823DFF8883304F0DAFAC64AC2E9C7
:101290000001C64E00200021C6E90001D6E9000188
:1012A000BF4AD2E9002304F0FBFE22D2012000F065
:1012B000A1FAF3E730780A2809DB3078162806DA35
:1012C00030780A38C44908700020307011E0307856
:1012D00016280ED101221021A64803F086FC4FF4F7
:1012E00061602168886340F2D6602168486300200D
:1012F0003070012000F07EFA11E700000034014058
:10130000000C004020510020645100200078004073
:10131000A8510020007C004070B5040004219248D0
:1013200003F058FC002821D1B04D287800281DD1A9
:101330000120B049087001220221904803F055FCB9
:101340008C4E01220121300003F04FFC4FF49670C7
:1013500000F050FA01220421300003F046FC012283
:101360000821300003F041FC012028709E4D2878B0
:10137000012811D19D48007801280DD100220421B7
:101380007C4803F032FC4FF4FA7000F033FA00228C
:1013900002217A4803F029FC2878022814D19348C6
:1013A0000078012810D1734E00220821300003F08C
:1013B0001CFC4FF4FA7000F01DFA002201213000ED
:1013C00003F013FC00202870012000F013FAA5E7B9
:1013D00000040140EC51002000100140A0860100F3
:1013E00030520020745200200048004010B5040024
:1013F000052000F0FFF9FBE710B50400012000F024
:10140000F9F9FBE770B504005B4E002210213000B3
:1014100003F0EBFB574D01222021280003F0E5FBF0
:1014200001220221280003F0E0FB012210213000FC
:1014300003F0DBFB00BF00BF00BF00BF00BF002206
:101440001021300003F0D1FB00222021280003F0FE
:10145000CCFB00200100C9B2082902DA00BF401C01
:10146000F8E701222021280003F0BFFB744E3078FA
:10147000002813D000222021280003F0B6FB002012
:101480000100C9B2102902DA00BF401CF8E70122AE
:101490002021280003F0A9FB00203070012000F07B
:1014A000A9F9E3E7004C0040265600202055002013
:1014B000B8520020001401403038024070B52DEDC4
:1014C000028B0400534D9FED548B554ED6F83C02D1
:1014D00004F0C2FD53EC182B04F0E0F80022374B67
:1014E00004F0AEF904F0F4FD2860D6F8240204F00C
:1014F000B3FD53EC182B04F0D1F800222F4B04F06D
:101500009FF904F0E5FD68601E4DB5F90C0000B2CE
:1015100003F0FEFE00280ED101221021154803F031
:1015200064FB2E484FF461610268916340F2D6611A
:101530000068416314E0B5F90C0000B203F0E8FE66
:1015400002280DD1002210210A4803F04EFB234847
:101550004FF4D761026891634FF482510068416390
:10156000012000F047F9ADE70020024000140240DE
:10157000001C02400008024000000240000402403B
:101580002A560020405400200000244000002E4035
:1015900000001840305300207053002058550020A0
:1015A0006855002000000840605500200000002021
:1015B000CDCC4C3F1F85EB51B81E094000806640E2
:1015C00052B81E85EB5119407B14AE472C560020B3
:1015D0008C010020080100202D56002048500020DA
:1015E00090500020905500202756002028560020BB
:1015F0008E0100202B5600202E560020F84B002094
:1016000038010020680100205001002055C1A8A425
:101610004EE03340705500207A008BFCFA210940DF
:10162000F045002031560020004400403256002092
:1016300000093D00000C0240FC520020E17A843F8A
:101640002956002072B6FEE780B50B48016851F4B8
:1016500000710160016851F480610160016851F41A
:1016600080710160032003F073FB0F2004F064FD20
:1016700002F022F8002002BD003C024010B402003B
:1016800052B2002A06D40A01DFF88C31040064B299
:101690001A5509E00A01DFF88431040064B214F03D
:1016A0000F04234403F8042C10BC704780B50021BC
:1016B0007FF00400FFF7E2FF01BDEFF30580002893
:1016C00002D07FF005000AE0DFF854110868002816
:1016D00003D101200860002001E05FF0FF30704777
:1016E00010B5EFF30580002802D07FF005000EE072
:1016F000DFF82C412068012807D1FFF7D7FF02202F
:10170000206004F0B4FE002001E05FF0FF3010BD67
:101710002DE9FF4707008846140000200390EFF3EF
:101720000580002862D1380000285FD080208246E2
:1017300018200500002081465FF0FF300600002CD5
:1017400033D02068002801D020688146A069002895
:1017500001D0A0690500002D04D0392D02D22079D6
:10176000C00701D5002042E06069002802D060690E
:1017700080088246A06800280BD0E0685C2808D367
:101780002069002805D06069002802D001200600E9
:101790000DE0A06800280AD1E068002807D1206980
:1017A000002804D10020060001E000200600012EE0
:1017B0000CD1A068029020690190009543465246E2
:1017C0004946380004F0DEFC03900FE0002E0DD1F6
:1017D00003A8019000954346524692B2494638000C
:1017E00004F01FFD012801D000200390039804B0ED
:1017F000BDE8F08738B50400EFF30580002802D07B
:101800007FF0050505E00025002C02D0200004F043
:1018100007FE280032BD000000E400E018ED00E003
:1018200054550020034B0360034B0B60802313606F
:10183000704700BF484E002048480020002205F0B5
:10184000D9B9F0B40246106895681318506803EBD4
:101850005004C0071DD54D441BE013F8017B05F86B
:10186000017B491EF9D1A0B1B60813F8011B06F09F
:101870000306032E08BF13F8016B01EB0621494252
:10188000801C294405D011F8016B05F8016B401E3E
:10189000F9D1A3420ED013F8016B16F0030104BF77
:1018A00013F8011BC91C30090F28DAD113F8010BFA
:1018B0000F30D6E7F0BC02F10C0070472DE9F84379
:1018C0000400002C01D10120D8E12078C0075FD5A9
:1018D000DFF8AC03016811F00C01042909D000689D
:1018E00010F00C0008280ED1DFF8980300684002C1
:1018F00009D5DFF894030068800349D560680028A3
:1019000046D10120BAE16068B0F5803F06D1DFF82A
:101910007803016851F48031016018E06068B0F527
:10192000A02F0AD1DFF86003016851F48021016023
:10193000016851F48031016009E0DFF84C0301686F
:1019400031F480310160016831F480210160606808
:1019500000280ED005F068F90500DFF82C030068B8
:10196000800315D405F060F9401B6528F5D30320EA
:1019700084E105F059F90500DFF80C0300688003E5
:1019800006D505F051F9401B6528F5D3032075E114
:10199000207880074CD5DFF8E802016811F00C0FC1
:1019A00008D0006810F00C00082814D1B548006871
:1019B000400210D4B4480168890704D5E1680129C0
:1019C00001D001205AE1016831F0F801226951EAA1
:1019D000C20101602CE0E068002818D00120AB496A
:1019E000086005F021F90500A7480168890706D4B9
:1019F00005F01AF9401B0328F6D303203EE10168E5
:101A000031F0F801226951EAC201016010E00020C2
:101A10009E49086005F008F905009B4800688007AA
:101A200006D505F001F9401B0328F6D3032025E174
:101A30002078000724D56069002810D0012094493F
:101A4000086005F0F1F8050092480068800717D497
:101A500005F0EAF8401B0328F6D303200EE100202E
:101A60008B49086005F0E0F805008A4800688007A7
:101A700006D505F0D9F8401B0328F6D30320FDE076
:101A8000207840077CD50027DFF80C82D8F80000CA
:101A9000C0000FD400200090D8F8000050F0805013
:101AA000C8F80000D8F8000010F0805000900098AE
:101AB00001200700DFF8E491D9F80000C00513D435
:101AC000D9F8000050F48070C9F8000005F0ACF8B7
:101AD0000500D9F80000C00506D405F0A5F8401BA4
:101AE0000328F6D30320C9E0A068012805D16C487B
:101AF000016851F00101016015E0A068052809D1D5
:101B00006748016851F004010160016851F001016A
:101B1000016008E062480168490849000160016805
:101B200031F004010160A06800280FD005F07CF8B6
:101B300005005B480068800718D405F075F8401B65
:101B400041F289318842F4D3032097E005F06CF824
:101B5000050053480068800708D505F065F8401B6C
:101B600041F289318842F4D3032087E03800C0B2C3
:101B7000012805D1D8F8000030F08050C8F80000E6
:101B8000A069002879D03E48006810F00C000828B1
:101B900047D0A069022833D1424F0020386005F0B9
:101BA00043F88046DFF8E090D9F80000800107D5BF
:101BB00005F03AF8B0EB08000328F3D303205DE00A
:101BC000E169206A0143606A51EA8011A06A400815
:101BD000401E51EA0041E06A51EA00612948016073
:101BE0000120386005F020F80500D9F800008001D8
:101BF00043D405F019F8401B0328F6D303203DE039
:101C000000202849086005F00FF805001E4800680C
:101C1000800132D505F008F8401B0328F6D30320D5
:101C20002CE0A069012801D1012027E015480068B7
:101C30000600A06901281ED016F48000E1698842E0
:101C400019D116F03F00216A884214D147F6C070BE
:101C50003040616AB0EB811F0DD116F44030A16AAB
:101C60004908491EB0EB014F05D116F07060E16ADA
:101C7000B0EB016F01D0012000E00020BDE8F2834D
:101C80000838024004380240003802400000474251
:101C9000800E4742743802404038024000700040D5
:101CA00070380240600047422DE9F04104000D0009
:101CB000002C01D1012095E0584F386810F00F003A
:101CC000A84207D23D70386810F00F00A84201D03A
:101CD000012087E02078800716D52078400704D5BA
:101CE0004F48016851F4E05101602078000704D5A5
:101CF0004B48016851F46041016049490A6832F07B
:101D0000F002A06802430A602078C00738D56068F6
:101D1000012805D143480068800313D4012061E005
:101D20006068022802D06068032805D13D48006839
:101D3000800107D4012055E03A480068800701D4AB
:101D400001204FE0DFF8D880D8F80010890889001A
:101D500060680143C8F8001004F066FF0600D8F878
:101D6000000010F00C006168B0EB810F08D004F0A7
:101D70005BFF801B41F289318842F0D3032031E0C0
:101D8000386810F00F00854207D23D70386810F0B7
:101D90000F00A84201D0012024E02078400706D59A
:101DA0001F490A6832F4E052E06802430A60207872
:101DB000000707D51A48016831F46041226951EAE9
:101DC000C201016000F038F81749154A1268C2F3E1
:101DD0000312895CC840154908601548006804F082
:101DE000ABF90020BDE8F08110480068704780B56D
:101DF000FFF7FAFF0F490A4A1268C2F38222895C90
:101E0000C84002BD80B5FFF7EFFF0A49044A1268D7
:101E1000C2F34232895CC84002BD0000003C02406F
:101E2000083802400038024028A10008880100203C
:101E300084010020A0A100082DE9F0410024002524
:101E4000002600271F48006810F00C00002804D06E
:101E5000042804D0082804D031E01B4830E01B4897
:101E60002EE0DFF86C80D8F8000010F03F0004008E
:101E7000D8F8000040020CD5D8F80000C0F3881054
:101E80001249A1FB00012200002304F0D3FE05004B
:101E90000BE0D8F80000C0F388100B49A1FB00014B
:101EA0002200002304F0C6FE0500D8F80000C0F3AD
:101EB0000140401C40000600B5FBF6F000E002487F
:101EC000BDE8F081083802400024F400001BB70090
:101ED0000438024038B504000025002C01D101204F
:101EE0002AE0A06ADFF83C138842206C002807D162
:101EF000200001F003FC00206064002084F83C0016
:101F0000206CC00611D4206C30F4885050F00200D0
:101F10002064200000F0D8F800206064206C30F0CD
:101F2000020050F00100206401E0012005000020C3
:101F300084F83C002800C0B232BD38B40200002052
:101F4000009092F83C00012801D10220BAE0012063
:101F500082F83C0008680A2818D31068C368072470
:101F600008680A38032510FB05F08440A343106875
:101F7000C3601068C3688C6808680A38032510FBC2
:101F800005F0844023431068C36013E010680369C0
:101F900007240D6803204543AC40A3431068036148
:101FA000106803698C680D6803204543AC402343E7
:101FB000106803614868072818D21068436B1F2413
:101FC0004868401E052510FB05F08440A3431068B7
:101FD00043631068436B0C884868401E052510FB5E
:101FE00005F0844023431068436333E048680D28BC
:101FF00018D21068036B1F244868C01F052510FB0A
:1020000005F08440A343106803631068036B0C88D9
:102010004868C01F052510FB05F084402343106865
:10202000036317E01068C36A1F2448680D3805254C
:1020300010FB05F08440A3431068C3621068C36AB4
:102040000C8848680D38052510FB05F084402343B3
:102050001068C362764B7748146884420AD10C68D2
:10206000122C07D15C6834F400045C605C6854F4A2
:1020700080045C601468844220D16F480C688442FC
:1020800002D00C68112C19D15C6834F480045C60B7
:102090005C6854F400045C600C6884420ED16248B1
:1020A0000068624CB0FBF4F40A20444300940098AA
:1020B000002803D00098401E0090F8E7002082F826
:1020C0003C00002032BC7047594A516831F440311D
:1020D0005160536841680B4353600168496831F4AB
:1020E00080710368596001684968036951EA0321F6
:1020F000036859600168496831F0407103685960AC
:1021000001684B6881680B4301684B60016889680E
:1021100031F400610368996001688B68C1680B4302
:1021200001688B60816A3F4B994218D001688968C9
:1021300031F070610368996001688B68816A0B43B4
:1021400001688B600168896831F0405103689960CB
:1021500001688B68C16A0B4301688B600BE0016802
:10216000896831F07061036899600168896831F0AD
:102170004051036899600168896831F00201036881
:10218000996001688968037E51EA43010368996098
:1021900090F82010002914D00168496851F40061BA
:1021A000036859600168496831F460410368596007
:1021B00001684968436A5B1E51EA4331036859600C
:1021C00005E00168496831F40061036859600168FD
:1021D000C96A31F470010368D9620168C96AC369C8
:1021E0005B1E51EA03510368D9620168896831F4C2
:1021F0000071036899600168896890F8303051EA8D
:102200004321036899600168896831F4806103683B
:10221000996001688968436951EA8321036899607C
:10222000704700000100000F8801002040420F00AD
:1022300000230140002001401200001070B504008E
:10224000002C01D10120AEE094F82000002802D13A
:10225000200001F086FA2068006850F00100216833
:10226000086004F0E1FC050020684068C0070DD458
:1022700004F0DAFC401B0B28F6D3606A50F40030FF
:102280006062052084F8200001208CE0206800684E
:1022900030F002002168086004F0C6FC06002068E7
:1022A000406880070DD504F0BFFC801B0B28F6D3D7
:1022B000606A50F400306062052084F8200001203C
:1022C00071E0207E012806D12068006850F080006F
:1022D0002168086005E02068006830F0800021680F
:1022E0000860607E012806D12068006850F0400038
:1022F0002168086005E02068006830F0400021682F
:102300000860A07E012806D12068006850F02000F7
:102310002168086005E02068006830F0200021682E
:102320000860E07E012806D12068006830F01000C7
:102330002168086005E02068006850F010002168FE
:102340000860207F012806D12068006850F008004E
:102350002168086005E02068006830F00800216806
:102360000860607F012806D12068006850F00400F2
:102370002168086005E02068006830F004002168EA
:102380000860A168E0680143206901436069014376
:102390006068401E01432068C16100206062012026
:1023A00084F82000002070BDF0B40200146892F898
:1023B00020301800C0B2012804D01800C0B2022892
:1023C00040F07F80594DD5F8000250F00100C5F86B
:1023D0000002D5F8000230F47C50C5F80002D5F8B0
:1023E00000024E6A50EA0620C5F8000201200E7D68
:1023F00016F01F0610FA06F6D5F81C02B043C5F811
:102400001C02C869002816D1D5F80C02B043C5F8E3
:102410000C02486905EBC000CC684F68C7EA044469
:10242000C0F84042486905EBC0008C680F68C7EAF5
:102430000444C0F84442C869012816D1D5F80C02FA
:102440003043C5F80C02486905EBC0000C684F68C2
:10245000C7EA0444C0F84042486905EBC0008C68F4
:10246000CF68C7EA0444C0F844428869002805D10F
:10247000D5F80402B043C5F8040204E0D5F804021C
:102480003043C5F804020869002805D1D5F81402C4
:10249000B043C5F8140204E0D5F814023043C5F87F
:1024A0001402086A012804D1D5F81C023043C5F88B
:1024B0001C02D5F8000240084000C5F800020020C8
:1024C00004E0506A50F4802050620120F0BC704754
:1024D00038B5040094F82000012821D1022084F8A6
:1024E000200020680068400840002168086004F06F
:1024F0009BFB050020684068C0070DD504F094FBE5
:10250000401B0B28F6D3606A50F40030606205204F
:1025100084F82000012008E000206062002004E030
:10252000606A50F400206062012032BD0064004007
:10253000F0B5040094F82050206886688868002868
:10254000FFD02800C0B2012804D02800C0B2022861
:1025500040F0848016F0E05F7AD0C6F30167032F65
:1025600005D3606A50F40000606201207BE0012026
:10257000B8401860886800280BD10868D1F80CC0F2
:102580005CEA405C20685FEA071E7044C0F880C1C6
:102590000DE04868D1F808C05CEAC00CC86850EA91
:1025A0000C0C20685FEA071E7044C0F880C10869FF
:1025B000D4F800C05FEA071EF444CCF88401087D1B
:1025C00001280ED120685FEA071C6044D0F884011E
:1025D00050F48070D4F800C05FEA071EF444CCF8D1
:1025E0008401D07992F806C05FEA0C4C5CEA006C7A
:1025F00050795CEA002C107950EA0C0C20685FEAF4
:10260000071E7044C0F88CC1D07892F802C05FEA0F
:102610000C4C5CEA006C50785CEA002C107850EAB4
:102620000C0C20685FEA071E7044C0F888C120685F
:102630005FEA071C6044D0F8800150F00100D4F834
:1026400000C05FEA071EF444CCF8800100200AE0D5
:10265000606A50F400106062012004E0606A50F487
:10266000802060620120F0BD70B4040094F8205016
:102670002800C0B2012804D02800C0B2022840F0CF
:10268000988000290AD12068C06810F0030F10D18B
:10269000606A50F40010606201208FE020680069D9
:1026A00010F0030F05D1606A50F400106062012041
:1026B00084E020680E013044D0F8B00110F004002E
:1026C00090609068002807D120680E013044D0F84F
:1026D000B001400D106006E020680E013044D0F8D3
:1026E000B001C008506020680E013044D0F8B0013D
:1026F00010F00200D06020680E013044D0F8B40120
:1027000010F00F00106120680E013044D0F8B401C1
:10271000C0F30720906120680E013044D0F8B40166
:10272000000C506120680E013044D0F8B8011870D8
:1027300020680E013044D0F8B801000A58702068B3
:102740000E013044D0F8B801000C987020680E01DA
:102750003044D0F8B801000ED87020680E01304423
:10276000D0F8BC01187120680E013044D0F8BC01CB
:10277000000A587120680E013044D0F8BC01000CEA
:10278000987120680E013044D0F8BC01000ED87159
:10279000002906D12068C06850F020002668F0604B
:1027A00005E02068006950F02000266830610020B4
:1027B00004E0606A50F480206062012070BC7047C1
:1027C00010B4020092F820301800C0B2012803D0E3
:1027D0001800C0B2022806D1106840690843146886
:1027E0006061002004E0506A50F4802050620120B3
:1027F00010BC70472DE9F84F050000242868466991
:10280000286847682868D0F808802868D0F80C90B5
:102810002868D0F810A02868D0F818B0F00755D56F
:102820005FEAC87018D50120296888605FEA88705F
:1028300003D5280004F016FB0EE05FEA487002D5CD
:1028400054F4006408E05FEA087002D554F4805440
:1028500002E0280004F007FB5FEAC85019D54FF4E6
:102860008070296888605FEA885003D5280004F0EA
:10287000FBFA0EE05FEA485002D554F4005408E039
:102880005FEA085002D554F4804402E0280004F0C6
:10289000ECFA5FEAC83019D55FF4803029688860A7
:1028A0005FEA883003D5280004F0E0FA0EE05FEA22
:1028B000483002D554F4004408E05FEA083002D5FD
:1028C00054F4803402E0280004F0D1FA300707D530
:1028D0005FEAC96004D554F4007410202968C86008
:1028E000700708D55FEA097005D508202968C86017
:1028F000280004F0BDFAB00707D52868C06810F0BA
:10290000030F02D0280004F0B5FA700607D55FEA7D
:10291000CA6004D554F48064102029680861B006A8
:1029200008D55FEA0A7005D50820296808612800E3
:1029300004F0CEFAF00607D52868006910F0030FFE
:1029400002D0280004F0ABFAB00307D5F80605D58D
:10295000102029684860280004F0BBFAF00307D56E
:10296000380705D5082029684860280004F0B2FA25
:10297000300447D5780742D5F00506D51BF0010095
:10298000C0B2002801D054F00104B00504D55FEABC
:102990008B7001D554F00204700504D55FEA4B70CA
:1029A00001D554F00404300529D51BF0700F26D052
:1029B0001BF0700010280AD020280BD030280CD033
:1029C00040280DD050280ED060280FD011E054F0D0
:1029D00008040EE054F010040BE054F0200408E06A
:1029E00054F0400405E054F0800402E054F4807494
:1029F000FFE72868806930F070002968886104204A
:102A000029684860002C05D0686A20436862280065
:102A100004F061FABDE8F18F10B50400002C01D17B
:102A200001205FE0606A002806D16068B0F5827F0F
:102A300006D00020E06103E00020206100206061FA
:102A40000020A06294F85100002805D1002084F8ED
:102A50005000200000F027FF022084F85100206879
:102A6000006830F0400021680860606810F48270EF
:102A7000A16811F404410843E16811F400610843BE
:102A8000217C11F002010843217D11F0010108436E
:102A9000A16911F400710843217F11F03801084346
:102AA00094F8201011F080010843A16A11F400513C
:102AB000084321680860A069000C10F0040094F835
:102AC000241011F010010843216848602068C06993
:102AD00030F400602168C86100206065012084F83E
:102AE0005100002010BD2DE9F84306000D0017002D
:102AF0001C005FF000087068B0F5827F0ED1B068EE
:102B000000280BD1042086F8510000943B009BB2B2
:102B10002A002900300000F0A4F8A0E096F8500048
:102B2000012801D102209AE0012086F8500004F02B
:102B30007BF8814696F85100012802D00220804699
:102B400085E0002D03D0380080B2002802D101209A
:102B500080467CE0042086F8510000207065B56353
:102B6000B787F787002030630020B0860020F0860A
:102B70000020306400207064B068B0F5004F0BD1C5
:102B80003068006830F040003168086030680068E4
:102B900030F480403168086030680068400605D431
:102BA0003068006850F0400031680860F068002824
:102BB0001FD1F08F00283CD030688068C0070AD54C
:102BC0003068007BB16B0870B06B401CB063F08F55
:102BD000401EF087EDE704F027F8B0EB0900A042B3
:102BE00002D314F1010F01D1002CE2D10320804661
:102BF0002DE0F08F00281CD030688068C0070AD50F
:102C00003068C068B16B0880B06B801CB063F08F17
:102C1000401EF087EDE704F007F8B0EB0900A04292
:102C200002D314F1010F01D1002CE2D10320804620
:102C30000DE04A462100300000F09EF9002801D046
:102C400020207065706D002801D001208046012091
:102C500086F85100002086F850004046C0B2BDE81A
:102C6000F2832DE9FE4F07000D00160098460C9CDC
:102C70005FF001095FF0000A97F85000012801D1C8
:102C800002200AE1012087F8500003F0CDFF8346BF
:102C900097F851008DF8000078680290ADF8028036
:102CA0009DF8000001280DD00298B0F5827F06D172
:102CB000B868002803D19DF80000042802D0022043
:102CC0008246E2E0002D05D0002E03D0404680B2BF
:102CD000002802D101208246D7E097F8510004284D
:102CE00002D0052087F8510000207865BE63A7F860
:102CF0003E80A7F83C803D63A7F83680A7F8348073
:102D0000002038640020786438680068400605D4E4
:102D10003868006850F0400039680860F868B0F51D
:102D2000006F4CD17868002803D0BDF8020001285C
:102D300009D1386B00883968C860386B801C3863EB
:102D4000F88E401EF886F88E002803D1F88F0028F0
:102D500000F0838038688068800711D5F88E0028DD
:102D60000ED0B9F1010F0BD1386B00883968C860FB
:102D7000386B801C3863F88E401EF8860020814630
:102D800038688068C0070ED5F88F00280BD03868E7
:102D9000C068B96B0880B86B801CB863F88F401EA0
:102DA000F8870120814603F03FFFB0EB0B00A04203
:102DB000C9D314F1010FC6D00320824665E07868BC
:102DC000002803D0BDF80200012809D1386B007833
:102DD00039680873386B401C3863F88E401EF886DB
:102DE000F88E002802D1F88F002836D03868806825
:102DF000800711D5F88E00280ED0B9F1010F0BD144
:102E0000386B007839680873386B401C3863F88E6B
:102E1000401EF8860020814638688068C0070ED5BD
:102E2000F88F00280BD03868C068B96B0870B86B91
:102E3000401CB863F88F401EF8870120814603F0DC
:102E4000F3FEB0EB0B00A04202D314F1010F01D14D
:102E5000002CC5D10320824617E05A4621003800D5
:102E600000F0D7F8002804D00120824620207865A1
:102E70000BE0B868002808D1002001903868C068CD
:102E800001903868806801900198012087F851000E
:102E9000002087F850005046C0B2BDE8FE8F2DE9F3
:102EA000FC4705000E0017009846DDF8289003F057
:102EB000BBFE0400B8EB040419EB040403F0B4FEF9
:102EC0008246DFF8AC0100684001000D00FB04F011
:102ED0000090286880683040B04201D1012000E0B5
:102EE00000203900C9B2884243D018F1010FF0D058
:102EF00003F09AFEB0EB0A00A04201D2002C2FD1C1
:102F00002868406830F0E000296848606868B0F5DB
:102F1000827F0DD1A868B0F5004F03D0A868B0F546
:102F2000806F05D12868006830F04000296808608B
:102F3000A86AB0F5005F0BD12868006830F4005033
:102F4000296808602868006850F400502968086003
:102F5000012085F85100002085F85000032009E089
:102F60000098002801D1002004000098401E009025
:102F7000AFE70020BDE8F6877CB504000D00160021
:102F80006068B0F5827F0DD1A068B0F5004F03D026
:102F9000A068B0F5806F05D12068006830F040006F
:102FA000216808606068B0F5827F21D1A068B0F523
:102FB000806F0ED000962B00002280212000FFF7AA
:102FC0006EFF002823D0606D50F020006065032064
:102FD0001EE000962B00002201212000FFF75FFF7A
:102FE000002814D0606D50F02000606503200FE0D1
:102FF00000962B00002201212000FFF750FF00283F
:1030000005D0606D50F020006065032000E00020D6
:1030100076BD7CB504000D00160015480068182127
:10302000B0FBF1F01349B0FBF1F14FF47A7041437A
:1030300001916068B0F5827F0ED100962B000022CE
:1030400080212000FFF72BFF00280FD0606D50F08B
:103050002000606503200AE00198002806D001984E
:10306000401E0190206880680006F5D4002076BDDF
:103070008801002040420F0010B50400002C01D14F
:1030800001202FE094F83D00002805D1002084F8AD
:103090003C00200000F03FFC022084F83D00211D90
:1030A000206800F033F9012084F84600012084F8FC
:1030B0003E00012084F83F00012084F840000120F8
:1030C00084F84100012084F84200012084F8430084
:1030D000012084F84400012084F84500012084F890
:1030E0003D00002010BD70B505000C00002C02D181
:1030F00095F83E000BE0042C02D195F83F0006E065
:10310000082C02D195F8400001E095F84100012813
:1031100001D001206DE0002C04D1022085F83E0092
:10312000C0B211E0042C04D1022085F83F00C0B2E7
:103130000AE0082C04D1022085F84000C0B203E068
:10314000022085F84100C0B201222100286800F069
:103150001DFADFF8A0102868884204D02868DFF83C
:103160009820904201D1012000E00020C0B2002848
:1031700005D02868406C50F400402A6850642868E4
:10318000884221D02868B0F1804F1DD02868DFF830
:103190006C10884218D02868DFF86410884213D079
:1031A0002868DFF8601088420ED02868DFF84810E1
:1031B000884209D02868DFF85010884204D0286877
:1031C000DFF8481088420DD12868806810F00700A9
:1031D0000600062E0CD02868006850F0010029680F
:1031E000086005E02868006850F001002968086060
:1031F000002070BD000001400004014000040040B8
:1032000000080040000C0040004001400018004051
:10321000F8B504000D001700002694F83C000128C2
:1032200001D1022071E0012084F83C003800002820
:1032300006D004281BD0082831D00C2846D05DE0E9
:103240002900206800F0C5F82068806950F0080067
:10325000216888612068806930F0040021688861F5
:1032600020688169286901432068816148E029005C
:10327000206800F0E0F82068806950F40060216860
:1032800088612068806930F48060216888612068E6
:103290008069296950EA01202168886130E02900AD
:1032A000206800F0FFF82068C06950F0080021682D
:1032B000C8612068C06930F004002168C8612068D6
:1032C000C169286901432068C16119E029002068AB
:1032D00000F01FF92068C06950F400602168C861DF
:1032E0002068C06930F480602168C8612068C069C6
:1032F000296950EA01202168C86101E00120060027
:10330000002084F83C003000C0B2F2BD10B4046864
:10331000DFF84C32984212D0B0F1804F0FD0DFF876
:10332000442290420BD0DFF84022904207D0DFF8D1
:103330003C22904203D0DFF83822904203D134F08F
:1033400070044A68144398422AD0B0F1804F27D0C5
:10335000DFF81022904223D0DFF80C2290421FD0D9
:10336000DFF8082290421BD0DFF80422904217D0E9
:10337000DFF80022904213D0DFF8FC2190420FD0FA
:10338000DFF8F82190420BD0DFF8F421904207D00B
:10339000DFF8F021904203D0DFF8EC21904203D116
:1033A00034F44074CA68144334F080044A69144306
:1033B00004608A68C2620A688262984202D06C4ADB
:1033C000904201D10A6902630122426110BC704738
:1033D000000070B4026A520852000262046A456832
:1033E000836933F070039B089B000A68134334F031
:1033F00002048A6814435A4EB04202D05C4A90429A
:1034000005D134F00804CA68144334F00404B0420F
:1034100002D0574A904207D135F4807535F40075D3
:103420004A6915438A691543456083614A68426366
:10343000046270BC704770B4026A32F0100202621B
:10344000036A4468826932F4E04232F440720D68E3
:1034500052EA052233F020038D6853EA0513404DEC
:10346000A84202D0424EB04206D133F08003CE686B
:1034700053EA061333F04003A84202D03C4DA84261
:1034800009D134F4806434F400644D6954EA85044D
:103490008D6954EA8504446082614D6885630362E6
:1034A00070BC704770B4026A32F480720262046ABF
:1034B0004568C36933F070039B089B000A68134397
:1034C00034F400748A6854EA0224254A904202D0F7
:1034D000274EB04206D134F40064CE6854EA062484
:1034E00034F48064904202D0214A904209D135F4EC
:1034F000805535F400554A6955EA02158A6955EA3E
:1035000002154560C3614A68C263046270BC7047BB
:10351000000030B4026A32F480520262036A4468E6
:10352000C26932F4E04232F440720D6852EA052278
:1035300033F400538D6853EA0533094DA84202D095
:103540000B4DA84204D134F480444D6954EA8514EB
:103550004460C2614D680564036230BC704700007E
:10356000000001400004004000080040000C004042
:103570000004014000400140004401400048014077
:1035800000180040001C00400020004030B401241E
:1035900011F01F0314FA03F3046A9C430462046AE3
:1035A00011F01F0512FA05F52C43046230BC704778
:1035B00030B4020092F83C00012801D102203CE026
:1035C000012082F83C00022082F83D001068436828
:1035D0001068846833F07003086803431068436020
:1035E0001068174DA8421BD01068B0F1804F17D05B
:1035F0001068144DA84213D01068134DA8420FD084
:103600001068124DA8420BD01068114DA84207D087
:103610001068104DA84203D010680F4DA84205D184
:1036200034F080044868044310688460012082F804
:103630003D00002082F83C00002030BC70470000B4
:10364000000001400004004000080040000C004061
:103650000004014000400140001800400200002327
:1036600092F83C00012801D1022024E0012082F8D8
:103670003C001B0A1B02C868034333F4407388688C
:10368000034333F480634868034333F400630868FA
:10369000034333F480530869034333F40053486908
:1036A000034333F48043C869034310684364002034
:1036B00082F83C000020704780B500200090DFF8C1
:1036C0006406016851F480410160006810F4804094
:1036D0000090009800200090DFF84C06016851F03F
:1036E00080510160006810F0805000900098002226
:1036F0000F217FF0010001F031FB01BD10B586B054
:10370000040001A81421FEF799F82068DFF81C16C0
:10371000884224D100200090DFF80806016851F4A7
:1037200080710160006810F48070009000980020A3
:103730000090DFF8FC05016851F0010101600068AC
:1037400010F00100009000980120019003200290E9
:103750000020039001A9DFF8DC0501F01BF906B099
:1037600010BD10B586B0040001A81421FEF766F85C
:103770002068DFF8C415884241D1DFF8C005016830
:10378000491C0160006801280CD100200090DFF87E
:103790009805016851F000710160006810F0007038
:1037A0000090009800200090DFF88405016851F037
:1037B00008010160006810F00800009000980320E4
:1037C0000190022002900020039003200490092021
:1037D000059001A9DFF8680501F0DCF80022052159
:1037E000132001F0BBFA132001F0CDFA00220521CD
:1037F000142001F0B3FA142001F0C5FA51E020685A
:10380000DFF8401588424CD100200090DFF81815F1
:10381000086850F080600860086810F080600090D0
:103820000098DFF818050268521C02600068012841
:103830000AD100200090086850F000700860086805
:1038400010F000700090009800200090DFF8E00475
:10385000016851F002010160006810F00200009060
:1038600000984FF4405001900220029000200390F5
:10387000032004900920059001A9DFF8CC0401F091
:1038800089F8002205213F2001F068FA3F2001F06D
:103890007AFA00220521412001F060FA412001F06E
:1038A00072FA06B010BD10B586B0040001A814214C
:1038B000FDF7C4FF2068DFF89414884229D1002066
:1038C0000090DFF86004016851F400510160006865
:1038D00010F400500090009800200090DFF8500491
:1038E000016851F010010160006810F010000090B4
:1038F00000984FF483500190022002900020039022
:10390000032004900520059001A9DFF8440401F08C
:1039100041F806B010BD81B00168DFF8382491424B
:103920000DD100210091DFF800140A6852F008025E
:103930000A60096811F008010091009911E001681E
:10394000DFF8142491420CD100210091DFF8D41348
:103950000A6852F002020A60096811F0020100913F
:10396000009901B0704710B586B004006846142174
:10397000FDF764FF2068DFF8DC13884237D10020B0
:103980000590DFF8AC03016851F4807101600168B3
:1039900011F480710591059900210591016851F09C
:1039A00080010160006810F08000059005980120FA
:1039B000009002200190002002900020039002203D
:1039C00004906946DFF8940300F0E4FF4FF4E05000
:1039D000009002200190002002900020039002201D
:1039E00004906946DFF8780300F0D4FF20E02068F7
:1039F000DFF8641388421BD100200590DFF8300304
:103A0000016851F480710160006810F480700590C5
:103A10000598C02000900220019000200290002014
:103A20000390032004906946DFF8300300F0B2FFF2
:103A300006B010BD10B586B0040068461421FDF72D
:103A4000FDFE2068DFF81C13884232D1002005906B
:103A5000DFF8D402016851F400210160006810F41D
:103A600000200590059800200590DFF8C402016849
:103A700051F004010160006810F004000590059801
:103A80004FF440600090022001900020029003203B
:103A90000390082004906946DFF8CC0200F07AFF1A
:103AA00000220521342001F059F9342001F06BF98E
:103AB00035E12068DFF8B412884230D1002005904B
:103AC000DFF86402016851F080410160006810F085
:103AD000804005900598002005909548016851F0B8
:103AE00010010160006810F01000059005984FF477
:103AF000C0700090022001900020029003200390EB
:103B0000082004906946924800F044FF00220521F5
:103B1000522001F023F9522001F035F9FFE020682E
:103B2000934988422ED1002005907F48016851F0CA
:103B300000410160006810F00040059005980020E9
:103B400005907B48016851F010010160006810F099
:103B5000100005900598032000900220019000209D
:103B6000029003200390082004906946784800F0F2
:103B700011FF00220521532001F0F0F8532001F03D
:103B800002F9CCE020687B4988422ED100200590C4
:103B90006448016851F010010160006810F01000E5
:103BA00005900598002005906148016851F00201D8
:103BB0000160006810F0020005900598C020009098
:103BC000022001900020029003200390072004901F
:103BD00069465D4800F0DEFE00220521252001F047
:103BE000BDF8252001F0CFF899E0206862498842AD
:103BF0002ED1002005904C48016851F4003101603D
:103C0000006810F4003005900598002005904848A1
:103C1000016851F008010160006810F0080005908B
:103C2000059860200090022001900020029003205F
:103C30000390072004906946414800F0ABFE002243
:103C40000521262001F08AF8262001F09CF866E084
:103C500020684A4988422FD10020059032480168E7
:103C600051F480210160006810F4802005900598CF
:103C7000002005902E48016851F00801016000689D
:103C800010F00800059005984FF440700090022055
:103C900001900020029003200390072004906946C1
:103CA000274800F077FE00220521272001F056F872
:103CB000272001F068F832E02068314988422ED18F
:103CC000002005901748016851F02001016000684C
:103CD00010F0200005900598002005901448016818
:103CE00051F040010160006810F040000590059817
:103CF0004FF48440009002200190002002900320A5
:103D000003900820049069461E4800F043FE0022FC
:103D10000521472001F022F8472001F034F806B0D1
:103D200010BD0000443802404038024000200140ED
:103D3000303802400000024000640040D0550020AE
:103D4000000C0240006800400004024000340140C2
:103D500000100240000C004000040140002002401E
:103D6000001C0240004C0040000802400078004067
:103D7000007C00400010014000440040004800402A
:103D8000001401400018024010B50400002C01D1BD
:103D9000012033E0A0690028FFD194F83D000028FD
:103DA00005D1002084F83C002000FFF743FE2420CA
:103DB00084F83D002068C06830F400502168C86075
:103DC000200000F063FC2068006930F49040216816
:103DD00008612068406930F02A0021684861206845
:103DE000C06850F400502168C86000202064202082
:103DF00084F83D00202084F83E00002010BD2DE90D
:103E0000FC4706000D0017009846002496F83D0078
:103E100020285DD1002D03D0380080B2002801D1C8
:103E2000012056E096F83C00012801D1022050E024
:103E3000012086F83C0000203064212086F83D00F7
:103E400002F0F2FE8146B784F784B068B0F5805F77
:103E500005D13069002802D10024AA4602E02C00D6
:103E60005FF0000A002086F83C00F08C00281ED08D
:103E7000CDF800804B4600228021300000F09CFAF3
:103E8000002801D0032024E0002C08D1BAF800005B
:103E9000C005C00D316848601AF1020A03E02078BD
:103EA00031684860641CF08C401EF084DDE7CDF87A
:103EB00000804B4600224021300000F07DFA0028AF
:103EC00001D0032005E0202086F83D00002000E01E
:103ED0000220BDE8F68770B505000C00160095F8C5
:103EE0003E00202819D1002C03D0300080B20028D9
:103EF00001D1012012E095F83C00012801D10220F7
:103F00000CE0012085F83C0000202863320092B2CA
:103F10002100280000F098FA00E0022070BD2DE991
:103F2000F84F07000E00904699460A9C97F83E000D
:103F3000202840F09080002E03D0404680B2002818
:103F400001D1012088E097F83C00012801D102202E
:103F500082E0012087F83C0000203864222087F8A6
:103F60003E000120386302F05FFE8246A7F82C80F5
:103F7000A7F82E80B868B0F5805F05D138690028B1
:103F800002D10025B34602E035005FF0000B0020AF
:103F900087F83C000020A9F80000F88D002850D0D8
:103FA00038680068C00611D50020009038680068A5
:103FB00000903868406800900098B9F80000002828
:103FC00004D0202087F83E00002045E038680068D3
:103FD000800626D5002D08D138684068C005C00D80
:103FE000ABF800001BF1020B13E0B868B0F5805F7E
:103FF00005D0B868002806D13869002803D1386890
:104000004068287004E03868406810F07F0028702D
:104010006D1CB9F80000401CA9F80000F88D401E86
:10402000F88514F1010FB8D002F0FEFDB0EB0A00E4
:10403000844201D3002CB0D1202087F83E00032019
:104040000AE0B98DF88D091AA9F80010202087F828
:104050003E00002000E00220BDE8F28F7CB50500A4
:104060000C00160095F83E0020283DD1002C03D00E
:10407000300080B2002801D1012036E095F83C00E4
:10408000012801D1022030E0012085F83C00012008
:104090002863320092B22100280000F0D5F9010017
:1040A0000800C0B200281CD1286B012817D10020BD
:1040B0000090286800680090286840680090009888
:1040C00028680C3050E8000F50F0100002002868FB
:1040D00010F10C0343E800200028F1D101E0012099
:1040E00001000800C0B200E0022076BD2DE9FC47C7
:1040F0000600306807683068D0F80C803068D0F867
:1041000014900020002517F00F04002C08D1B806E9
:1041100006D55FEA886003D5300000F03EFA49E139
:10412000002C00F080805FEAC97002D418F4907F00
:1041300079D017F00100C0B2002806D05FEAC8505D
:1041400003D5306C50F001003064780708D519F0C1
:104150000100C0B2002803D0306C50F0020030647F
:10416000B80708D519F00100C0B2002803D0306CA0
:1041700050F00400306438070BD55FEA886004D43F
:1041800019F00100C0B2002803D0306C50F00800D4
:104190003064306C002845D0B80605D55FEA8860E9
:1041A00002D5300000F0F9F930684069800910F05C
:1041B00001000500306C000701D4002D2DD0300027
:1041C00000F067F930684069400622D53068143045
:1041D00050E8000F30F040000100306810F1140288
:1041E00042E800100028F1D1B06B00280DD00FF28A
:1041F0000D30B16B0865B06B02F0BCFE002811D029
:10420000B06BB16B096D88470CE0300002F0C6FE60
:1042100008E0300002F0C2FE04E0300002F0BEFE12
:1042200000203064C6E0306B012840F0B180F80611
:1042300040F1AE805FEAC86040F1AA8000200090A3
:1042400030680068009030684068009000983068DE
:10425000406940065BD5B06B0068D0F804A05046BA
:1042600080B2002852D05046B18D80B288424DD2E3
:10427000A6F82EA0B06BC069B0F5807F3FD0306843
:104280000C3050E8000F30F480700100306810F1FD
:104290000C0242E800100028F1D13068143050E8D8
:1042A000000F400840000100306810F1140242E89D
:1042B00000100028F1D13068143050E8000F30F0C1
:1042C00040000100306810F1140242E8001000289C
:1042D000F1D1202086F83E000020306330680C3099
:1042E00050E8000F30F010000100306810F10C02AF
:1042F00042E800100028F1D1B06B02F0EDFDB18D65
:10430000F08D091A89B2300002F06AFF52E0B08DD8
:10431000B6F82EA0B0EB0A0AF08D002837D0504630
:1043200080B2002833D030680C3050E8000F30F4F1
:1043300090700100306810F10C0242E80010002873
:10434000F1D13068143050E8000F400840000100FF
:10435000306810F1140242E800100028F1D120204A
:1043600086F83E000020306330680C3050E8000FC3
:1043700030F010000100306810F10C0242E800102B
:104380000028F1D1514689B2300002F029FF11E036
:10439000380606D55FEA086003D5300000F0BAF8A9
:1043A00008E0780606D55FEA486003D5300000F0E3
:1043B000E4F8FFE7BDE8F3872DE9F04105000E00C2
:1043C00017009846069C286800683040B04201D12A
:1043D000012000E000203900C9B2884231D114F137
:1043E000010FF0D0002C05D002F01EFCB0EB08004D
:1043F0008442E8D228680C3050E8000F30F4D070C6
:104400000100286810F10C0242E800100028F1D1E8
:104410002868143050E8000F400840000100286868
:1044200010F1140242E800100028F1D1202085F894
:104430003D00202085F83E00002085F83C00032048
:1044400000E00020BDE8F08110B4030099629A8575
:10445000DA8500201864222083F83E00002083F8CB
:104460003C001869002805D01868C06850F48070B6
:104470001C68E0601868406950F001001C686061C9
:104480001868C06850F020001C68E060002010BC74
:10449000704701680C3151E8001F31F490710A0037
:1044A000016811F10C0343E800210029F1D10168F2
:1044B000143151E8001F490849000A00016811F150
:1044C000140343E800210029F1D1016B01290DD12A
:1044D00001680C3151E8001F31F010010A00016839
:1044E00011F10C0343E800210029F1D1202180F8CB
:1044F0003E100021016370470000000038B5040041
:10450000A56B0020E8850020E884280002F046FD25
:1045100031BD0000010091F83D0021282BD18868B1
:10452000B0F5805F0DD1086900280AD1086A020041
:104530001088C005C00D0B685860086A801C0862AE
:1045400005E0086A431C0B6200780B685860C88C51
:10455000401EC88480B200280BD10868C06830F0C3
:1045600080000B68D8600868C06850F040000B6895
:10457000D860002000E00220704710B504002068D9
:10458000C06830F040002168C860202084F83D00F9
:10459000200002F0B1FE002010BD7CB5040094F8AC
:1045A0003E00222870D1A068B0F5805F0DD120694F
:1045B00000280AD10025A66A20684068C005C00D01
:1045C0003080A06A801CA06217E0A56A0026A0685F
:1045D000B0F5805F05D0A068002806D120690028CA
:1045E00003D120684068287004E02068406810F01B
:1045F0007F002870A06A401CA062E08D401EE0850C
:1046000080B200283ED12068C06830F020002168C8
:10461000C8602068C06830F480702168C860206875
:1046200040694008400021684861202084F83E002D
:10463000206B012821D10020206320680C3050E835
:10464000000F30F010000100206810F10C0242E869
:1046500000100028F1D120680068C00608D50020AD
:1046600000902068006800902068406800900098E2
:10467000A18D200002F0B4FD02E0200002F0C4FD94
:10468000002002E0002000E0022076BD2DE9F84F76
:1046900084B005002868016931F44051E86801439D
:1046A00028680161D5F808B0286950EA0B0B6869E1
:1046B00050EA0B0BE86950EA0B0B2868C168B24856
:1046C00001405BEA01012868C1602868416931F452
:1046D0004071A8690143286841612868AB49884254
:1046E00003D02868AA49884203D1FDF78BFB040058
:1046F00002E0FDF77CFB0400E869B0F5004F40F0F4
:10470000A1805FF0640A022600275FF019085FF0BD
:10471000000922000023A8FB020108FB031109FB8A
:104720000211CDE9000168680021A6FB002306FB09
:10473000013307FB0033DDE9000102F07BFA64215D
:10474000B0FBF1F0039022000023A8FB020108FB5C
:10475000031109FB0211CDE9000168680021A6FBE5
:10476000002306FB013307FB0033DDE9000102F003
:1047700061FA029022000023A8FB020108FB03114A
:1047800009FB0211CDE9000168680021A6FB0023A6
:1047900006FB013307FB0033DDE9000102F04AFAB2
:1047A0006421B0FBF1F102980AFB1101C80032301C
:1047B0006421B0FBF1F0400010F4F870039910EBA5
:1047C0000110029022000023A8FB020108FB031144
:1047D00009FB0211CDE9000168680021A6FB002356
:1047E00006FB013307FB0033DDE9000102F022FA8A
:1047F000009022000023A8FB020108FB031109FB23
:1048000002118046894668680021A6FB002306FB4A
:10481000013307FB00334046494602F00BFA64219E
:10482000B0FBF1F100980AFB110A5FEACA003230CE
:104830006421B0FBF1F111F0070102980918286812
:1048400081609EE0042600275FF0640A5FF019088B
:104850005FF0000922000023A8FB020108FB0311FE
:1048600009FB0211CDE9000168680021A6FB0023C5
:1048700006FB013307FB0033DDE9000102F0DAF942
:104880006421B0FBF1F0039022000023A8FB020199
:1048900008FB031109FB0211CDE900016868002142
:1048A000A6FB002306FB013307FB0033DDE9000113
:1048B00002F0C0F9029022000023A8FB020108FBCD
:1048C000031109FB0211CDE9000168680021A6FB74
:1048D000002306FB013307FB0033DDE9000102F092
:1048E000A9F96421B0FBF1F102980AFB110108015A
:1048F00032306421B0FBF1F010F0F000039910EBBE
:104900000110029022000023A8FB020108FB031102
:1049100009FB0211CDE9000168680021A6FB002314
:1049200006FB013307FB0033DDE9000102F082F9E9
:10493000009022000023A8FB020108FB031109FBE1
:1049400002118046894668680021A6FB002306FB09
:10495000013307FB00334046494602F06BF96421FE
:10496000B0FBF1F100980AFB110A5FEA0A1032303D
:104970006421B0FBF1F111F00F01029809182868C9
:10498000816005B0BDE8F08FF369FFFF00100140C2
:1049900000140140F8B50023002400250026102E45
:1049A00080F01781012717FA06F213000A681A40EF
:1049B00014009C4240F00B810A7912F00302012A94
:1049C00004D00A7912F00302022A1FD1D0F808C0DD
:1049D0005FF0030E3200D2B252001EFA02FE3CEA31
:1049E0000E0CD1F80CE03200D2B252001EFA02FED8
:1049F0005EEA0C0CC0F808C04268B740BA434F6882
:104A0000C7F30017B7403A43150045600A7912F022
:104A10000302032A14D0C7685FF0030C3200D2B23D
:104A200052001CFA02FC37EA0C07D1F808C0320029
:104A3000D2B252001CFA02FC5CEA07073D00C560D6
:104A40000A7912F00302022A1ED13200D20800EBCA
:104A50008202176A5FF00F0C16F00702D2B29200C2
:104A60001CFA02FC37EA0C07D1F810C016F0070256
:104A7000D2B292001CFA02FC5CEA07073D00320049
:104A8000D20800EB8202156207685FF0030C320067
:104A9000D2B252001CFA02FC37EA0C0791F804C0AB
:104AA0001CF0030C3200D2B252001CFA02FC5CEA89
:104AB00007073D0005604A6812F4403F00F0878018
:104AC00000220092DFF85C21176857F480471760D6
:104AD000126812F480420092009ADFF84CC1320052
:104AE00092085CF822705FF00F0E16F00302D2B24B
:104AF00092001EFA02FE37EA0E07DFF830219042DC
:104B000001D1002530E0DFF82821904201D10125B4
:104B10002AE0DFF82021904201D1022524E0DFF8CD
:104B20001821904201D103251EE0444A904201D150
:104B3000042519E0424A904201D1052514E0414A7A
:104B4000904201D106250FE03F4A904201D107254E
:104B50000AE03E4A904201D1082505E03C4A9042D5
:104B600001D1092500E00A25EDB216F00302D2B208
:104B7000920095402F43320092084CF82270354D38
:104B80002A68A243D1F804C05FEACC2C00D52243A6
:104B90002A60314F3D68A543D1F804C05FEA8C2CF0
:104BA00000D525433D602D4F3A68A243D1F804C09B
:104BB0005FEA8C3C00D522433A60294F3D68A5430B
:104BC000D1F804C05FEACC3C00D525433D60761C9B
:104BD000E5E6F1BD020010690B009BB2184201D05E
:104BE000012000E00020C0B270471300DBB2002BB0
:104BF00003D00B009BB2836103E00B009BB21B044C
:104C00008361704710B5040016480168220092B213
:104C1000114206D0210089B20160200080B202F06A
:104C200026FB10BD44380240083801400000024015
:104C30000004024000080240000C02400010024044
:104C40000014024000180240001C024000200240F4
:104C500000240240083C01400C3C0140043C01405F
:104C6000003C0140143C014010B410F00703DFF891
:104C7000304122684FF6FF010A40DFF8281151EA5F
:104C800003210A43226010BC7047DFF8140100685A
:104C9000C0F302207047010049B2002909D4012263
:104CA00010F01F018A40404903005BB25B0941F8E4
:104CB0002320704710B4020052B2002A05D40A0122
:104CC0003A4B040064B21A5508E00A01384B04005C
:104CD00064B214F00F04234403F8042C10BC704792
:104CE00070B4030013F00704D4F10700052801D3C2
:104CF000042001E0D4F10700251D072D01D2002575
:104D000000E0E51E012616FA00F0401E0140A94011
:104D100016FA05F56D1E2A401143080070BC704755
:104D200010B50400601EB0F1807F01D301200EE0B9
:104D3000601E204908600F215FF0FF30FFF7BAFFC7
:104D400000201D49086007201C490860002010BD94
:104D500010B504002000FFF787FF10BD2DE9F041DA
:104D600004000D0016000027FFF78FFF8046320079
:104D700029004046FFF7B4FF0100200040B2FFF7D2
:104D800099FFBDE8F08110B50400200040B2FFF7A4
:104D900082FF10BD10B504002000FFF7C1FF10BD59
:104DA0000CED00E00000FA0500E100E000E400E0A6
:104DB00018ED00E014E000E018E000E010E000E092
:104DC0002DE9F0438EB0060037005FF0060CEE468A
:104DD00008784A7852EA00223800C0B20CFB00F092
:104DE0002EF8002068463A00D2B20CFB02F21044C2
:104DF0008A78CB7853EA0223438068463A00D2B2DD
:104E00000CFB02F210440A794B7953EA02238380A7
:104E10005FF03008DFF8C4943800C0B208FB00F03F
:104E200009EB00023800C0B20CFB00F03EF8003085
:104E30003800C0B208FB00F0484400891B1A1385F3
:104E40003800C0B208FB00F04844B0F90800002860
:104E500006D13800C0B208FB00F0484400220285A9
:104E60003800C0B208FB00F04844B0F9280040F612
:104E7000FF72904216DB3800C0B208FB00F04844D5
:104E8000B0F9080000280DD03800C0B208FB00F0CF
:104E900048443A00D2B208FB02F24A44128DB2F5FD
:104EA000005202853800C0B208FB00F04844B0F957
:104EB0002800DFF82C24904216DA3800C0B208FB34
:104EC00000F04844B0F9080000280DD03800C0B206
:104ED00008FB00F048443A00D2B208FB02F24A4410
:104EE000128D12F5005202853800C0B208FB00F0A6
:104EF00048443A00D2B208FB02F24A44D2E90445DF
:104F00003A00D2B208FB02F24A44B2F92820D31781
:104F1000A2186B41C0E904233800C0B208FB00F0BE
:104F200048443A00D2B20CFB02F23EF80220028161
:104F300068463A00D2B20CFB02F2104440883A00B4
:104F4000D2B208FB02F229F802003800C0B208FB16
:104F500000F809EB08006A463B00DBB20CFB03FCDF
:104F60006244928882800EB0BDE8F08310B5DFF80D
:104F70006C43B4F93210B4F93000091A00EE101A7B
:104F8000B8EEC00ADFF85C0302F0B8F9B4F93600F5
:104F900000EE900AF8EEE00A30EE800ABDEEC00A9C
:104FA00010EE100AE086B4F96210B4F96000091A34
:104FB00000EE101AB8EEC00ADFF82C0302F09EF9DA
:104FC000B4F9660000EE900AF8EEE00A30EE800ACE
:104FD000BDEEC00A10EE100AA4F86600B4F99210F3
:104FE000B4F99000091A00EE101AB8EEC00ADFF802
:104FF000FC0202F083F9B4F9960000EE900AF8EE94
:10500000E00A30EE800ABDEEC00A10EE100AA4F8E5
:105010009600B4F9C210B4F9C000091A00EE101AD3
:10502000B8EEC00ADFF8C80202F068F9B4F9C600A9
:1050300000EE900AF8EEE00A30EE800ABDEEC00AFB
:1050400010EE100AA4F8C600B4F9F210B4F9F0009A
:10505000091A00EE101AB8EEC00AA64802F04EF97E
:10506000B4F9F60000EE900AF8EEE00A30EE800A9D
:10507000BDEEC00A10EE100AA4F8F600B4F9221131
:10508000B4F92001091A00EE101AB8EEC00A9A48C5
:1050900002F034F9B4F9260100EE900AF8EEE00AC5
:1050A00030EE800ABDEEC00A10EE100AA4F8260108
:1050B000B4F95211B4F95001091A00EE101AB8EE01
:1050C000C00A8E4802F01AF9B4F9560100EE900AAF
:1050D000F8EEE00A30EE800ABDEEC00A10EE100ACB
:1050E000A4F85601B4F98211B4F98001091A00EE4E
:1050F000101AB8EEC00A824802F000F9B4F986012D
:1051000000EE900AF8EEE00A30EE800ABDEEC00A2A
:1051100010EE100AA4F8860110BD704718B589B0CA
:105120004FF40070039000200590002006900820A6
:10513000079000208DF82000684600210022C0E979
:10514000001201242000C0B2092826DA3020634969
:105150002200D2B242430A44B2F9062044F20103CB
:105160009A4208DB2200D2B200FB02F008444FF45E
:105170008041C1800FE02200D2B242430A44B2F91A
:10518000062012F5804F06DA2200D2B200FB02F0B0
:1051900008445C49C180641CD4E75048B0F936101B
:1051A00009128DF800106946C28E4A70B0F9662067
:1051B00012128DF80220B0F866208DF80320B0F9A5
:1051C000962012128DF80420B0F896208DF8052054
:1051D000B0F9C6000012887102AB6A4603A94A48BA
:1051E000FDF7A6F9002804D048480188491C018031
:1051F000F2E70AB010BD18B589B040F2FF10039075
:1052000000200590002006900820079000208DF8CF
:105210002000684600210022C0E90012012420007D
:10522000C0B2092826DA30202C492200D2B24243EB
:105230000A44B2F9062044F201039A4208DB220034
:10524000D2B200FB02F008444FF48041C1800FE06D
:105250002200D2B242430A44B2F9062012F5804F2E
:1052600006DA2200D2B200FB02F008442549C180D0
:10527000641CD4E71948B0F9F61009128DF8001033
:105280006946B0F8F6204A70B0F9262112128DF85E
:105290000220B0F826218DF80320B0F95621121211
:1052A0008DF80420B0F856218DF80520B0F986213C
:1052B00012128A71B0F886018DF8070002AB6A46B7
:1052C00003A91148FDF734F9002804D00F480188DC
:1052D000491C0180F2E70AB010BD0000F84B002025
:1052E00002F0FFFF080000202800002048000020F6
:1052F0006800002088000020A8000020C8000020CE
:10530000E800002000C0FFFFF053002024560020DA
:10531000010040F261100A0012B2824204DB0A006E
:1053200012B2B2F5D46F02DB5FF0FF3028E00A0062
:1053300012B2824207DB080000B240F259229042CA
:1053400001DA00201CE0080000B240F2592290422D
:1053500007DB080000B240F24D42904201DA012022
:105360000EE0080000B240F24D42904206DB080019
:1053700000B2B0F5D46F01DA022001E05FF0FF3037
:10538000704710B49E490878002803D002281ED028
:105390000BD337E09B4800780F2803D10878401CD6
:1053A000087001E0002008702CE09748954A1278B8
:1053B000964B04781A550278521C02700278172A0C
:1053C00004DB002202700878401C08701AE08D4847
:1053D0000078002814D101208D4A10708B48807D00
:1053E00010F00C000C2804D100208A4A82F820001A
:1053F00003E06420874A82F820000020087001E062
:105400000020087010BC704780B5834881490A8825
:1054100002804A8842808A888280CA88C2800A893B
:1054200002814A8942818A898281CA89C2810A8A23
:1054300002824A8A42828A8A8282CA8AC2820A8B0B
:1054400002834A8B42838A8B8283C98BC1837349CF
:1054500048220A7044224A700222222A06DA00EB0D
:10546000020313F8023C8B54521CF6E76C48028886
:1054700081F82220B0F90020121281F823204288FE
:1054800081F82420B0F90220121281F825208288A8
:1054900081F82620B0F90420121281F82720C28852
:1054A00081F82820B0F90600001281F829002A208E
:1054B000322806DA5B4A024412F82A2C0A54401CAD
:1054C000F6E75948007881F832005848027881F8A8
:1054D0003320427881F83420827881F83520C078F2
:1054E00081F836005248027881F83720427881F8F6
:1054F0003820827881F83920C27881F83A20027900
:1055000081F83B20427981F83C20827981F83D2066
:10551000C27981F83E20027A81F83F20427A81F8F0
:105520004020827A81F84120C07A81F842004C20E4
:1055300081F84300542081F8440040F2FF334522B3
:105540003C48FEF75CFC01203B49087001BD10B4EB
:105550003A480178002906D002291AD00ED304292E
:1055600034D028D34AE036490978A32903D10178F9
:10557000491C017001E0002101703FE030490978C9
:10558000B32903D10178491C017001E000210170A9
:1055900034E02C492A4A12782B4B0C781A550A7899
:1055A000521C0A700A780C2A04D100220A70017871
:1055B000491C017022E022490978C32903D10178EE
:1055C000491C017001E00021017017E01C490978B5
:1055D000D32911D100210A00D2B20C2A09DA1A4AC1
:1055E0000B00DBB2D25C124B0C00E4B21A55491C22
:1055F000F1E70021017001E00021017010BC70474B
:10560000335600203156002035560020FC52002031
:105610002A5600204054002064540020D850002016
:105620004C550020705500202B560020945500202A
:10563000385500206451002029560020345600209F
:1056400032560020365600202C55002041EC100B1D
:1056500001BD80B553EC112B51EC100B02F02AFA6E
:10566000F4E730B4002513E050F8042BD30744BF0F
:10567000A9F101039A18091F042942F8045BFAD220
:1056800013468C0744BF15809B1CC90748BF1D707B
:1056900050F8041B0029E7D130BC7047B0B581EA4F
:1056A000030C0CF0004C40F2FF7515EA11541DBFBD
:1056B00015EA1357AC42AF4239E0E41923EA4553E7
:1056C00043F48013C90241F0004141EA505EC70231
:1056D0001100A7FB020200284FF00000EEFB0120A2
:1056E0004FF00001E3FB072118BF42F00102401810
:1056F00000214941E3FB0E01A4F580640F0302D2AF
:1057000052004041494154F101046CDD470872F1F7
:10571000004250F1000051EB0451A1F580115CBF33
:1057200041EA0C01B0BD4CEA05510020B0BD05EACC
:105730001357AC4214BFAF4241E050EA410E1CBFC8
:1057400052EA430E02E061460020B0BD24423C44D0
:105750001BD15FEA070EF6D0090302BF0146002005
:10576000AEF1140EB1FA81F7AEEB070401FA07FEB1
:105770000C37C7F1200100FA07F7C8404EEA000EC7
:1057800023EA455343F48013A2E733F00043B3FA0E
:1057900083F704BFB2FA82FE77440B3FE41BB7F1F4
:1057A000200E2FBF02FA0EF3BB40C7F1200E22FAE3
:1057B0000EFE38BF43EA0E03BA40641C82E750EA8B
:1057C000410E14BF52EA430E6FF000014FF4001770
:1057D00017EB430F8ABF194617EB410FB5E74CEAA9
:1057E00005510020B0BDD4F10104B4F120070FDA57
:1057F000C4F12007520828BF42F0010210FA07F551
:1058000001FA07F7E1BF2A43E0403843E1400FE0E7
:10581000352C98DCC7F1200452EA400220FA07F246
:1058200018BF42F0010231FA07F0A1400A430021FB
:1058300072F1004250F1000051EB0C01B0BD0000CC
:10584000F0B540F2FF7581EA030C0CF0004C15EA4C
:1058500011541DBF15EA1357AC42AF42E5E0BC41FD
:10586000C1F31301C3F31303801A994143F4801366
:1058700004D2641E4000494180185941C90241EADE
:105880005051B1FBF3F603FB1611A2FB0675D7EBE3
:10589000C020A94102D2761E80185941C90241EAAE
:1058A0005051B1FBF3FE03FB1E11A2FB0E75D7EBAB
:1058B000C020A94103D2AEF1010E801859418902DE
:1058C00041EA9051760546EA8E2EB1FBF3F603FBD2
:1058D0001611A2FB0675D7EB8020A94102D2761ED5
:1058E00080185941C90241EA50514EEA060EB1FBF7
:1058F000F3F603FB1611A2FB0675D7EBC020A941F6
:1059000002D2761E80185941C90241EA5051B1FBBA
:10591000F3F703FB1711A2FB0735D3EBC020A94116
:1059200067F100070CBF004247F0010766F3D52777
:105930004FEA1E31B80814F5806412DDBD0775F119
:10594000004250EB0E5051EB045111F5801F5CBF2B
:1059500041EA0C01F0BD4CF07F6141F0E0410020D4
:10596000F0BDBD076D0840EA0E5041F48011D4F13E
:105970000104B4F120060ADAC4F120060200E04076
:1059800001FA06F3E1401843B24015430EE0342C0F
:1059900013DCC6F1200445EA40056D0820FA06F242
:1059A000154321FA06F0A1400D43002175F1004294
:1059B00050F1000051EB0C01F0BD00205FEA0C013A
:1059C000F0BDCFB992185B41B3FA83F704BFB2FAC6
:1059D00082F6BF190B3FB7F120062FBF02FA06F37C
:1059E000BB40C7F1200622FA06F638BF3343BA405F
:1059F0001CB1E419641E33E77F4231F00041B1FA73
:105A000081F404BFB0FA80F6A4190B3CB4F120066F
:105A10002FBF00FA06F1A140C4F1200620FA06F6D5
:105A200038BF3143A0403C1B1AE7AC421ABF05EA1D
:105A30001357AF4212E050EA41061CBF52EA430638
:105A4000BFE750EA4107304661461CBF41EA0551B5
:105A5000F0BD52EA430C08BFC143F0BD00204FF433
:105A6000001616EB410F98BF16EB430F08BF16EB5D
:105A7000410F24BFC14305E016EB430F0CBF614645
:105A80004CEA0551F0BD000070B44FF0004591EABA
:105A9000030F40F173806B40841A71EB030603D24D
:105AA000001BB141121973414FF4001C1CEB410F54
:105AB00034BF7CEB430442E00C0DA4EB1356352EAF
:105AC0004FDC45EAC323DB0A45EAC121C912B6F11E
:105AD00020050DDD63FA05F6EB4086EA0305124268
