:020000040800F2
:1000000038580020B19D0008B99A0008BB9A000832
:10001000BD9A0008BF9A0008C19A000800000000BD
:1000200000000000000000000000000099810008AE
:10003000C39A00080000000041810008C59A00082A
:10004000699E00086D9E0008719E0008759E00085C
:10005000799E00087D9E0008819E0008859E00080C
:10006000899E00088D9E0008919E0008959E0008BC
:10007000999E00089D9E0008A19E0008A59E00086C
:10008000A99E0008AD9E0008B19E0008B59E00081C
:10009000D99A0008B99E0008BD9E0008E39A00089E
:1000A000C19E0008C59E0008C99E0008CD9E00089C
:1000B000D19E0008D59E0008EF9A0008D99E00083E
:1000C000DD9E0008E19E0008E59E0008E99E00080C
:1000D000ED9E0008F99A0008039B00080D9B00089C
:1000E000F19E0008F59E0008F99E0008FD9E00089C
:1000F000019F0008059F0008099F00080D9F000848
:10010000119F0008159F0008199F00081D9F0008F7
:10011000219F0008259F0008299F00082D9F0008A7
:10012000319F0008359F0008399F00083D9F000857
:10013000419F0008459F0008499F00084D9F000807
:10014000519F0008559F0008599F00085D9F0008B7
:10015000619F0008659F0008699F0008179B0008C1
:100160006D9F0008719F0008759F0008799F000827
:100170007D9F0008819F0008859F00080000000007
:10018000899F00088D9F000880B5DFF804240021B6
:100190000FF2AD0001F01AFBDFF8F8130860DFF88A
:1001A000F82300210FF25D1001F010FBDFF8EC13D3
:1001B0000860DFF8EC2300210FF2693001F006FB44
:1001C000DFF8E0130860DFF8E02300210FF2314090
:1001D00001F0FCFADFF8D4130860DFF8D423002123
:1001E000DFF8D00301F0F2FADFF8CC130860DFF893
:1001F000CC230021DFF8C80301F0E8FADFF8C413CC
:100200000860DFF8C4230021DFF8C00301F0DEFA44
:10021000DFF8BC130860DFF8BC230021DFF8B80367
:1002200001F0D4FADFF8B4130860DFF8B42300213A
:10023000DFF8B00301F0CAFADFF8AC1B086001BDBB
:1002400010B50400DFF8A0139FED280A81ED3E0AE7
:10025000DFF89803DFF89823C0F8F82081ED3D0A15
:10026000DFF89023C0F8F4209FED210A81ED330AD6
:10027000DFF88423C0F8CC2081ED340ADFF87C233A
:10028000C0F8D0209FED1B0A81ED290ADFED1A0A84
:10029000C0ED290A81ED2A0A9FED180A80ED2A0A8D
:1002A0009FED171A81ED1F1AC0ED1F0A81ED201A6C
:1002B00080ED200ADFF83C2B4A65DFF83C2B4265D5
:1002C000DFF8382B8A65DFF8382B8265DFF8342BAE
:1002D000CA62DFF8342BC262DFF8302B0A63DFF822
:1002E000341B0163012001F0E3FAFBE7869592409D
:1002F000CDAB8140072862405111863F7D8D073F7D
:100300006F2344402DE9F84F0400DFF8105B287894
:1003100006281AD028780A2817D028780E2814D052
:100320002878122811D0287816280ED02878172877
:100330000BD028781A287DD1DFF8EC0AB0F9180024
:1003400000B201F0D9FA002874D1DFF8E06A306811
:10035000002800F0E380DFF8D87A3868002800F041
:10036000DD80DFF8D08A0020C8F87C000020C8F8C3
:1003700078000020C8F8800028781B2830DADFF8E1
:10038000B89A0020C9F80000DFF8B0AA9AF8000077
:1003900001280BD14FF47A730122DFF8A41ADFF899
:1003A000A40A01F0ACFD00208AF800002878042897
:1003B0000BD02878082808D02878102805D028786D
:1003C0000C2802D02878142803D14FF4966001F04D
:1003D0006FFA0120C9F800002878401C287003E05B
:1003E0000120DFF8641A08700020306000203860B7
:1003F0000020DFF8581A0860D8F80800DFF8501A13
:1004000008602878052840F0898028780A2840F07C
:10041000858028780F2840F08180DFF8380A02F0C4
:1004200081FBDFF8340A02F07DFBDFF8300A02F0CE
:1004300079FB73E0DFF8F469306819286ED3DFF8D0
:10044000F0793868192869D3DFF8008AD8F80000F5
:10045000192863D3DFF8DC990020C9F87C0000205C
:10046000C9F878000020C9F8800028781B2830DA05
:10047000DFF8C4A90020CAF80000DFF8C0B99BF873
:10048000000001280BD14FF47A730122DFF8B01974
:10049000DFF8B00901F033FD00208BF80000287868
:1004A00004280BD02878082808D028780C2805D0F4
:1004B0002878102802D02878142803D14FF49660A9
:1004C00001F0F6F90120CAF800002878401C2870D5
:1004D00003E00120DFF87019087000203060002070
:1004E00038600020C8F80000D9F80800DFF860196B
:1004F00008602878052811D128780A280ED1287894
:100500000F280BD1DFF84C0902F00CFBDFF848098B
:1005100002F008FBDFF8440902F004FB0A2001F0B6
:10052000C7F9F2E670B504000125DFF8FC68B6F9FA
:10053000160000B201F0E0F902281AD102F0A9FB7E
:100540000120DFF8F41808602800C0B2002810D09D
:10055000B6F9080000B201F0CFF9002804D1192043
:10056000DFF8B818087003E00120DFF8B018087051
:100570006D1EB6F9160000B201F0BEF9022803D0D4
:100580000020DFF8B4180860052001F091F9CCE7ED
:10059000B09B000838530020D49B00083C53002037
:1005A000F89B0008405300201C9C00084453002086
:1005B000409C0008650E000848530020649C000819
:1005C000311200084C530020889C00087515000863
:1005D00050530020AC9C00083916000854530020EA
:1005E000D09C00082D170008C8490020584B002057
:1005F0002D56C53FB59902402EBDCD3FC15A783F1B
:1006000070B52DED028B0400DFF82C08006800287F
:1006100000F0DB83DFF804582878012810D1DFF8D8
:100620001468DFF83C08F0670020B0674FF4C8702A
:1006300001F03EF90020F0672878401C2870C4E3E0
:10064000287802280CD19FEDC81ADFED030A9FED30
:10065000030A02F053FDB8E37C845940C00697407A
:100660002878032827D1DFF8CC67DFF89C0BF067E8
:100670000020B0674FF4487001F01AF99FEDBB8A73
:1006800086ED1F8ADFF8840BB0672878032803D132
:10069000012001F00DF9F8E72878042840F095834F
:1006A0000020B06786ED1F8A4FF4617001F000F9F9
:1006B0000020F06789E3287804280CD19FEDAA1A5E
:1006C000DFEDAB0A9FEDAB0A02F018FD0120DFF869
:1006D0006C17087079E32878052825D1DFF854676E
:1006E000DFF82C0BF067DFF82C0BB0674FF42F709E
:1006F00001F0DEF8DFF8140BF067DFF81C0BB067D1
:100700004FF4FA7001F0D4F82878401C28700120CA
:10071000DFF8081B08700020F0670020B067002099
:10072000DFF81817087050E3287806281ED1DFF884
:10073000200790ED001ADFEDCF0A9FEDCF0A02F0FF
:10074000DDFCDFF8D85A287801280AD14FF47A73F3
:100750000122DFF8CC1ADFF8EC0601F0D0FB002014
:1007600028700020DFF8D41608702EE328780728B8
:100770002BD10020DFF8C4160870DFF8B8665FF0F0
:100780003F40F0670020B0674FF4487001F090F8E8
:100790009FED768A86ED1F8ADFF8700AB0672878A9
:1007A000072803D1012001F083F8F8E7287808280A
:1007B00040F00B8386ED1F8A0020B0674FF4617014
:1007C00001F076F80020F067FFE2287808280ED1C3
:1007D000DFF87C0690ED001ADFEDA80A9FEDA80A6D
:1007E00002F08CFC0120DFF854160870EDE2287846
:1007F000092825D1DFF83C66DFF8280AF067DFF822
:10080000140AB0674FF42F7001F052F8DFF8180A9D
:10081000F067DFF8040AB0674FF4FA7001F048F8A7
:100820002878401C28700120DFF8F019087000209B
:10083000F0670020B0670020DFF800160870C4E2FF
:1008400028780A281ED1DFF8080690ED001ADFED9F
:10085000890A9FEDCC0A02F051FCDFF8C0592878D4
:1008600001280AD14FF47A730122DFF8B419DFF8B6
:10087000D40501F044FB002028700020DFF8BC15EF
:100880000870A2E228780B282BD10020DFF8AC15E5
:100890000870DFF8A0655FF03F40F0670020B067A8
:1008A0004FF4487001F004F89FED308A86ED1F8AFE
:1008B000DFF85809B06728780B2803D1012000F031
:1008C000F7FFF8E728780C2840F07F8286ED1F8A32
:1008D0000020B0674FF4617000F0EAFF0020F0677D
:1008E00073E228780C280CD19FED1F1ADFEDCD0A9A
:1008F0009FEDCD0A02F002FC0120DFF840150870E0
:1009000063E228780D2823D10020DFF83015087025
:10091000DFF820655FF07E50F0670020B0674FF48D
:10092000967000F0C5FFDFF80409B0670020F0679B
:100930004FF42F7000F0BCFF2878401C2870012075
:10094000DFF8D81808700020F0670020B0673CE29C
:1009500028780E2827D1DFF8F80490ED001ADFED93
:10096000C40A9FEDC40A07E000000000CDCC4CBED5
:1009700078BBB43F59358A4002F0C0FBDFF89C5881
:10098000287801280AD14FF47A730122DFF89018F1
:10099000DFF8B00401F0B3FA002028700020DFF87F
:1009A0009C14087011E228780F282BD10020DFF862
:1009B0008C140870DFF87C645FF03F40F067002023
:1009C000B0674FF4487000F073FF9FEDC88A86ED62
:1009D0001F8ADFF83808B06728780F2803D1012074
:1009E00000F066FFF8E72878102840F0EE8186EDE9
:1009F0001F8A0020B0674FF4617000F059FF00209B
:100A0000F067E2E1287810280CD19FEDC21ADFEDE3
:100A1000850A9FEDC10A02F071FB0120DFF81C146A
:100A20000870D2E1287811282CD10020DFF80C14AE
:100A30000870DFF800645FF07E50F0670020B06758
:100A40004FF4967000F034FFDFF8E007B067002045
:100A5000F0674FF42F7000F02BFF2878401C2870AF
:100A60000120DFF8B81708700020F0670020B06799
:100A7000ABE100BFFC025D40CEB882408F3CB23F8C
:100A8000B26A7440287812281ED1DFF8C40390EDB2
:100A9000001ADFED770A9FEDCF0A02F02FFBDFF897
:100AA0007C57287801280AD14FF47A730122DFF8A5
:100AB0007017DFF8900301F022FA00202870002060
:100AC000DFF87813087080E1287813282AD10020F5
:100AD000DFF868130870D74E5FF03F40F0670020E2
:100AE000B0674FF4487000F0E3FE9FED808A86ED1A
:100AF0001F8ADFF81807B0672878132803D1012070
:100B000000F0D6FEF8E72878142840F05E8186EDE4
:100B10001F8A0020B0674FF4617000F0C9FE00200A
:100B2000F06752E1287814280BD19FED7A1ADFED97
:100B30003D0A9FEDA90A02F0E1FA0120BF490870C1
:100B400043E1287815281FD10020BC490870B94E10
:100B50005FF07E50F0670020B0674FF4967000F0B1
:100B6000A7FEDFF8C806B0670020F0674FF42F70CB
:100B700000F09EFE2878401C28700020F0670020BE
:100B8000B06722E19C716540287816280AD19FED54
:100B9000611ADFED920ADFF8140B90ED000A02F003
:100BA0006FFE12E1287817280AD19FED5A1ADFF854
:100BB000000BD0ED000A9FED8A0A03F029F904E149
:100BC0002878182832D14FF47A730122DFF8E41A1A
:100BD0009C4801F094F9974E0020B067DFF8D80ADE
:100BE000F0674FF4AF6000F063FE0020F067002074
:100BF000B067642000F05CFE2878401C2870B7EED7
:100C0000000A86ED1F0A86ED1E0A4FF4FA7000F006
:100C10004FFE0020F0670020B0670020C6F880007B
:100C2000D3E000BF2D54B33FB26A5440287819284E
:100C300022D17D4DB5F9180000B200F05DFE00280C
:100C400004D19FED680A02F039FDBEE0B5F9180045
:100C500000B200F051FE022840F0B7809FED2D1A3F
:100C6000DFED620A9FED620A02F048FAADE000BFD4
:100C7000CAE75F409C71454028781A2840F0A5805B
:100C8000694EB6F9180000B200F036FE00281BD1FC
:100C90009FED541AB0EE418ADFF82C0AD0F880009C
:100CA00003F0B2FADFF8242ADFF8243A03F0D0FA8E
:100CB00003F08CFB00EE900AB0EE481A5D4890ED10
:100CC000000A02F0CBFE80E0B6F9180000B200F096
:100CD00013FE022879D128781A2809D19FED4C0AF1
:100CE00002F0ECFC012000F0E3FDF4E7CDCC4CBEBB
:100CF0001A20287028781A2810D19FED451ADFEDA8
:100D0000050A9FED450A03F083F9012000F0D0FDAC
:100D1000F0E700BF00000000B26A3440494E4FF4D3
:100D20007A730122DFF8AC19300001F0E8F840F6E0
:100D3000980000F0BDFD1A20287028781A280BD1E1
:100D40009FED331ADFED360A9FED360A03F060F9A6
:100D5000012000F0ADFDF0E71A20287028781A284D
:100D600007D19FED200A02F0A9FC012000F0A0FDB0
:100D7000F4E71A2028704FF47A730122DFF858192B
:100D8000300001F0BCF828781A281ED19FED151A02
:100D9000B0EE418ADFF83009D0F8800003F034FA71
:100DA000DFF82829DFF8283903F052FA03F00EFBA8
:100DB00000EE900AB0EE481A1E4890ED000A02F0CC
:100DC0004DFE012000F074FDDDE7012000F070FD14
:100DD0001AE400BF9C7125407E371140C65E00407A
:100DE0006EBF4F3E920A0640585300204518E43F1C
:100DF000AA54B83FABC02340F3ED833F332D2340CB
:100E0000F7DB063F75220440FF50853FFF63044037
:100E100080926A4014AB073F228BD43F2C540020B1
:100E200000000000228B943FF85100209C530020CA
:100E3000A0530020E84C0020245300202D54002013
:100E4000AD010020245100202A540020A45300208A
:100E5000985300202C010020500100207401002034
:100E60009A99D93F38B50400DFF87018086800284F
:100E700040F0E480DFF8680800781B2880F2DE800C
:100E800040F23340DFF85C184A8882420ADB4A8825
:100E900040F26A539A4205DADFF84C28DFF84C3802
:100EA000D36738E04A8840F26A539A4209DB4A889D
:100EB000B2F5D46F05DADFF830285FF03F43D3672F
:100EC00029E040F297224B8893420ADB4B8840F29C
:100ED000CE35AB4205DADFF81028DFF81438D367D7
:100EE00019E04B8840F26115AB4208DB4B88934216
:100EF00005DADFF8F4275FF07C53D3670BE04A880C
:100F000040F2CE339A4206DB4A88824203DADFF8A7
:100F1000D8270023D3670A8882420ADB0A8840F276
:100F20006A539A4205DADFF8C027DFF8C4379367BF
:100F300038E00A8840F26A539A4209DB0A88B2F51F
:100F4000D46F05DADFF8A0275FF07C53936729E0C0
:100F500040F297220B8893420ADB0B8840F2CE3591
:100F6000AB4205DADFF88027DFF88037936719E0B6
:100F70000B8840F26115AB4208DB0B88934205DA1F
:100F8000DFF864275FF03F4393670BE00A8840F285
:100F9000CE339A4206DB0A88824203DADFF848271A
:100FA00000239367CA8882420ADBCA8840F26A53E8
:100FB0009A4205DADFF830079549C0F880101EE143
:100FC000CA8840F26A539A420ADBCA88B2F5D46FE3
:100FD00006DADFF814075FF07E51C0F880100EE1EA
:100FE00040F29722CB8893420ADBCB8840F2CE3581
:100FF000AB4205DADFF8F0068449C0F88010FEE065
:10100000CB8840F26115AB4208DBCB88934205DA0E
:10101000DFF8D4067F49C0F88010F0E0CA8840F2BB
:10102000CE339A42C0F2EB80C988814280F2E780D9
:10103000DFF8B4060021C0F88010E0E0086800285E
:1010400040F0DD80DFF8980600781B28C0F2D780DA
:1010500040F23340DFF88C164A8882420ADB4A8825
:1010600040F26A539A4205DADFF87C265FF03F438C
:10107000D36738E04A8840F26A539A4209DB4A88CB
:10108000B2F5D46F05DADFF860265FF03F43D3672F
:1010900029E040F297224B8893420ADB4B8840F2CA
:1010A000CE35AB4205DADFF840265FF07C53D367DC
:1010B00019E04B8840F26115AB4208DB4B88934244
:1010C00005DADFF824265FF07C53D3670BE04A880B
:1010D00040F2CE339A4206DB4A88824203DADFF8D6
:1010E00008260023D3670A88824209DB0A8840F277
:1010F0006A539A4204DADFF8F0250023936735E05B
:101100000A8840F26A539A4208DB0A88B2F5D46F23
:1011100004DADFF8D4250023936727E040F2972212
:101120000B88934209DB0B8840F2CE35AB4204DAE0
:10113000DFF8B4250023936718E00B8840F26115AF
:10114000AB4207DB0B88934204DADFF89C250023CF
:1011500093670BE00A8840F2CE339A4206DB0A8896
:10116000824203DADFF8802500239367CA8882422F
:101170000ADBCA8840F26A539A4205DADFF868054A
:101180002349C0F880103AE0CA8840F26A539A4274
:101190000ADBCA88B2F5D46F06DADFF84C055FF0D7
:1011A0007E51C0F880102AE040F29722CB8893420B
:1011B0000ADBCB8840F2CE35AB4205DADFF82805F2
:1011C0001249C0F880101AE0CB8840F26115AB429A
:1011D00008DBCB88934205DADFF80C050D49C0F82F
:1011E00080100CE0CA8840F2CE339A4207DBC988EF
:1011F000814204DADFF8F0040021C0F880100520F5
:1012000000F056FB30E60000666666BF9A9919BF8B
:101210009A99193F000080BF3333B3BF2E5400208A
:10122000AE0100203333333F333333BF0000C0BF40
:101230002DE9F14FDFF8A80400781B28C0F2968151
:10124000DFF8A044B4F9160000B200F055FB022804
:1012500040F08C81B4F91A0000B200F04DFB002878
:1012600003D1012000F024FBF4E7B4F9160000B22A
:1012700000F042FB022840F06E81DFF878542868C5
:10128000002800F168812868062190FBF1F0401CDD
:10129000DFF8641408602868062805DA2868401C0E
:1012A000DFF85814086004E02868401FDFF84C1489
:1012B0000860DFF84C64DFF844744FF47A7301225D
:1012C000DFF8140439680844411E300000F017FEAE
:1012D000DFF830143A682820424301EB0200DFF8BF
:1012E0001814096850F82100DFF81C140860DFF8B2
:1012F0001C84DFF8D4133A682820424301EB020033
:10130000DFF8F413096850F82100C8F80000DFF88E
:10131000F80390ED000AF1EE040AB4EE600AF1EE73
:1013200010FA15D5DFF8C093DFF89003C9F87C00F8
:101330000020C9F87800642000F0BAFA0020C9F84B
:101340007C000020C9F878004FF4FA7000F0B0FA81
:10135000DFF85CA3DFF89093D9F80400CAF8000026
:10136000DFF8ACB39BF8000000280DD19FEDB11A57
:10137000DAED000ADFF8900390ED000A02F05CFC61
:10138000012000F095FAEBE700208BF80000002028
:10139000C9F878000020C9F87C00502000F088FAD5
:1013A000DFF854030168012940F09480386804286C
:1013B00045DB3868042840F0B480DFF8F0A2D9F8A3
:1013C0000000CAF800009BF8000000280BD19FED38
:1013D000991AD8ED000A9AED000A02F03FFB0120AD
:1013E00000F066FAEFE700208BF800004FF47A7304
:1013F0000122B849300000F082FD40F6980000F06C
:1014000057FAD9F80000CAF800009BF8000000283D
:1014100011D19FED881AAC493A682820424301EB6C
:101420000200D0ED020A9AED000A02F017FB01203B
:1014300000F03EFAE9E700208BF8000071E0D9F8EF
:101440000400CAF800009948D9F8001001609BF820
:10145000000000280CD19FED771AD8ED000A9348C0
:1014600090ED000A02F0FAFA012000F021FAEEE70E
:1014700000208BF800004FF47A7301229549300068
:1014800000F03DFD40F6980000F012FADFF81C82F3
:10149000D9F80000C8F80000D9F80400CAF8000024
:1014A0009BF80000002811D19FED621A86493A6826
:1014B0002820424301EB0200D0ED020A98ED000A19
:1014C00002F0CCFA012000F0F3F9E9E700208BF8F4
:1014D000000026E00068022823D1DFF8D0A1D9F867
:1014E0000000CAF800009BF8000000280BD19FED17
:1014F000511AD8ED000A9AED000A02F0AFFA012065
:1015000000F0D6F9EFE700208BF800004FF47A7373
:1015100001227049300000F0F2FC4FF4E16000F06D
:10152000C7F93868052813DAB4F91A0000B200F0D8
:10153000E3F9002803D1012000F0BAF9F4E74FF4F1
:101540007A7301227349300000F0D9FC01F08CFB62
:101550005FF0FF302860B4F91A0000B200F0CCF957
:10156000022803D1012000F0A3F9F4E7012000F0E4
:101570009FF95FE638B5040001F048FD01F0BCFBBF
:1015800001F0F4FC03F02CF803F004F903F073F914
:10159000534800781B2848DB5248B0F9160000B2C7
:1015A00000F0AAF9022840D15B48B1EE0C0A80EDA8
:1015B000000A5A4981ED000A594A82ED000A9FED5E
:1015C0003F0A80ED010A81ED010A82ED010A5548CA
:1015D0005549016046498160434D9FED160AD5ED9E
:1015E000020A70EE600A9FED361AF4EE410AF1EE3F
:1015F00010FA10DBD5ED020A70EE600A9FED311A89
:10160000F4EE410AF1EE10FA05D50021C161002087
:10161000C5F8800009E0D5ED020A30EE600A01F05D
:10162000EBF9B1EE400A85ED200A012000F040F907
:10163000A2E70000920A064038B50400294DB5F92A
:10164000140000B200F058F9002811D14FF47A7359
:10165000012220492A4800F052FCB5F9140000B2DA
:1016600000F04AF900281CD1012000F021F9F4E72C
:10167000B5F9140000B200F03FF9022811D14FF47F
:101680007A73012223491E4800F039FCB5F9140091
:1016900000B200F031F9022803D1012000F008F96E
:1016A000F4E7012000F004F9C8E70000905300209F
:1016B00094530020B2010020CDCC2C403333333F73
:1016C0000AD7A3BC0BD7A33C584B00209A999999F1
:1016D0009999B9BFB0010020A40100202453002033
:1016E0002C540020F8510020E84C00209A9999BE13
:1016F0009A99993E980100202C53002028530020ED
:1017000024510020C84900203053002034530020C9
:101710002A540020B10100206C000020900000201D
:10172000B4000020740100200000204010B5040027
:10173000012000F0BDF8FBE710B4020052B2002A0D
:1017400006D40A01DFF88C31040064B21A5509E0AE
:101750000A01DFF88431040064B214F00F0423445A
:1017600003F8042C10BC704780B500217FF0040002
:10177000FFF7E2FF01BDEFF30580002802D07FF004
:1017800005000AE0DFF854110868002803D10120A1
:101790000860002001E05FF0FF30704710B5EFF304
:1017A0000580002802D07FF005000EE0DFF82C4114
:1017B0002068012807D1FFF7D7FF0220206003F03F
:1017C0005CFA002001E05FF0FF3010BD2DE9FF471B
:1017D00007008846140000200390EFF305800028DE
:1017E00062D1380000285FD0802082461820050092
:1017F000002081465FF0FF300600002C33D02068C7
:10180000002801D020688146A069002801D0A06985
:101810000500002D04D0392D02D22079C00701D552
:10182000002042E06069002802D06069800882469A
:10183000A06800280BD0E0685C2808D32069002845
:1018400005D06069002802D0012006000DE0A068E4
:1018500000280AD1E068002807D12069002804D1B7
:101860000020060001E000200600012E0CD1A06837
:10187000029020690190009543465246494638003F
:1018800003F086F803900FE0002E0DD103A801901D
:1018900000954346524692B24946380003F0C7F8D5
:1018A000012801D000200390039804B0BDE8F08720
:1018B00038B50400EFF30580002802D07FF005055D
:1018C00005E00025002C02D0200003F0AFF928002D
:1018D00032BD000000E400E018ED00E020530020DD
:1018E000034B0360034B0B6080231360704700BF02
:1018F000B04E002014460020010040F261100A00A2
:1019000012B2824204DB0A0012B2B2F5D46F02DBDB
:101910005FF0FF3028E00A0012B2824207DB0800C5
:1019200000B240F25922904201DA00201CE0080087
:1019300000B240F25922904207DB080000B240F2A8
:101940004D42904201DA01200EE0080000B240F260
:101950004D42904206DB080000B2B0F5D46F01DAC8
:10196000022001E05FF0FF307047000038B52DED38
:10197000048BB0EE409AB0EE608AF0EE418A19EE28
:10198000100A02F041FC0022DFF8403403F038FD79
:101990000022DFF8EC3403F005FE04000D0038EE01
:1019A000680A10EE100A02F02FFC22002B0003F050
:1019B00027FD04000D0018EE900A02F025FC22001D
:1019C0002B0002F045FC02F001FD00EE100ABDEC18
:1019D000048B31BD70B52DED028BDFF8F443207818
:1019E000002811D0022841D01AD3042864D050D343
:1019F00006287AD071D3082800F09C80C0F085803A
:101A0000092800F0A280DCE1DFF8F0030078482824
:101A100003D12078401C207001E000202070D2E12A
:101A2000DFF8D8030178442917D10020DFF8A81384
:101A300008700020DFF8A81308700020DFF8A81352
:101A400008700020DFF8AC1308700020DFF8841362
:101A500008702078401C207007E00078482802D1E8
:101A60000120207001E000202070ACE1DFF8680365
:101A7000DFF888130978DFF864230378D1540178FC
:101A8000491C01700078202802DB2078401C20705F
:101A900099E1DFF84C03DFF864130978DFF8442399
:101AA0000378D1540178491C01700078082802DBC2
:101AB0002078401C207086E1CB48DFF8401309787D
:101AC000CA4A0378D1540178491C0170007808286B
:101AD00002DB2078401C207075E1C8480078C449BA
:101AE00008702078401C20706DE1C248C349097815
:101AF000C14A0378D1540178491C01700078042848
:101B000002DB2078401C20705DE1B249D1480A78A0
:101B1000825CD14B0D785A55B84A12780B78C25472
:101B20000878401C087008780C2802DB2078401CDC
:101B3000207048E1B14800784C2803D12078401C3F
:101B4000207001E0002020703DE1AC48007854286E
:101B500040F03481AA48A1490A8802804A8842801C
:101B60008A888280CA88C2800A8902814A89428121
:101B70008A898281CA89C2810A8A02824A8A428209
:101B80008A8A8282CA8AC2820A8B02834A8B4283F1
:101B90008A8B8283C98BC183924D9FEDB58ADFED1D
:101BA000B58AB0EE681AF0EE480AB5F9000000EE0A
:101BB000100AB8EEC00AFFF7D9FEDFEDAF0AB4EEA7
:101BC000600AF1EE10FA0EDAB0EE681AF0EE480A8A
:101BD000B5F9000000EE100AB8EEC00AFFF7C6FE25
:101BE000884880ED000AB0EE681AF0EE480AB5F9B0
:101BF000000000EE100AB8EEC00AFFF7B7FE8148F9
:101C000080ED000A9FED801ADFED800AB5F9020031
:101C100000EE100AB8EEC00AFFF7A8FEDFED7C0A5E
:101C2000B4EE600AF1EE10FA0FDB9FED7B1ADFEDE8
:101C30007B0AB5F9020000EE100AB8EEC00AFFF701
:101C400095FE744880ED000A0EE09FED731ADFEDFB
:101C5000730AB5F9020000EE100AB8EEC00AFFF7E9
:101C600085FE6C4880ED000A9FED6D1ADFED6D0A70
:101C7000B5F9040000EE100AB8EEC00AFFF776FED0
:101C8000694880ED000A9FED691ADFED690AB5F930
:101C9000060000EE100AB8EEC00AFFF767FE6548BE
:101CA00080ED000A644851490A6802604968634A45
:101CB0001160634D006828609FED628B4E4EB6F94F
:101CC000000003F093FD53EC182B03F099FB02F096
:101CD0007DFB5E490860B6F9020003F087FD53EC16
:101CE000182B03F08DFB02F071FB594908600021AD
:101CF0000800C0B20C281DDA564A0800C0B2105CB9
:101D0000012805D154480B00DBB2C05C00280AD082
:101D10000800C0B2105C00280AD14F480A00D2B2B5
:101D2000805C012804D10800C0B24C4A106001E078
:101D3000491CDDE795ED000AB5EE400AF1EE10FA18
:101D400009D595ED000ADFED460A30EE200A454838
:101D500080ED020A02E0434829688160244D28781A
:101D600001281CD14048017813290BD001780F2994
:101D700008D001780B2905D00178072902D0017815
:101D8000032902D10178491C01704FF47A730122B2
:101D90003A49364800F0B3F8002028700EE0287861
:101DA00004280BD14FF47A73012234492F4800F0F4
:101DB000A6F8012033490870002028700020207008
:101DC00001E000202070BDEC028B70BD0000F03FF0
:101DD0003254002037540020335400201C5200207D
:101DE00034540020005300203554002008530020B4
:101DF0002F54002036540020CC53002031540020B2
:101E0000F8510020A8530020533F4F3E1074DF408C
:101E100001004040AC53002098DDD33D4DA10C4162
:101E2000834E383EB4F50541B053002072C2343EB3
:101E3000FE58F240B4530020B8530020BC53002099
:101E4000C8530020FCA9F1D24D62503FC05300207E
:101E5000C4530020E0520020EC52002098010020E2
:101E6000DB0FC940E84C00202C54002024510020F6
:101E70007B4E0841F819973E0100C040AF01002099
:101E80000000D0403054002010B50400002C01D1D7
:101E9000012033E0A0690028FFD194F83D0000281C
:101EA00005D1002084F83C00200003F030FD242000
:101EB00084F83D002068C06830F400502168C86094
:101EC000200000F07BFB2068006930F4904021681E
:101ED00008612068406930F02A0021684861206864
:101EE000C06850F400502168C860002020642020A1
:101EF00084F83D00202084F83E00002010BD2DE92C
:101F0000FC4706000D0017009846002496F83D0097
:101F100020285DD1002D03D0380080B2002801D1E7
:101F2000012056E096F83C00012801D1022050E043
:101F3000012086F83C0000203064212086F83D0016
:101F400003F0FCFD8146B784F784B068B0F5805F8C
:101F500005D13069002802D10024AA4602E02C00F5
:101F60005FF0000A002086F83C00F08C00281ED0AC
:101F7000CDF800804B4600228021300000F0B5F9FA
:101F8000002801D0032024E0002C08D1BAF800007A
:101F9000C005C00D316848601AF1020A03E02078DC
:101FA00031684860641CF08C401EF084DDE7CDF899
:101FB00000804B4600224021300000F096F90028B6
:101FC00001D0032005E0202086F83D00002000E03D
:101FD0000220BDE8F68770B505000C00160095F8E4
:101FE0003E00202819D1002C03D0300080B20028F8
:101FF00001D1012012E095F83C00012801D1022016
:102000000CE0012085F83C0000202863320092B2E9
:102010002100280000F0B1F900E0022070BD2DE998
:10202000FC470600306807683068D0F80C803068DC
:10203000D0F814900020002517F00F04002C08D1D0
:10204000B80606D55FEA886003D5300000F03DFA97
:1020500049E1002C00F080805FEAC97002D418F4D6
:10206000907F79D017F00100C0B2002806D05FEA57
:10207000C85003D5306C50F001003064780708D5A3
:1020800019F00100C0B2002803D0306C50F00200FB
:102090003064B80708D519F00100C0B2002803D099
:1020A000306C50F00400306438070BD55FEA88606C
:1020B00004D419F00100C0B2002803D0306C50F0F5
:1020C00008003064306C002845D0B80605D55FEABA
:1020D000886002D5300000F0F8F930684069800966
:1020E00010F001000500306C000701D4002D2DD048
:1020F000300000F067F930684069400622D530684A
:10210000143050E8000F30F040000100306810F14A
:10211000140242E800100028F1D1B06B00280DD065
:102120000FF20930B16B0865B06B03F05BFD00285E
:1021300011D0B06BB16B096D88470CE0300003F033
:1021400065FD08E0300003F061FD04E0300003F0BD
:102150005DFD00203064C6E0306B012840F0B180A6
:10216000F80640F1AE805FEAC86040F1AA80002026
:1021700000903068006800903068406800900098D7
:102180003068406940065BD5B06B0068D0F804A0A9
:10219000504680B2002852D05046B18D80B288425D
:1021A0004DD2A6F82EA0B06BC069B0F5807F3FD0AD
:1021B00030680C3050E8000F30F480700100306857
:1021C00010F10C0242E800100028F1D13068143000
:1021D00050E8000F400840000100306810F1140280
:1021E00042E800100028F1D13068143050E8000FA8
:1021F00030F040000100306810F1140242E8001095
:102200000028F1D1202086F83E000020306330689D
:102210000C3050E8000F30F010000100306810F171
:102220000C0242E800100028F1D1B06B03F08CFCE6
:10223000B18DF08D091A89B2300003F0FEFC52E036
:10224000B08DB6F82EA0B0EB0A0AF08D002837D07A
:10225000504680B2002833D030680C3050E8000F70
:1022600030F490700100306810F10C0242E8001068
:102270000028F1D13068143050E8000F40084000C9
:102280000100306810F1140242E800100028F1D17A
:10229000202086F83E000020306330680C3050E883
:1022A000000F30F010000100306810F10C0242E81D
:1022B00000100028F1D1514689B2300003F0BDFC76
:1022C00011E0380606D55FEA086003D5300000F05B
:1022D000B9F808E0780606D55FEA486003D5300013
:1022E00000F0E3F8FFE7BDE8F3872DE9F0410500D2
:1022F0000E0017009846069C286800683040B042DF
:1023000001D1012000E000203900C9B2884231D15A
:1023100014F1010FF0D0002C05D003F00FFCB0EB4E
:1023200008008442E8D228680C3050E8000F30F4EE
:10233000D0700100286810F10C0242E8001000285B
:10234000F1D12868143050E8000F40084000010027
:10235000286810F1140242E800100028F1D1202072
:1023600085F83D00202085F83E00002085F83C00DF
:10237000032000E00020BDE8F08110B40300996262
:102380009A85DA8500201864222083F83E00002018
:1023900083F83C001869002805D01868C06850F41C
:1023A00080701C68E0601868406950F001001C688B
:1023B00060611868C06850F020001C68E060002070
:1023C00010BC704701680C3151E8001F31F4907166
:1023D0000A00016811F10C0343E800210029F1D142
:1023E0000168143151E8001F490849000A000168DA
:1023F00011F1140343E800210029F1D1016B0129F7
:102400000DD101680C3151E8001F31F010010A00B4
:10241000016811F10C0343E800210029F1D12021CA
:1024200080F83E10002101637047000038B50400B9
:10243000A56B0020E8850020E884280003F0E6FB77
:1024400031BD0000010091F83D0021282BD18868A2
:10245000B0F5805F0DD1086900280AD1086A020032
:102460001088C005C00D0B685860086A801C08629F
:1024700005E0086A431C0B6200780B685860C88C42
:10248000401EC88480B200280BD10868C06830F0B4
:1024900080000B68D8600868C06850F040000B6886
:1024A000D860002000E00220704710B504002068CA
:1024B000C06830F040002168C860202084F83D00EA
:1024C000200003F001FC002010BD7CB5040094F84E
:1024D0003E00222870D1A068B0F5805F0DD1206940
:1024E00000280AD10025A66A20684068C005C00DF2
:1024F0003080A06A801CA06217E0A56A0026A06850
:10250000B0F5805F05D0A068002806D120690028BA
:1025100003D120684068287004E02068406810F00B
:102520007F002870A06A401CA062E08D401EE085FC
:1025300080B200283ED12068C06830F020002168B9
:10254000C8602068C06830F480702168C860206866
:1025500040694008400021684861202084F83E001E
:10256000206B012821D10020206320680C3050E826
:10257000000F30F010000100206810F10C0242E85A
:1025800000100028F1D120680068C00608D500209E
:1025900000902068006800902068406800900098D3
:1025A000A18D200003F049FB02E0200003F046FB70
:1025B000002002E0002000E0022076BD2DE9F84F67
:1025C00084B005002868016931F44051E86801438E
:1025D00028680161D5F808B0286950EA0B0B6869D2
:1025E00050EA0B0BE86950EA0B0B2868C168B24847
:1025F00001405BEA01012868C1602868416931F443
:102600004071A8690143286841612868AB49884244
:1026100003D02868AA49884203D103F005FC0400CE
:1026200002E003F0F6FB0400E869B0F5004F40F06B
:10263000A1805FF0640A022600275FF019085FF0AE
:10264000000922000023A8FB020108FB031109FB7B
:102650000211CDE9000168680021A6FB002306FBFA
:10266000013307FB0033DDE9000103F045FC642181
:10267000B0FBF1F0039022000023A8FB020108FB4D
:10268000031109FB0211CDE9000168680021A6FBD6
:10269000002306FB013307FB0033DDE9000103F0F3
:1026A0002BFC029022000023A8FB020108FB03116F
:1026B00009FB0211CDE9000168680021A6FB002397
:1026C00006FB013307FB0033DDE9000103F014FCD6
:1026D0006421B0FBF1F102980AFB1101C80032300D
:1026E0006421B0FBF1F0400010F4F870039910EB96
:1026F0000110029022000023A8FB020108FB031135
:1027000009FB0211CDE9000168680021A6FB002346
:1027100006FB013307FB0033DDE9000103F0ECFBAE
:10272000009022000023A8FB020108FB031109FB13
:1027300002118046894668680021A6FB002306FB3B
:10274000013307FB00334046494603F0D5FB6421C3
:10275000B0FBF1F100980AFB110A5FEACA003230BF
:102760006421B0FBF1F111F0070102980918286803
:1027700081609EE0042600275FF0640A5FF019087C
:102780005FF0000922000023A8FB020108FB0311EF
:1027900009FB0211CDE9000168680021A6FB0023B6
:1027A00006FB013307FB0033DDE9000103F0A4FB66
:1027B0006421B0FBF1F0039022000023A8FB02018A
:1027C00008FB031109FB0211CDE900016868002133
:1027D000A6FB002306FB013307FB0033DDE9000104
:1027E00003F08AFB029022000023A8FB020108FBF1
:1027F000031109FB0211CDE9000168680021A6FB65
:10280000002306FB013307FB0033DDE9000103F081
:1028100073FB6421B0FBF1F102980AFB110108017E
:1028200032306421B0FBF1F010F0F000039910EBAE
:102830000110029022000023A8FB020108FB0311F3
:1028400009FB0211CDE9000168680021A6FB002305
:1028500006FB013307FB0033DDE9000103F04CFB0D
:10286000009022000023A8FB020108FB031109FBD2
:1028700002118046894668680021A6FB002306FBFA
:10288000013307FB00334046494603F035FB642122
:10289000B0FBF1F100980AFB110A5FEA0A1032302E
:1028A0006421B0FBF1F111F00F01029809182868BA
:1028B000816005B0BDE8F08FF369FFFF00100140B3
:1028C0000014014010B52DED088B0400F0EE408A95
:1028D00094ED040A38EEC09AF0EE689A94ED040A7A
:1028E000F0EE000AB0EE681A00EE601A94ED030AEA
:1028F00031EE00AA94ED010A60EE29AA94ED060AD1
:10290000B4EE6A0AF1EE10FA0BD594ED060AB5EEB4
:10291000400AF1EE10FA04D094ED060AF0EE40AA57
:1029200015E094ED060AB1EE400AF4EE40AAF1EE8D
:1029300010FA0CD594ED060AB5EE400AF1EE10FA45
:1029400005D094ED060AB1EE400AF0EE40AA94EDEF
:10295000050AB4EE680AF1EE10FA08D494ED050AFF
:10296000B1EE400AF4EE408AF1EE10FA0AD594ED89
:10297000000AB0EE6A8A00EE098A94ED020A00EEBF
:102980000A8A01E09FED668A2069E060C4ED048A4E
:1029900018EE100A01F038FC31F0004141EC1B0B3D
:1029A000206A01F031FC53EC1B2B03F0BDFB1ED25F
:1029B00094ED080AB5EE400AF1EE10FA17D018EEC1
:1029C000100A01F021FC31F0004141EC1B0B94EDA9
:1029D000080A20EE080A10EE100A01F015FC53EC6C
:1029E0001B2B02F0DFFD01F0F1FC08EE100AB0EE47
:1029F000480ABDEC088B10BD10B52DED088B040006
:102A0000F0EE408AB0EE689A94ED070A30EE280A9C
:102A100084ED070AD4ED079A94ED040A38EEC0AAB3
:102A200094ED010A60EE29AA94ED060AB4EE6A0A52
:102A3000F1EE10FA0BD594ED060AB5EE400AF1EE70
:102A400010FA04D094ED060AF0EE40AA15E094EDD9
:102A5000060AB1EE400AF4EE40AAF1EE10FA0CD5E7
:102A600094ED060AB5EE400AF1EE10FA05D094EDA9
:102A7000060AB1EE400AF0EE40AA94ED050AB4EE63
:102A8000680AF1EE10FA08D494ED050AB1EE400A96
:102A9000F4EE408AF1EE10FA0AD594ED000AB0EE99
:102AA0006A8A00EE098A94ED020A00EE0A8A01E0C1
:102AB0009FED1B8A18EE100A01F0A6FB31F00041D1
:102AC00041EC1B0B206A01F09FFB53EC1B2B03F026
:102AD0002BFB1ED294ED080AB5EE400AF1EE10FA77
:102AE00017D018EE100A01F08FFB31F0004141ECD5
:102AF0001B0B94ED080A20EE080A10EE100A01F0F4
:102B000083FB53EC1B2B02F04DFD01F05FFC08EE44
:102B1000100AC4ED048AB0EE480ABDEC088B10BD63
:102B200000000000002101610021C1600021C1619D
:102B3000704730B4002513E050F8042BD30744BF8E
:102B4000A9F101039A18091F042942F8045BFAD27B
:102B500013468C0744BF15809B1CC90748BF1D70D6
:102B600050F8041B0029E7D130BC704710B4554819
:102B700055490A78554B04681A550268322A03DA17
:102B80000268521C026001E0002202605048027894
:102B9000002A06D0022A1ED00DD3042A36D02BD309
:102BA0005EE009780D2903D10178491C017001E02C
:102BB0000021017056E00A780A2A06D10021454A10
:102BC00011700178491C017004E009780D2901D0C9
:102BD0000021017046E03F4A09783F4B14781955AF
:102BE0001178491C11701178182904DB002111702B
:102BF0000178491C017035E009780A2903D1017870
:102C0000491C017001E0002101702BE009780D29B9
:102C100023D13249304A92ED030ADFED270A80EED4
:102C2000200A81ED000A2E4B92ED040ADFED220A04
:102C300080EE200A83ED000A2A4C92ED050ADFEDB2
:102C40001F0A80EE200ADFED1E0A20EE200A84ED26
:102C5000050A09682160196861600021017001E0BE
:102C60000021017010BC704780B541208DF8000034
:102C700043208DF8010054208DF8020030208DF89B
:102C800003004FF47A73042269461748FFF737F9B7
:102C900001BD1CB5154C207801280CD014480078D3
:102CA0008DF800004FF47A73012269461148FFF74E
:102CB00026F90120207013BD00007A44000034433F
:102CC000DB0F494018530020265400204C4E0020B2
:102CD00027540020285400203C520020105300208C
:102CE00014530020E84C00205850002029540020A4
:102CF000CA430008245100202DE9F84F2DED028B26
:102D000082B0DFF8084BDFF8085B686A2060DFF804
:102D1000046B95ED0A0AB1EE400A86ED000ADFF871
:102D2000F87AE86A3860DFF8F48A206801F06CFA13
:102D300031F0004102000B0092469B46D8F800009B
:102D400001F062FA52465B4603F0EEF919D298EDB3
:102D5000000AD4ED000A20EE200A10EE100A01F05D
:102D600053FA82468B46206801F04EFA31F000415A
:102D700002000B005046594602F014FC01F026FBFD
:102D80002060306801F040FA31F0004102000B0091
:102D900092469B46D8F8000001F036FA52465B4650
:102DA00003F0C2F919D298ED000AD6ED000A20EE20
:102DB000200A10EE100A01F027FA80468946306892
:102DC00001F022FA31F0004102000B004046494672
:102DD00002F0E8FB01F0FAFA3060DFF8448A386864
:102DE00001F012FA31F0004102000B0092469B46BE
:102DF000D8F8000001F008FA52465B4603F094F957
:102E000019D298ED000AD7ED000A20EE200A10EE44
:102E1000100A01F0F9F980468946386801F0F4F9A2
:102E200031F0004102000B004046494602F0BAFB77
:102E300001F0CCFA3860DFF8EC99206801F0E4F991
:102E400082468B46386801F0DFF9D9E9002302F0A9
:102E5000D7FA52465B4601F0FBF901F0B7FAC5F824
:102E6000B000DFF8C48998ED000B03F078F9B0EEFC
:102E7000408AF0EE608A206801F0C6F953EC182B06
:102E800093F0004302F0BCFACDE90001306801F094
:102E9000BBF982468B4698ED000B03F066F951ECC6
:102EA000100B52465B4602F0ABFA02000B00DDE964
:102EB000000103F061F982468B46386801F0A4F9FD
:102EC000D9E9002302F09CFA52465B4601F0C0F9B2
:102ED00001F07CFAC5F8B400DFF8508998ED000BDA
:102EE00003F043F9B0EE408AF0EE608A206801F00A
:102EF0008BF953EC182B93F0004302F081FACDE9E3
:102F00000001306801F080F982468B4698ED000B95
:102F100003F025F951EC100B52465B4602F070FAB3
:102F2000DDE9002301F094F982468B46386801F010
:102F30006BF9D9E9002302F063FA52465B4601F0CF
:102F400087F901F043FAC5F8B800DFF8E408216812
:102F50000160DFF8E00831680160DFF8DC083968FB
:102F6000016002B0BDEC028BBDE8F18F38B52DEDEC
:102F7000048BDFF8C8489FED5E8B9FED5F9ADFF80A
:102F8000905895ED2C0A20EE090A10EE100A01F077
:102F90003BF953EC182B02F033FADFF8A428DFF8E2
:102FA000A43802F0FFFA03F059F9A4F8F20095ED05
:102FB0002D0A20EE090A10EE100A01F025F953EC53
:102FC000182B02F01DFADFF87828DFF8783802F0C5
:102FD000E9FA03F043F9A4F8C20095ED2E0A20EEB9
:102FE000090A10EE100A01F00FF953EC182B02F049
:102FF00007FADFF84C28DFF84C3802F0D3FA03F078
:103000002DF9A4F82201BDEC048B31BD2DE97043EC
:103010002DED068BDFF8F86796ED1E8AD6ED1F8A38
:1030200096ED209AB06801F0EFF841EC100B03F038
:1030300096F8B0EE40AAF0EE60AA18EE100A01F081
:10304000E3F853EC1A2B02F0DBF98046894618EEC0
:10305000900A01F0D9F804000D00B06801F0D4F82E
:1030600041EC100B03F081F851EC100B22002B0007
:1030700002F0C6F942464B4601F0EAF801F0A6F923
:103080007062B06801F0C0F841EC100B03F06DF80D
:10309000B0EE40AAF0EE60AAB1EE480A10EE100AB7
:1030A00001F0B2F853EC1A2B02F0AAF980468946D7
:1030B00018EE900A01F0A8F804000D00B06801F0C5
:1030C000A3F841EC100B03F04AF851EC100B22006E
:1030D0002B0002F095F942464B4601F0B9F801F099
:1030E00075F9B06286ED0B9ABDEC068BBDE8708376
:1030F00000000000008033400000704238B52DED24
:10310000048BB0EE409AB0EE608AF0EE418ADFF8B0
:103110003847DFF838072060DFF8340701780729DF
:1031200040F0C980DFEDDE9ADFF8285795ED000A00
:1031300039EE400AB4EE690AF1EE10FA1BDB95EDA8
:10314000000A39EE400ADFEDD70AB4EE600AF1EE6C
:1031500010FA10D5DFF800070021C161DFF8FC1676
:103160000162DFF8AC0600218167DFF8F406016830
:10317000491C016039E00020DFF8E416086095ED95
:10318000000A39EE400A10EE100A01F03DF831F065
:103190000041DFF8D026DFF8D03603F07DF812D8F2
:1031A000B0EE080ADFF8B00680ED080A80ED000AEC
:1031B00095ED000A39EE400AFFF71EFCDFF85006D5
:1031C00080ED1E0A11E0DFF890065FF08041016299
:1031D0005FF08141016095ED000A39EE400AFFF78A
:1031E0000BFCDFF82C0680ED1E0ADFF8805695ED0B
:1031F000000A38EE400AB4EE690AF1EE10FA1BDB61
:1032000095ED000A38EE400ADFEDA60AB4EE600A3A
:10321000F1EE10FA10D5DFF858060021C161DFF891
:103220003C160162DFF8E8050021C167DFF84406BB
:103230000168491C0160D1E10020DFF83816086000
:1032400095ED000A38EE400A10EE100A00F0DCFF9F
:1032500031F00041DFF80C26DFF80C3603F01CF8E3
:1032600014D8DFF80C06DFF810160162DFF80C1630
:10327000016095ED000A38EE400AFFF7BDFBB1EEA4
:10328000400ADFF88C0580ED1F0AA7E1DFF8E005B2
:103290005FF0804101625FF08141016095ED000ABD
:1032A00038EE400AFFF7A8FBB1EE400ADFF86005F0
:1032B00080ED1F0A92E100780C2840F0C980DFED14
:1032C000789ADFF8905595ED000A39EE400AB4EE91
:1032D000690AF1EE10FA1BDB95ED000A39EE400A9F
:1032E000DFED700AB4EE600AF1EE10FA10D5DFF8E7
:1032F00068050021C161DFF864150162DFF810057F
:1033000000218167DFF858050168491C016039E038
:103310000020DFF84C15086095ED000A39EE400AF0
:1033200010EE100A00F070FF31F00041DFF8342594
:10333000DFF8343502F0B0FF12D8B0EE080ADFF83B
:10334000180580ED080A80ED000A95ED000A39EEB7
:10335000400AFFF751FBDFF8B80480ED1E0A11E0C8
:10336000DFF8F4045FF0804101625FF081410160A9
:1033700095ED000A39EE400AFFF73EFBDFF89004B6
:1033800080ED1E0ADFF8E45495ED000A38EE400A9D
:10339000B4EE690AF1EE10FA1BDB95ED000A38EE87
:1033A000400ADFED400AB4EE600AF1EE10FA10D5E3
:1033B000DFF8BC040021C161DFF8A0140162DFF86E
:1033C00050040021C167DFF8AC040168491C0160AA
:1033D00004E10020DFF89C14086095ED000A38EE47
:1033E000400A10EE100A00F00FFF31F00041DFF844
:1033F0007424DFF8743402F04FFF14D8DFF870043F
:10340000DFF874140162DFF87414016095ED000AAE
:1034100038EE400AFFF7F0FAB1EE400ADFF8F003A9
:1034200080ED1F0ADAE0DFF848045FF080410162B6
:103430005FF08141016095ED000A38EE400AFFF728
:10344000DBFAB1EE400ADFF8C80380ED1F0AC5E0E1
:10345000DFED139ADFF8FC5395ED000A39EE400AD0
:10346000B4EE690AF1EE10FA1EDB95ED000A39EEB2
:10347000400ADFED0C0AB4EE600AF1EE10FA13D543
:10348000DFF8D4030021C161DFF8D0130162E04806
:1034900000218167DFF8C8030168491C01603BE037
:1034A0000AD7A3BC0BD7A33C0020DFF8B4130860F5
:1034B00095ED000A39EE400A10EE100A00F0A4FE65
:1034C00031F00041DFF89C23DFF89C3302F0E4FE8A
:1034D00011D8B0EE080ADFF8800380ED080A80ED0D
:1034E000000A95ED000A39EE400AFFF785FAC84850
:1034F00080ED1E0A10E0DFF860035FF0804101629A
:103500005FF08141016095ED000A39EE400AFFF756
:1035100073FABF4880ED1E0ADFF8505395ED000A9C
:1035200038EE400AB4EE690AF1EE10FA1ADB95EDB6
:10353000000A38EE400ADFEDB10AB4EE600AF1EE9F
:1035400010FA0FD5DFF828030021C161DFF80C1352
:103550000162AF480021C167DFF818030168491C08
:1035600001603BE00020DFF80C13086095ED000AD5
:1035700038EE400A10EE100A00F046FE31F000412D
:10358000DFF8E022DFF8E03202F086FE13D8DFF841
:10359000E002DFF8E4120162DFF8E012016095ED6D
:1035A000000A38EE400AFFF727FAB1EE400A9848C1
:1035B00080ED1F0A12E0DFF8B8025FF0804101627F
:1035C0005FF08141016095ED000A38EE400AFFF797
:1035D00013FAB1EE400A8E4880ED1F0A8C4D95ED2E
:1035E000020A38EEC00ADFED860AB4EE600AF1EE98
:1035F00010FA15DB95ED020A38EEC00ADFED7F0AFE
:10360000B4EE600AF1EE10FA0AD50020E061002065
:10361000C5F88000DFF838040168491C016048E003
:103620009FED780AD5ED020A78EEE00AF4EE400A42
:10363000F1EE10FA11DBF1EE688A95ED020A38EE30
:10364000C00A2000FFF7D8F9B1EE400A85ED200A44
:103650000020DFF8FC1308602BE0D5ED020A70EEC5
:10366000E80AF4EE400AF1EE10FA13DB9FED660A69
:1036700078EE808A95ED020A38EEC00A2000FFF746
:10368000BBF9B1EE400A85ED200A0020DFF8C01337
:1036900008600EE095ED020A38EEC00A2000FFF740
:1036A000ABF9B1EE400A85ED200A0020DFF8A01347
:1036B0000860FFF7ABFCBDEC048B31BD10B52DED00
:1036C000028BB0EE408ADFF88001DFF88C130160D6
:1036D000DFF8881181604E4C94ED020A38EE400A02
:1036E000DFED470AB4EE600AF1EE10FA1FDB94ED4D
:1036F000020A38EE400ADFED410AB4EE600AF1EE4C
:1037000010FA14D50021C1610020C4F88000DFF850
:1037100040030168491C0160DFF844010168491C4D
:103720000160DFF850010168491C01605DE09FED18
:10373000350AD4ED020A78EE600AF4EE400AF1EEA2
:1037400010FA18DBB1EE488A94ED020A38EE400A0E
:10375000FFF752F9B1EE400A84ED200A0020DFF8AD
:10376000F01208600020DFF8F81008600020DFF891
:103770000411086039E0D4ED020A70EEC80AF4EED4
:10378000400AF1EE10FA1ADB9FED1F0A38EE008AAC
:1037900094ED020A38EE400AFFF72EF9B1EE400A26
:1037A00084ED200A0020DFF8A81208600020DFF86E
:1037B000B01008600020DFF8BC10086015E094ED40
:1037C000020A38EE400AFFF717F9B1EE400A84ED1D
:1037D000200A0020DFF8781208600020DFF880104F
:1037E00008600020DFF88C1008600020E0670020EF
:1037F000A067FFF70BFCBDEC028B10BD0BD7A33C01
:103800000AD7A3BCDC0F4940DB0FC9407853002026
:10381000E84C00207C53002080530020240100202D
:1038200028010020209E0008289E0008309E0008E5
:1038300084530020885300208C5300201848002017
:1038400066F7E421C8B4DE3F740100200000A04008
:103850002C540020AC5300202C0100209A99993E52
:103860009C530020343333333333E33FA8530020D9
:1038700050010020A053002033333340000040406B
:1038800010B52DED048BB0EE409AB0EE608AF0EEEC
:10389000418A42F21070DFF850170860DFF868477D
:1038A00094ED000A38EE400ADFED670AB4EE600AD4
:1038B000F1EE10FA1ADB94ED000A38EE400ADFED63
:1038C000630AB4EE600AF1EE10FA0FD5DFF82407B0
:1038D0000021C161DFF80C170162D6480021C167E1
:1038E000DFF814070168491C01603BE00020DFF8A5
:1038F0000817086094ED000A38EE400A10EE100A2E
:1039000000F082FC31F00041DFF8E026DFF8E0361D
:1039100002F0C2FC13D8DFF8DC06DFF8E016016223
:10392000DFF8E016016094ED000A38EE400AFFF778
:1039300063F8B1EE400ABF4880ED1F0A12E0DFF8DD
:10394000B4065FF080410162DFF8B816016094EDC3
:10395000000A38EE400AFFF74FF8B1EE400AB548CA
:1039600080ED1F0ADFF87406DFF898160160B14C8D
:1039700094ED020A38EEC00ADFED360AB4EE600AB2
:10398000F1EE10FA14DB94ED020A38EEC00ADFED16
:10399000A50AB4EE600AF1EE10FA09D50021C16162
:1039A0000020C4F880002A480168491C016042E0F8
:1039B0009FED230AD4ED020A78EEE00AF4EE400A05
:1039C000F1EE10FA0FDBF1EE688A94ED020A38EEA0
:1039D000C00AFFF711F8B1EE400A84ED200A00207A
:1039E0001B49086027E0D4ED020A70EEE80AF4EE05
:1039F000400AF1EE10FA11DB9FED120A78EE808A90
:103A000094ED020A38EEC00AFEF7F6FFB1EE400A66
:103A100084ED200A00200E4908600CE094ED020AB3
:103A200038EEC00AFEF7E8FFB1EE400A84ED200A46
:103A3000002007490860FFF7E9FABDEC048B10BDD0
:103A4000DC0F4940DB0FC9400AD723BC0BD7233C0E
:103A5000A45300208FC275BC0000204010B52DED8E
:103A6000048BB0EE409AB0EE608AF0EE418A42F2EA
:103A70001070DFF874150860DFF8904394ED000AC9
:103A800038EE400ADFED680AB4EE600AF1EE10FA93
:103A90001ADB94ED000A38EE400ADFED640AB4EE5A
:103AA000600AF1EE10FA0FD5DFF848050021C16178
:103AB000DFF8301501625F480021C167DFF8380583
:103AC0000168491C01603BE00020DFF82C1508600C
:103AD00094ED000A38EE400A10EE100A00F094FB54
:103AE00031F00041DFF80425DFF8043502F0D4FBA3
:103AF00013D8DFF80005DFF814150162DFF80415AC
:103B0000016094ED000A38EE400AFEF775FFB1EE51
:103B1000400A484880ED1F0A12E0DFF8D804DFF8B9
:103B2000EC140162DFF8DC14016094ED000A38EE59
:103B3000400AFEF761FFB1EE400A3E4880ED1F0AE1
:103B4000DFF89804DFF8BC1401603A4C94ED020AE7
:103B500038EEC00ADFED360AB4EE600AF1EE10FA74
:103B600015DB94ED020A38EEC00ADFED2E0AB4EE42
:103B7000600AF1EE10FA0AD50021C1610020C4F8F4
:103B80008000DFF84C060168491C016045E09FEDAC
:103B90009A0AD4ED020A78EEE00AF4EE400AF1EE59
:103BA00010FA10DBF1EE688A94ED020A38EEC00AD2
:103BB000FEF722FFB1EE400A84ED200A0020DFF874
:103BC0001016086029E0D4ED020A70EEE80AF4EE5F
:103BD000400AF1EE10FA12DB9FED880A78EE808A37
:103BE00094ED020A38EEC00AFEF706FFB1EE400A75
:103BF00084ED200A0020DFF8D81508600DE094ED70
:103C0000020A38EEC00AFEF7F7FEB1EE400A84ED74
:103C1000200A0020DFF8B8150860FFF7F7F9BDECBF
:103C2000048B10BD90C2753C0AD723BC0BD7233C34
:103C30008FC275BCE84C002038B52DED048BB0EE7A
:103C4000409AB0EE608AF0EE418A42F21070DFF8DE
:103C5000A8130860DFF88443F0EE089AC4ED009AD8
:103C6000DFF8705595ED000A39EE400ADFED640A81
:103C7000B4EE600AF1EE10FA18DB95ED000A39EEA9
:103C8000400ADFED600AB4EE600AF1EE10FA0DD5DD
:103C9000D3480021C161D3490162DFF83C0500210E
:103CA0008167D1480168491C016034E00020CE4999
:103CB000086095ED000A39EE400A10EE100A00F097
:103CC000A3FA31F00041C94AC94B02F0E5FA10D815
:103CD000C348DFF808150162C0ED009A95ED000AAF
:103CE00039EE400AFEF788FEDFF8EC0480ED1E0A8C
:103CF00011E00020A060BA48DFF810130162C0EDA7
:103D0000009A95ED000A39EE400AFEF775FEDFF8DD
:103D1000C80480ED1E0ADFF8C05495ED020A38EEA3
:103D2000C00ADFED390AB4EE600AF1EE10FA15DBD5
:103D300095ED020A38EEC00ADFEDA30AB4EE600A80
:103D4000F1EE10FA0AD50020E0610020C5F88000ED
:103D5000DFF87C040168491C016048E09FED260AF9
:103D6000D5ED020A78EEE00AF4EE400AF1EE10FA20
:103D700011DBF1EE688A95ED020A38EEC00A2000E8
:103D8000FEF73AFEB1EE400A85ED200A0020DFF88A
:103D9000401408602BE0D5ED020A70EEE80AF4EE5C
:103DA000400AF1EE10FA13DB9FED140A78EE808AD8
:103DB00095ED020A38EEC00A2000FEF71DFEB1EEB6
:103DC000400A85ED200A0020DFF8041408600EE0A8
:103DD00095ED020A38EEC00A2000FEF70DFEB1EEA6
:103DE000400A85ED200A0020DFF8E4130860FFF7A1
:103DF0000DF9BDEC048B31BDDC0F4940DB0FC94030
:103E00000AD7A3BC0BD7A33C8FC275BCB453002008
:103E100038B52DED048BB0EE409AB0EE608AF0EE2E
:103E2000418A42F21070744908606C4CF0EE089AB6
:103E3000C4ED009ADFF8A85395ED000A39EE400A68
:103E4000DFED620AB4EE600AF1EE10FA18DB95EDD0
:103E5000000A39EE400ADFED5E0AB4EE600AF1EEC8
:103E600010FA0DD55E480021C1615E490162DFF89C
:103E70006803002181675C480168491C016031E0EA
:103E800000205949086095ED000A39EE400A10EE0D
:103E9000100A00F0B9F931F00041544A544B02F0D5
:103EA000FBF90FD84E48C0ED089AC0ED009A95ED89
:103EB000000A39EE400AFEF79FFDDFF81C0380ED93
:103EC0001E0A0FE046485FF080410162C0ED009A93
:103ED00095ED000A39EE400AFEF78EFDDFF8F80294
:103EE00080ED1E0ADFF8F05295ED020A38EEC00AA6
:103EF000DFED380AB4EE600AF1EE10FA15DB95ED4D
:103F0000020A38EEC00ADFED300AB4EE600AF1EEC4
:103F100010FA0AD50020E0610020C5F88000DFF823
:103F2000B0020168491C016048E09FED2B0AD5ED05
:103F3000020A78EEE00AF4EE400AF1EE10FA11DB24
:103F4000F1EE688A95ED020A38EEC00A2000FEF70D
:103F500053FDB1EE400A85ED200A0020DFF8701213
:103F600008602BE0D5ED020A70EEE80AF4EE400A94
:103F7000F1EE10FA13DB9FED220A78EE808A95EDC0
:103F8000020A38EEC00A2000FEF736FDB1EE400A04
:103F900085ED200A0020DFF8381208600EE095ED6C
:103FA000020A38EEC00A2000FEF726FDB1EE400AF4
:103FB00085ED200A0020DFF818120860FFF726F8C8
:103FC000BDEC048B31BD000090C2753C0AD7A3BC88
:103FD0000BD7A33C8FC275BCDC0F49407401002095
:103FE0002C0100209A99993E9C530020343333339E
:103FF0003333E33F50010020A053002033333340DC
:10400000DB0FC94000004040A8530020CDCCCC3F7E
:1040100038B52DED048BB0EE409AB0EE608AF0EE2C
:10402000418A42F21070734908606E4CF0EE089AB3
:10403000C4ED009A704D95ED000A39EE400ADFEDAF
:10404000600AB4EE600AF1EE10FA17DB95ED000A93
:1040500039EE400ADFED5B0AB4EE600AF1EE10FAC9
:104060000CD561480021C161604901625A480021B4
:1040700081675F480168491C016030E000205C49AD
:10408000086095ED000A39EE400A10EE100A00F0C3
:10409000BBF831F00041594A594B02F0FDF80ED8F7
:1040A00051484E490162C0ED009A95ED000A39EE83
:1040B000400AFEF7A1FC484880ED1E0A0FE00020F0
:1040C000A06049484F490162C0ED009A95ED000A91
:1040D00039EE400AFEF790FC3F4880ED1E0A3E4D47
:1040E00095ED020A38EEC00ADFED370AB4EE600A39
:1040F000F1EE10FA14DB95ED020A38EEC00ADFED9E
:10410000330AB4EE600AF1EE10FA09D50020E0613E
:104110000020C5F880002E480168491C016045E078
:104120009FED250AD5ED020A78EEE00AF4EE400A8A
:10413000F1EE10FA10DBF1EE688A95ED020A38EE26
:10414000C00A2000FEF758FCB1EE400A85ED200AB7
:1041500000201F49086029E0D5ED020A70EEE80A48
:10416000F4EE400AF1EE10FA12DB9FED140A78EE3D
:10417000808A95ED020A38EEC00A2000FEF73CFC6A
:10418000B1EE400A85ED200A0020114908600DE0DB
:1041900095ED020A38EEC00A2000FEF72DFCB1EEC4
:1041A000400A85ED200A002009490860FEF72EFF2D
:1041B000BDEC048B31BD0000DC0F4940DB0FC94072
:1041C0000AD7A3BC0BD7A33C8FC275BC90C2753C69
:1041D000A4530020B0530020E84C00206666E63F60
:1041E000AC530020740100202C0100209A99993EC4
:1041F0009C530020A0530020B453002034333333A9
:104200003333E33FCDCCCC3FC0F3C75181B1FF295D
:1042100006D0C110400721F0E04101F16051704724
:1042200041020CBF40F4E0016FF0004100207047F4
:1042300000F0004100020AD0B0FA80FC00FA0CF055
:1042400001F16051A1EB0C5101EBD0214005704709
:1042500070B44FF0004591EA030F41F195876B4030
:10426000841A71EB030604D26E40001BB14112198F
:1042700073414FF4001C1CEB410F34BF7CEB430631
:1042800083E00C0DA4EB1356362E00F37C80012E38
:1042900045EAC32341DC43EA525312BFD2029202E1
:1042A0005B08240545EAC12141EA5051D2EBC02008
:1042B000994125D407D1B0FA80F610FA06F162D000
:1042C0000020203608E0B1FA81F6B140C6F12002A4
:1042D00020FA02F21143B0404FEAF474B4EB4654B2
:1042E00034F001064FEA74040AD8D6F50016760DAC
:1042F00004F00044F04061FA06F25040F1404840BA
:10430000C00A40EA415021F0004128BF5FEA500551
:1043100050F1000044EBD12135E0DB0A45EAC12130
:10432000C90AB6F120050EDD42EA0242120CC5F1BF
:10433000200603FA06F6EB4042EA06056D42984174
:1043400061F100010DE062FA06F5F240554063FAB2
:1043500006FC82EA0C02F3405A406D42904161EB48
:10436000030111F4801F05D1641E620502D06D00A7
:104370004041494121F48011430875F1004350F157
:10438000000041EB045170BC70471CEB410F15D28B
:1043900023F0004352EA43060BD04FEA4C0CBCEB2F
:1043A000410F04D80C0D661E342EB7DDEBE7801AE2
:1043B000994150EA410608BF0021E4E708BF1CEB21
:1043C000430F28BF6FF00001DDE7010001F000425C
:1043D0008B1AA3F16051B1F5801F0ADBB1F17F6F39
:1043E0001FD242EAC102C10071F1004142EB50709C
:1043F00070470B15C3F10903212B10D2890241EA42
:10440000905180020128494141F0004121FA03F016
:10441000C3F12003994071F10041504170471000F1
:1044200070476FF0000013EB103F5CBF000E42EAD4
:10443000C05070472DE9F0438EB0060037005FF0A2
:10444000060CEE4608784A7852EA00223800C0B2DC
:104450000CFB00F02EF8002068463A00D2B20CFBAC
:1044600002F210448A78CB7853EA022343806846EC
:104470003A00D2B20CFB02F210440A794B7953EAAB
:10448000022383805FF03008DFF8D0943800C0B298
:1044900008FB00F009EB00023800C0B20CFB00F092
:1044A0003EF800303800C0B208FB00F048440089F4
:1044B0001B1A13853800C0B208FB00F04844B0F95D
:1044C0000800002806D13800C0B208FB00F04844BC
:1044D000002202853800C0B208FB00F04844B0F961
:1044E000280040F6FF72904216DB3800C0B208FB8D
:1044F00000F04844B0F9080000280DD03800C0B2E0
:1045000008FB00F048443A00D2B208FB02F24A44E9
:10451000128DB2F5005202853800C0B208FB00F0DF
:104520004844B0F92800DFF83824904216DA380001
:10453000C0B208FB00F04844B0F9080000280DD0D4
:104540003800C0B208FB00F048443A00D2B208FB81
:1045500002F24A44128D12F5005202853800C0B2B0
:1045600008FB00F048443A00D2B208FB02F24A4489
:10457000D2E904453A00D2B208FB02F24A44B2F949
:104580002820D317A2186B41C0E904233800C0B219
:1045900008FB00F048443A00D2B20CFB02F23EF8AD
:1045A0000220028168463A00D2B20CFB02F21044AB
:1045B00040883A00D2B208FB02F229F80200380023
:1045C000C0B208FB00F809EB08006A463B00DBB20A
:1045D0000CFB03FC6244928882800EB0BDE8F0833D
:1045E00010B5DFF87843B4F93210B4F93000091A85
:1045F00000EE101AB8EEC00ADFF86803FEF762F9A1
:10460000B4F9360000EE900AF8EEE00A30EE800AC7
:10461000BDEEC00A10EE100AE086B4F96210B4F9DB
:104620006000091A00EE101AB8EEC00ADFF838036D
:10463000FEF748F9B4F9660000EE900AF8EEE00AD9
:1046400030EE800ABDEEC00A10EE100AA4F8660033
:10465000B4F99210B4F99000091A00EE101AB8EEED
:10466000C00ADFF80803FEF72DF9B4F9960000EE52
:10467000900AF8EEE00A30EE800ABDEEC00A10EEB5
:10468000100AA4F89600B4F9C210B4F9C000091ACF
:1046900000EE101AB8EEC00ADFF8D402FEF712F9E5
:1046A000B4F9C60000EE900AF8EEE00A30EE800A97
:1046B000BDEEC00A10EE100AA4F8C600B4F9F2105C
:1046C000B4F9F000091A00EE101AB8EEC00ADFF8CB
:1046D000A402FEF7F7F8B4F9F60000EE900AF8EE3F
:1046E000E00A30EE800ABDEEC00A10EE100AA4F80F
:1046F000F600B4F92211B4F92001091A00EE101ADB
:10470000B8EEC00ADFF87002FEF7DCF8B4F9260153
:1047100000EE900AF8EEE00A30EE800ABDEEC00A24
:1047200010EE100AA4F82601B4F95211B4F95001A0
:10473000091A00EE101AB8EEC00ADFF84002FEF7C0
:10474000C1F8B4F9560100EE900AF8EEE00A30EE36
:10475000800ABDEEC00A10EE100AA4F85601B4F9A2
:104760008211B4F98001091A00EE101AB8EEC00ADD
:104770008348FEF7A7F8B4F9860100EE900AF8EE38
:10478000E00A30EE800ABDEEC00A10EE100AA4F86E
:10479000860110BD18B589B04FF400700390002059
:1047A0000590002006900820079000208DF820003A
:1047B000684600210022C0E9001201242000C0B296
:1047C000092826DA302065492200D2B242430A4441
:1047D000B2F9062044F201039A4208DB2200D2B269
:1047E00000FB02F008444FF48041C1800FE022003A
:1047F000D2B242430A44B2F9062012F5804F06DADB
:104800002200D2B200FB02F008445E49C180641C61
:10481000D4E75248B0F9361009128DF800106946F5
:10482000C28E4A70B0F9662012128DF80220B0F8DC
:1048300066208DF80320B0F9962012128DF804201E
:10484000B0F896208DF80520B0F9C62012128A71B2
:10485000B0F8C6008DF8070002AB6A4603A94A48C3
:1048600001F0ACFE002804D048480188491C0180B2
:10487000F2E70AB010BD18B589B040F2FF100390FE
:1048800000200590002006900820079000208DF859
:104890002000684600210022C0E900120124200007
:1048A000C0B2092826DA30202C492200D2B2424375
:1048B0000A44B2F9062044F201039A4208DB2200BE
:1048C000D2B200FB02F008444FF48041C1800FE0F7
:1048D0002200D2B242430A44B2F9062012F5804FB8
:1048E00006DA2200D2B200FB02F008442549C1805A
:1048F000641CD4E71948B0F9F61009128DF80010BD
:104900006946B0F8F6204A70B0F9262112128DF8E7
:104910000220B0F826218DF80320B0F9562112129A
:104920008DF80420B0F856218DF80520B0F98621C5
:1049300012128A71B0F886018DF8070002AB6A4640
:1049400003A9114801F03AFE002804D00F4801885D
:10495000491C0180F2E70AB010BD00001848002091
:1049600002F0FFFF0000002024000020480000208B
:104970006C00002090000020B4000020D80000202F
:10498000FC00002000C0FFFFA8510020245400209C
:104990002DE9F04F85B006000F0090469946DDF8EE
:1049A00038A00F9C109D002C07D1502080F3118857
:1049B000BFF34F8FBFF36F8FFEE7002D07D150205D
:1049C00080F31188BFF34F8FBFF36F8FFEE75C203A
:1049D000009000985C2807D0502080F31188BFF326
:1049E0004F8FBFF36F8FFEE70098002D19D0002C7A
:1049F00017D0AB46CBF8304002208BF8590000208E
:104A00000390CDF808B004A80190CDF800A04B4663
:104A100042463900300000F047F8584600F0B7F839
:104A200001E000200490049805B0BDE8F08F2DE966
:104A3000F84F84B006000F0090469946DDF838A084
:104A4000DDF83CB0404680B2800002F02BF8050053
:104A5000002D0BD05C2002F025F80400002C01D0C2
:104A6000256304E0280002F0B1F800E00024002CE7
:104A700015D0002084F85900002003900294CDF84E
:104A800004B0CDF800A04B46424692B23900300047
:104A900000F00AF8200000F07AF8012001E05FF051
:104AA000FF3005B0BDE8F08F2DE9F94F81B00C0063
:104AB00016000C9F0D9DDDF83880B00000905FF06F
:104AC000A50BD8F830A05A460099504602F02EF9AE
:104AD000D8F8300000EB8600B0F1040A5FEADA0A89
:104AE0005FEACA0A1AF00700002807D0502080F3B6
:104AF0001188BFF34F8FBFF36F8FFEE7002C15D0E7
:104B000000208146B9F1100F0CD214F8090008EB0F
:104B1000090181F8340014F80900002802D019F1C5
:104B20000109EFE7002088F8430002E0002088F840
:104B30003400382F01D337200700C8F82C70C8F88C
:104B40004C700020C8F8500018F1040002F030F951
:104B500018F1180002F02CF9C8F81080D7F13800CD
:104B6000C8F81800C8F824800020C8F854000020B5
:104B700088F85800029A0199504602F057F9C8F88F
:104B80000000002D01D0C5F80080BDE8F78F38B5D2
:104B9000040002F0DBF9DFF82C140868401C086000
:104BA000DFF824542868002806D12C600868012802
:104BB0000DD100F0E9FA0AE0DFF8100400680028DF
:104BC00005D1E06A2968C96A884200D32C60DFF801
:104BD00000040168491C016000686064DFF8F403A8
:104BE0000168E26A914201D2E16A0160211DDFF8A9
:104BF000E823E36A1420434302EB030002F0DBF8EE
:104C000002F0BEF9DFF8C403006800280DD0286860
:104C1000C06AE16A884208D25FF08050DFF89C14D5
:104C20000860BFF34F8FBFF36F8F31BD38B50500FC
:104C30000024002D15D0DFF868040068002807D094
:104C4000502080F31188BFF34F8FBFF36F8FFEE7C3
:104C500000F060F80021280000F084FB00F060F80C
:104C60000400002C08D15FF08050DFF85014086079
:104C7000BFF34F8FBFF36F8F31BD10B586B00020EB
:104C800004900020039005AA03A904A8FCF728FEBD
:104C9000DFF8A84604980290039801900020009045
:104CA0000023059ADFF898160FF2B940FFF770FE5F
:104CB00020602068002801D0012400E00024012C9D
:104CC00002D102F0E1F90400012C16D1502080F34A
:104CD0001188BFF34F8FBFF36F8F5FF0FF30DFF8A6
:104CE000641608600120DFF8E41208600020DFF895
:104CF000B413086002F0C3F80AE014F1010F07D101
:104D0000502080F31188BFF34F8FBFF36F8FFEE702
:104D100006B010BDDFF888030168491C01607047C8
:104D2000F8B500250026DFF878432068002807D171
:104D3000502080F31188BFF34F8FBFF36F8FFEE7D2
:104D400002F004F92068401E20602068002857D136
:104D5000DFF870020068002852D0DFF8DC15086820
:104D6000002827D0C868C068050015F1180002F0B7
:104D700049F8281D02F046F8DFF858020168EA6A8F
:104D8000914201D2E96A0160291DDFF84C22EB6AE9
:104D90001420434302EB030002F00DF8E86ADFF849
:104DA00028120968C96A8842D7D30120DFF898150C
:104DB0000860D2E7002D01D000F054FADFF88C75BE
:104DC0003C68002C0CD000F023F8002803D0012010
:104DD000DFF874150860641E002CF4D100203860E0
:104DE000DFF86405006800280AD0012006005FF0A3
:104DF0008050DFF8C8120860BFF34F8FBFF36F8F8A
:104E000002F0BEF83000F2BDDFF89802006870478B
:104E10002DE9F0410027A2480068002875D1DFF88D
:104E200084020468641C0460002C1CD1DFF8201389
:104E300008680068002807D0502080F31188BFF36D
:104E40004F8FBFF36F8FFEE7D1F80080DFF81003BC
:104E500002680A60C0F80080DFF8F4040168491CA9
:104E6000016000F0FFF9DFF8DC84D8F8000084422C
:104E700038D3DFF8DC1208680068002804D15FF03E
:104E8000FF30C8F800002DE00868C068C068050061
:104E900068680600B44202D2C8F8006022E0281D0B
:104EA00001F0B0FFA86A002803D015F1180001F046
:104EB000A9FF48480168EA6A914201D2E96A0160A3
:104EC000291D454AEB6A1420434302EB030001F01D
:104ED00072FFE86A3C490968C96A8842C9D301205F
:104EE0000700C6E7384800683B49C26A14204243BD
:104EF0008858022801D301200700DFF84C0400681D
:104F0000002807D00120070004E0DFF84004016812
:104F1000491C01603800BDE8F08110B460480068A9
:104F2000002804D00120DFF8201408602CE00020C5
:104F3000DFF814140860274A10681423264C03FB7A
:104F400000F1615800290BD1002807D1502181F3CD
:104F50001188BFF34F8FBFF36F8FFEE7401EECE762
:104F600003FB00F304EB03014B685B684B604B6889
:104F700011F10804A34202D14B685B684B60496899
:104F8000C968114B1960106010BC704738B5040037
:104F90000D00002C07D1502080F31188BFF34F8FF4
:104FA000BFF36F8FFEE7DFF8AC03006810F1180164
:104FB000200001F00CFF0121280000F0D3F931BDE1
:104FC00000000000E4530020D4530020F0530020E0
:104FD00000540020EC530020B43D002070B50500C3
:104FE0000E001400002D07D1502080F31188BFF36C
:104FF0004F8FBFF36F8FFEE7DFF8D403006810F127
:105000001801280001F0D7FE002C02D05FF0FF301D
:1050100006002100300000F0A5F970BD38B505008C
:10502000E868C468002C07D1502080F31188BFF3D2
:105030004F8FBFF36F8FFEE714F1180001F0E2FE0F
:1050400017480068002815D1201D01F0DBFEDFF8AD
:1050500008030168E26A914201D2E16A0160211D00
:10506000DFF8F822E36A1420434302EB030001F067
:10507000A2FE05E014F11801DFF8BC0201F09BFE6E
:10508000DFF8D0020068C06AE16A884205D20120D8
:105090000121DFF8B422116000E0002032BD0000E1
:1050A0000C540020E8530020DFF8A41209680160C6
:1050B000DFF82013096841607047000004ED00E04C
:1050C0002DE9F04104000D00002C07D1502080F3A1
:1050D0001188BFF34F8FBFF36F8FFEE7002D07D10D
:1050E000502080F31188BFF34F8FBFF36F8FFEE71F
:1050F00001F02CFFDFF8DC0206686768F71B286800
:1051000010F1010F02D15FF000081BE0DFF8400250
:1051100000682168884205D06068864202D35FF04B
:1051200001080FE02868874208D22868C01B286061
:105130002000FFF7B9FF5FF0000803E000202860BF
:105140005FF0010801F01CFF4046BDE8F08100005F
:10515000D85300200120DFF8F011086070470000EC
:10516000DC53002010B5040000F039F8DFF8EC0142
:1051700000680228F8D35FF0805028490860BFF328
:105180004F8FBFF36F8FEFE770B50024382C09D233
:10519000DFF8C801142101FB04F1084401F0F9FD16
:1051A000641CF3E7DFF83052280001F0F2FDDFF86D
:1051B0002C62300001F0EDFDDFF87C0101F0E9FD2B
:1051C000DFF81C0201F0E5FDDFF8180201F0E1FD57
:1051D000DFF814020560DFF81402066070BD38B510
:1051E000DFF80C522868002817D001F0AFFEDFF876
:1051F000F001C068C0680400201D01F003FEDFF864
:10520000F4010168491E01602868401E286001F011
:10521000B7FE200000F004F8E2E731BD04ED00E045
:1052200010B5040094F85900002806D1206B01F055
:10523000CDFC200001F0CAFC13E094F859000128CD
:1052400003D1200001F0C2FC0BE094F859000228C1
:1052500007D0502080F31188BFF34F8FBFF36F8FBB
:10526000FEE710BDDFF8802110680068002804D137
:105270005FF0FF30334A106006E01068C068C06815
:10528000010048682F4A10607047DFF86C01006821
:10529000002801D1012007E0DFF8C40000680028E1
:1052A00001D1022000E00020704770B50400250005
:1052B0000026002C3ED0DFF89C000068854207D015
:1052C000502080F31188BFF34F8FBFF36F8FFEE73D
:1052D000286D002807D1502080F31188BFF34F8F2D
:1052E000BFF36F8FFEE7286D401E2865E86AE96C02
:1052F00088421FD0286D00281CD1281D01F082FD96
:10530000E86CE862E86AD0F13800A861DFF848008C
:105310000168EA6A914201D2E96A0160291DDFF859
:105320003C20EB6A1420434302EB030001F043FDF1
:1053300001200600300070BD7C520020085400207F
:10534000409E000804540020F8530020F45300202D
:10535000FC530020D4530020EC530020B43D002027
:105360000C5400202DE9F04105000C001948076895
:10537000DFF85C80D8F80000001D01F043FD15F156
:10538000010F08D1002C06D0D8F80000011D1548E7
:1053900001F011FD1AE0E8190600D8F80000466097
:1053A000BE4207D2D8F80000011D1048006801F085
:1053B0000EFD0BE0D8F80000011D0B48006801F05D
:1053C00006FD0E4801688E4200D20660BDE8F081FD
:1053D000D4530020E853002054520020685200208B
:1053E00090520020A4520020D8530020DC5300200B
:1053F000E0530020E4530020F05300200454002028
:10540000B0B581EA030C0CF0004C40F2FF7515EAD0
:1054100011541DBF15EA1357AC42AF4239E0E419ED
:1054200023EA455343F48013C90241F0004141EAA5
:10543000505EC7021100A7FB020200284FF00000D7
:10544000EEFB01204FF00001E3FB072118BF42F003
:105450000102401800214941E3FB0E01A4F58064DC
:105460000F0302D252004041494154F101046CDD66
:10547000470872F1004250F1000051EB0451A1F5D0
:1054800080115CBF41EA0C01B0BD4CEA055100201F
:10549000B0BD05EA1357AC4214BFAF4241E050EA39
:1054A000410E1CBF52EA430E02E061460020B0BD2F
:1054B00024423C441BD15FEA070EF6D0090302BF29
:1054C00001460020AEF1140EB1FA81F7AEEB0704ED
:1054D00001FA07FE0C37C7F1200100FA07F7C840B0
:1054E0004EEA000E23EA455343F48013A2E733F05B
:1054F0000043B3FA83F704BFB2FA82FE77440B3F4E
:10550000E41BB7F1200E2FBF02FA0EF3BB40C7F128
:10551000200E22FA0EFE38BF43EA0E03BA40641C86
:1055200082E750EA410E14BF52EA430E6FF00001C9
:105530004FF4001717EB430F8ABF194617EB410FC3
:10554000B5E74CEA05510020B0BDD4F10104B4F137
:1055500020070FDAC4F12007520828BF42F00102E9
:1055600010FA07F501FA07F7E1BF2A43E040384394
:10557000E1400FE0352C98DCC7F1200452EA4002EC
:1055800020FA07F218BF42F0010231FA07F0A140F9
:105590000A43002172F1004250F1000051EB0C016E
:1055A000B0BD0000F0B540F2FF7581EA030C0CF0CD
:1055B000004C15EA11541DBF15EA1357AC42AF4217
:1055C000E5E0BC41C1F31301C3F31303801A994111
:1055D00043F4801304D2641E4000494180185941AD
:1055E000C90241EA5051B1FBF3F603FB1611A2FBCD
:1055F0000675D7EBC020A94102D2761E801859410A
:10560000C90241EA5051B1FBF3FE03FB1E11A2FB9C
:105610000E75D7EBC020A94103D2AEF1010E801860
:105620005941890241EA9051760546EA8E2EB1FB36
:10563000F3F603FB1611A2FB0675D7EB8020A941F8
:1056400002D2761E80185941C90241EA50514EEAF1
:10565000060EB1FBF3F603FB1611A2FB0675D7EBA2
:10566000C020A94102D2761E80185941C90241EAE0
:105670005051B1FBF3F703FB1711A2FB0735D3EB36
:10568000C020A94167F100070CBF004247F00107A5
:1056900066F3D5274FEA1E31B80814F5806412DD91
:1056A000BD0775F1004250EB0E5051EB045111F55E
:1056B000801F5CBF41EA0C01F0BD4CF07F6141F0FE
:1056C000E0410020F0BDBD076D0840EA0E5041F4F6
:1056D0008011D4F10104B4F120060ADAC4F12006E5
:1056E0000200E04001FA06F3E1401843B2401543DE
:1056F0000EE0342C13DCC6F1200445EA40056D08A9
:1057000020FA06F2154321FA06F0A1400D430021CC
:1057100075F1004250F1000051EB0C01F0BD00208A
:105720005FEA0C01F0BDCFB992185B41B3FA83F781
:1057300004BFB2FA82F6BF190B3FB7F120062FBFA4
:1057400002FA06F3BB40C7F1200622FA06F638BF7C
:105750003343BA401CB1E419641E33E77F4231F091
:105760000041B1FA81F404BFB0FA80F6A4190B3CF1
:10577000B4F120062FBF00FA06F1A140C4F12006C3
:1057800020FA06F638BF3143A0403C1B1AE7AC4272
:105790001ABF05EA1357AF4212E050EA41061CBF98
:1057A00052EA4306BFE750EA4107304661461CBF54
:1057B00041EA0551F0BD52EA430C08BFC143F0BDB8
:1057C00000204FF4001616EB410F98BF16EB430F65
:1057D00008BF16EB410F24BFC14305E016EB430F92
:1057E0000CBF61464CEA0551F0BD0000C11768B11D
:1057F0004840401AB0FA80F29040D21CC907C2F566
:10580000846241EA025202EBD02140057047000059
:1058100010B5DFF8DC42DFF8DC0220605FF4E13035
:1058200060600020A0600020E060002020610C206B
:1058300060610020A0610020E0612000FCF724FBF3
:10584000002801D001F0FEFE0122DFF8AC1220009A
:10585000FCF7C1FB10BD80B5DFF8A002DFF8A01295
:1058600001605FF4E1314160002181600021C1608D
:10587000002101610C214161002181610021C16190
:10588000FCF702FB002801D001F0DCFE01BD80B571
:10589000DFF87002DFF870120160DFF8701241600B
:1058A000002181604FF40051C16000210161042199
:1058B0004161002181610021C161FCF7E5FA002806
:1058C00001D001F0BFFE01BD10B5DFF84442DFF8A2
:1058D000440220605FF4E13060600020A06000209E
:1058E000E060002020610C2060610020A0610020A9
:1058F000E0612000FCF7C8FA002801D001F0A2FE08
:105900000122DFF814122000FCF765FB10BD10B572
:1059100086B004006846142101F096FE206875499F
:10592000884248D1002005907C48016851F0100160
:105930000160006810F010000590059800200590A7
:105940007748016851F002010160016811F002011D
:105950000591059900210591016851F0010101604F
:10596000006810F00100059005988020009002204A
:1059700001900020029003200390072004906946C4
:10598000684801F065FE4FF400700090022001901D
:10599000002002900320039007200490694662488B
:1059A00001F056FE00220521252002F00DF82520E9
:1059B00002F01FF899E02068514988422ED100205A
:1059C00005905A48016851F400310160006810F4F4
:1059D000003005900598002005905148016851F06D
:1059E00008010160006810F008000590059860202B
:1059F00000900220019000200290032003900720D5
:105A0000049069464A4801F023FE00220521262021
:105A100001F0DAFF262001F0ECFF66E020683A4949
:105A200088422FD1002005904048016851F4802120
:105A30000160006810F48020059005980020059012
:105A40003748016851F004010160006810F004005B
:105A5000059005984FF440600090022001900020CE
:105A6000029003200390072004906946314801F01A
:105A7000EFFD00220521272001F0A6FF272001F0DD
:105A8000B8FF32E02068234988422ED100200590DB
:105A90002248016851F020010160006810F02000E8
:105AA00005900598002005901D48016851F04001BF
:105AB0000160006810F04000059005984FF48440A4
:105AC0000090022001900020029003200390082003
:105AD00004906946184801F0BBFD002205214720CB
